:100000000C9449050C9466050C9466050C946605E1
:100010000C9466050C9466050C9466050C946605B4
:100020000C9466050C9466050C9466050C946605A4
:100030000C9466050C9466050C9466050C94660594
:100040000C9466050C9466050C9466050C94660584
:100050000C9466050C9466050C9466050C94660574
:100060000C94090D0C946605A877A6E0F7435A3561
:1000700085E272978FB71A6287380D67C7BE4F3E09
:100080002076378F68B7A9263F2B10E3307E900E7D
:10009000850A70510386400D4FEB3ECCD18735BDAC
:1000A000F50B5ED0F8F2D5E26C310CADFC21C378D3
:1000B000C106C24C55E64A3448111EDAE71A84A03C
:1000C00096A7E37FAF639CFA235B79C89EBAB2C957
:1000D00022124BB3A1B63249A2E189391066C50795
:1000E0008F54EA91CA3FF919F0D746BC281B61E842
:1000F0002F6AAE9DF64E0914774DDB1F2E7B7CF1E7
:1001000043A300B8138C85B9297588FDD2561C50BD
:100110009741E53B60B5C064EE98D62D25A4AACDE5
:100120007DA883C6ABBE4499263CCE9FBFD3CB7679
:100130007A7E82018A9A801D0EB05CD43862F430D7
:10014000E08E53B70257ACA6520A6D92651724335E
:10015000457274B1B4F75DED2CFF47375A90BBDFA1
:100160002A165995D9C4276773C768FEA5DD6B5F4A
:1001700093D8EC053A8D6EFB3DA96936F394DEEF1A
:10018000156F8B9B080FDC81182004E471CFE92BDD
:10019000425801A0A962D63F85A7B6D4FA156617C2
:1001A00009BD5D14342659729154064FF8B05B7442
:1001B00093998CF245CDEA4EAD104AE5CAEEDFC602
:1001C0006F9F888E02CC08A877946D21B128E439FE
:1001D0007996607181162EE678B9C4469A42AEB718
:1001E0007C43B3221A86C2323D2D9CD229E9639BFF
:1001F000D131385E1E3641BB03182B3EBF6861FC0F
:1002000052C0DEE00A58135A00BE1C900E5312FD75
:10021000E26EBACE2427447F87A3A1D55040E3F9EC
:1002200083F7C7A235C8DB19AB2F1125ED339E55D7
:10023000E148AF7384DA2AAA51EB9D95B2CBE770FF
:1002400080FE4C6504EFC5F1C33AB4F55F2389DD48
:1002500030A58BD3F6DC4D64D7F08FEC56375CA419
:100260000D07768A2C0BB5D8C11FE83BF44B1B4712
:100270006C49677B92CF757E20D97D3C977AD005FB
:100280006B0F1DFB8298578DF36ABCACC9A6FFB8F3
:10029000690C4C4D72075A49338DA2AB463D630D34
:1002A000A097FFF0F5FAC0E9DB62E4E17443DC8675
:1002B000182937F406E2ED6F90481E2D1DEA73945D
:1002C00054DF25F64727D91177C9841C5B5C51811F
:1002D000A6223E2496C88AEC827C09B8454A57BBC0
:1002E0002F50758E61708C6CAFD0FDB41BAEDEFEEE
:1002F0003BB536BD55010E9C41565FB3260383BA0C
:10030000134BCAC50AF860A5B9C7C39832FB12F9E6
:10031000A792AA68F3787E05202102E8BFF2B059BF
:100320008FD2CB876515F11AB230ADEE58A38B662C
:100330001F2CD75D1985A8E6D36BA10C91936A5E3B
:100340000B79E3DD004F3C896E7169A9AC40E599FA
:1003500028C6314E7ACD089E7DEF17FC88D8A46D53
:100360004495D1B7D49BBE2A34642BCF2EEB38CE24
:1003700023E03A3FF77B9F1053BC526716E7807625
:1003800004C4B6C1C27F9ADAD53942149DB10F3583
:10039000D6CCB9DA380CA29C091F06B1B6FD1A6991
:1003A0002330C4DE01D1F45829371C7DD5BFFFBDF1
:1003B000C8C9CF65BE7B7897986708B32657F7FA08
:1003C00040AD8E75A67CDB918B5199D4177A908DB8
:1003D000CE63CB4EA0AB183A5B507F2174C1BBB843
:1003E000B7BA0B359531599A4D04071E5A7613F357
:1003F0007183D08603A83942AA28E6E4D85DD3D019
:100400006E6F96FB5EBC56C25F859BE7AFD23B84A6
:100410006AA753C54449A5F936723D2CD91BA1F5ED
:100420004F939D68474116CA2A4CA387D6E5192EDB
:1004300077156D70C0DFB20046EDC66C4360922D3B
:10044000A922458F3455AEA40A6632E0DC02ACE83E
:10045000208C89624AFEEEC3E33CF17905E9F62778
:1004600033CCF29E11817E80108A829F480DD7B4D2
:10047000FC2FB5C7DD88146B2B54EA1D945CB0EFDC
:100480001224CDEBE1E264733F0E5261253EF80F7A
:100490004BECC00030F602493D106E20C9A62FFE7D
:1004A0002C2B752E4526AB48A980FC04CCD3B5BABD
:1004B000A338317D01D9A77B96B663694EF7DEE09C
:1004C00078CA50AA41916588E42185DA3A27BE1C92
:1004D0003E425E17527F1F89246F8F5C67740E1235
:1004E000878DE934ED73C4F8615B05DF594C97796A
:1004F0008318A45595EBBD53F5F15766469FB2811D
:100500000951862216DD23937629C2D71DD4BF3622
:100510003FEA4B1132B9625460D66D439A0D929CFA
:10052000B0EF586C9D772D70FAF3B30BE2407EF478
:100530008AE58C3C5671D164E1820ACB131590ECAC
:100540000399AF145D0F334A94A5A8351BE36AC61F
:1005500028FF4DE72584AC08AEC5A22AB8370C7A2F
:10056000A0C3CEAD061A9E8BFBD5D0C11ED0B49BC6
:10057000B144F247C768CF72BB4F5AF9DC6BDBD28C
:10058000E87CC8EE98A1E6D839075FFD8E19B73B25
:10059000BCCD7CE38173B211BF6F2098FE7596EFDE
:1005A0006CDA50E109725445BA34805BED3E532C4D
:1005B00087A457F3333F3CB767B4A325604F076B5D
:1005C0001B47150FE40AEAD1327836498D4BD2BC6D
:1005D000A5DC1D0D4DCD9A825FFC9465BEE2F4C989
:1005E0001E44CB9E0C64712663B314E840708A0EDF
:1005F00019426DAC88105CDF41A9ADE5FB74CCD528
:10060000068E5986CE1F3D76E08FB977277BA6D818
:1006100029D3ECB813F7FAC3516ADE4A5AEBC28BFE
:10062000234892CF62A899F8D02E856143C8BDF0C7
:100630000593CA4EF17D30FDC469662F08B152F9A9
:1006400021E67A2BDD3984FFC091D637D47F2D9BEC
:100650005DA13B6EB5C54604F590EE7E831C035646
:10066000B6AA0017013555790B12BB1A31E70228DB
:1006700016C1F6A2DB189C89683897ABC72AD73A0F
:10068000F2C6244CB058A0225E9DD9A7E9AEAF8C2B
:10069000959F28B720D7B030C30919C067D6003C52
:1006A0007EE7E9F4085AF8B82E05A6259E5CD81511
:1006B0000DE1F611546BCD2146665E84AD063829F6
:1006C00044C5A2CEF1AAC1407186B5EFFC36A8CBD5
:1006D0000A48274564A3AF8CB2C69F0789DC17D3AD
:1006E0004979FBFE1DD0B9884352BC01782B7D941B
:1006F000C70EDEA5D59BCCF7617AC274813903ABF6
:1007000096A037BD2D72753FC9D48E6FF98DED62FD
:10071000DB1CDF04AC1B6C144B63D0BFB482EC7BDE
:100720001A5992D21060B63D5FE6806E70C4F23501
:10073000D97CEEE541A45B50DDBB4CF31F9D5D57BA
:10074000555197E358424D9C73BAC877316926AE2C
:10075000EA8ADA22B38756FA930B341633E8E45365
:10076000BEA9B13A3EF5906ACF3B12FD8F9AA747DA
:100770009199EB0F24FF2318854E7F0CE0A1D2D175
:100780002C2A4A024F1E95688B98836D76CA653273
:10079000132FC3829AA4BA8160373435FC80A851E4
:1007A0006567ED305F10D34A272F13B92AD2CCE109
:1007B000EFAEEBBEF4BDCF43B3C58884B7DD39409F
:1007C000CE486D9B72617EE7A14E532E773BE2C906
:1007D00036221B6E73B103B24C87A9D44D0FD815C6
:1007E0006CAA18F649575DFB7A149463A011B09E69
:1007F000DE0546C8EE47DBDC24899C919729E97B1E
:10080000C1071EB8FDFEACC662984FF179E0E86BF7
:100810007856B68D045086CA6F20E6EAE576171C36
:10082000747FBC0D2C85F76696E48B753F4BD938E9
:10083000AF7CDA0B832D3132A2F51D594145BF3C07
:100840001FF8F98AD016256912999D2195AB01A64A
:10085000D7B5C07DFF580E3A92D155E3089FD63EDA
:10086000528EFAA3C702CDDF8F64198CF3A70C5EFA
:100870000A6A09F0935B42C20623EC71ADB4CBBBAC
:100880007028D51A5C33685A004490A5C4263D2BC5
:10089000F25496ADDA1FED33E18169080D0ADB35BC
:1008A000779A64D1FC78AA1BD067A0DDFA6C6371DB
:1008B0000584176A894F667FC65055926FBDE7D28F
:1008C00040728DBBEC06428AE4889D7E7A822713B3
:1008D000411AAFC8A476B4C2FE6D1CD96130B37C96
:1008E000EAF7290FF23B51C1DE5FE52A2F990B5D34
:1008F000A32B4AAB95A5D35856EE283100CC15460C
:10090000CAE686383C65F5E39FD65B094983702DBE
:1009100053A97DE2C4AC8E5EB825F4B957F3F168F3
:1009200047B2A25920CE34795C900E1EBED5222348
:10093000B1C91862162E913E078FD83F933DD49BC4
:10094000DF8521FB117497C7D7DC4C194598E94323
:10095000024BBCC3049C6BF07552A726F6C5BACFF8
:10096000B0B7AE5AA1BF038B80126E0CEBF9C04436
:1009700024EF10F8A88CE87BFF9E2CCD603687B55D
:1009800094A654733A144E011DB6FD37484D39CB29
:10099000E032000000000000000000000000000045
:1009A0000000000000000000000000000000000047
:1009B0000000000000000000000000000000000037
:1009C0000000000000000000000000000000000027
:1009D0000000000000000000000000000000000017
:1009E0000000000000000000000000000000000007
:1009F00000000000000000000000000000000000F7
:100A000000000000000000000000000000000000E6
:100A100000000000000000000000000000000000D6
:100A200000000000000000000000000000000000C6
:100A300000000000000000000000000000000000B6
:100A400000000000000000000000000000000000A6
:100A50000000000000000000000000000000000096
:100A60000000000000000000000000000000000086
:100A70000000000000000000000000000000000076
:100A80000000000000000000000000000000000066
:100A9000000011241FBECFEFD4E0DEBFCDBF11E0B8
:100AA000A0E0B1E0ECE3F9E202C005900D92A632BD
:100AB000B107D9F712E0A6E2B1E001C01D92A0355E
:100AC000B107E1F70E94D8050C949C140C94000027
:100AD0009C01F999FECF32BD21BDF89A80B50895E9
:100AE0009C01F999FECF1FBA32BD21BD60BD0FB682
:100AF000F894FA9AF99A0FBE08951F93CF93DF9353
:100B00009BB121E030E002C0220F331F8A95E2F74B
:100B1000122F822F809589238BB984E190E0000009
:100B200001972FEF8F3F9207D1F783B183B183B144
:100B300083B181FD03C0C2E0D0E002C0C0E0D0E0DC
:100B400082FD03C0A4E0B0E002C0A0E0B0E083FDFD
:100B500003C0E8E0F0E002C0E0E0F0E084FD03C0A4
:100B600060E170E002C060E070E085FD03C040E23B
:100B700050E002C040E050E026B130E036952795C5
:100B80003695279520953095217030702C2B3D2B74
:100B90002A2B3B2B2E2B3F2B262B372B8BB1182BA5
:100BA0001BB9242B352BC901DF91CF911F910895DB
:100BB0002F923F924F925F926F927F928F929F926D
:100BC000AF92BF92CF92DF92EF92FF920F931F935B
:100BD000DF93CF93CDB7DEB7C754D1400FB6F894AB
:100BE000DEBF0FBECDBF0E944D0E209A8AE08A83E1
:100BF000CE01019668E671E041E050E028E635E07C
:100C00000E942D148981BE016E5F7F4F823311F4E3
:100C10008AEF01C082E38A8388E691E041E050E0F8
:100C200020E735E00E9449140E94D8130E94F51372
:100C30008CE09E012E5E3F4FD901E82F1D92EA9570
:100C4000E9F7AE01425E5F4FDA01E82F1D92EA95A7
:100C5000E9F7FE01BA96DF01982F1D929A95E9F700
:100C6000BE016E5B7F4FDB011D928A95E9F71E8204
:100C70001D821B821C8218861F821D861C861B8675
:100C80001A8619861E861F86188A198A3D98459AE3
:100C900044245524C05CDE4FE883C054D140CF5B70
:100CA000DE4FF883C154D140DB01CE5BDE4F688359
:100CB000C254D140CD5BDE4FB883C354D140E6E38C
:100CC000F0E0EC0FFD1F3E96C25CDE4FF983E88337
:100CD000CE53D1406EE4662E712C6C0E7D1ECC5B23
:100CE000DE4F2883C454D140CB5BDE4F3883C554DC
:100CF000D140CA5BDE4F4883C654D140C95BDE4F4A
:100D00005883C754D14096EC892E912C8C0E9D1E91
:100D10008EE0282E312C87E090E00E947D059FAB6D
:100D20008EAB86E090E00E947D0599AF88AF85E0AC
:100D300090E00E947D059BAF8AAF82E090E00E9428
:100D40007D059DAF8CAF81E090E00E947D059FAF57
:100D50008EAF80E090E00E947D0522969FAF8EAF1F
:100D600022979E012A5C3F4FC05CDE4F8881C054B1
:100D7000D140CF5BDE4F9881C154D140BC01CE5BE6
:100D8000DE4F8881C254D140CD5BDE4F9881C35481
:100D9000D140FC01D9014D915C91DB018D919C9179
:100DA0004817590719F41182108205C0808191817A
:100DB000019691838083808191810F972CF0DB01D4
:100DC0004D935C93118210822E5F3F4F6E5F7F4F79
:100DD0003296C25CDE4F88819981CE53D14028176C
:100DE0003907C1F61D861C861B861A8619861E8643
:100DF0001F8686B190E041E050E09C012427352712
:100E00002170288B96958795842795278170898BEB
:100E10008AA59BA5809709F023C18CA59DA5892B48
:100E200009F01EC18EA59FA5809709F019C188A958
:100E300099A9892B09F014C18AA99BA9809709F067
:100E40000FC18CA99DA9892B09F00AC1D401119663
:100E50001C921E92ECE0F0E01396FC93EE93129736
:100E600015961C921E92149706E010E017961C939C
:100E70000E93169719961C921E92189782E090E096
:100E80001B969C938E931A971D969C938E931C97FA
:100E90001F961C921E921E9751965C934E935097EC
:100EA00053961C921E92529755965C934E9354976C
:100EB0005796FC93EE9356975996FC93EE9358975A
:100EC0005B961C921E925A975D961C930E935C97AC
:100ED0005F961C921E925E9791969C938E9390972C
:100EE00093961C921E92929795961C921E9294979E
:100EF00097965C934E9396979996FC93EE9398975A
:100F00009B961C921E929A979D96FC93EE939C97AB
:100F10009F961C921E929E97D1961C921E92D097DD
:100F2000D3961C930E93D297D5961C921E92D4976B
:100F3000D7965C934E93D697D9961C921E92D897CB
:100F4000DB965C934E93DA9780E090E0B4014CE33B
:100F500050E020E735E00E944914D40111963C92FC
:100F60002E9213963C922E92129715961C921E92D8
:100F7000149717961C921E92169719961C921E9201
:100F800018971B963C922E921A971D961C921E92B1
:100F90001C971F963C922E921E9751963C922E9231
:100FA000509753961C921E92529755963C922E92B1
:100FB000549757961C921E92569759961C921E92C1
:100FC00058975B961C930E935A975D961C930E93BD
:100FD0005C975F961C930E935E9791961C921E925F
:100FE000909793961C921E92929795961C921E92A1
:100FF000949797961C921E92969799961C930E938F
:1010000098979B961C930E939A979D961C930E937C
:101010009C979F961C921E929E97D1961C921E9210
:10102000D097D3961C921E92D297D5961C921E9260
:10103000D497D7963C922E92D697D9963C922E92E0
:10104000D897DB963C922E92DA9788E790E0B4012D
:1010500048E750E020E735E00E9449145524FBC0E2
:10106000B2E05B1621F0E4E05E1609F0F4C0442023
:1010700009F09FC08AA59BA5809709F097C08CA511
:101080009DA5809709F092C08EA59FA5809709F035
:101090008DC088A999A9892B09F088C08AA99BA924
:1010A000892B09F083C08CA99DA9892B09F07EC0EA
:1010B000F2E05F1609F078C0D30111961C921E92DF
:1010C00013961C921E92129715961C921E921497BC
:1010D00017961C921E92169719961C921E9218979C
:1010E0001B961C921E921A971D961C921E921C977C
:1010F0001F961C921E921E9751961C921E925097FC
:1011000053961C921E92529755961C921E9254977B
:1011100057961C921E92569759961C921E9258975B
:101120005B961C921E925A975D961C921E925C973B
:101130005F961C921E925E9791961C921E929097BB
:1011400093961C921E92929795961C921E9294973B
:1011500097961C921E92969799961C921E9298971B
:101160009B961C921E929A979D961C921E929C97FB
:101170009F961C921E929E97D1961C921E92D0977B
:10118000D3961C921E92D297D5961C921E92D497FB
:10119000D7961C921E92D697D9961C921E92D897DB
:1011A000DB961C921E92DA97442443941E821D8281
:1011B0001B82B1E04B1609F04EC08AA59BA5892B76
:1011C00009F0F4C08CA59DA5809709F0EFC08EA50D
:1011D0009FA5809709F0EAC088A999A9809709F08E
:1011E000E5C08AA99BA9892B09F0E0C08CA99DA91B
:1011F000892B09F0DBC0E2E05E1631F480E090E07C
:10120000B3014CE350E022C0F4E05F1639F519C099
:101210008D819E8105970CF4BDC08B81882309F0D8
:10122000B9C01E821D82B6C024E0521609F0B2C0B9
:101230008D819E810A970CF4ADC08B81882309F0C3
:10124000A9C088E790E0B30148E750E020E735E027
:101250000E94491403C0442009F09CC08AA59BA5A4
:101260008E319105E1F48CA59DA54E9709F064C0DF
:101270008EA59FA54E9709F05FC088A999A94E97A2
:1012800009F05AC08AA99BA94E9709F055C08CA9AC
:101290009DA94E9709F050C031E0398B4DC0892B84
:1012A00009F04AC08CA59DA5892B09F045C08EA5E3
:1012B0009FA58032910581F488A999A98097E1F5CD
:1012C0008AA99BA98097C1F58CA99DA9892BA1F515
:1012D00050FC32C0539430C0892B71F588A999A96C
:1012E000892B51F58AA99BA9892B31F58CA99DA938
:1012F000892B11F585E0581611F455241DC091E095
:10130000591661F4C30160E070E04CE350E028E658
:1013100035E00E942D1412E0512E0EC0A3E05A16A3
:1013200059F4C30168E770E048E750E028E635E08B
:101330000E942D14B4E05B2E652D50FC25C0CE011B
:101340000996C05CDE4F6881C054D140CF5BDE4F50
:101350007881C154D140A301252DCC5BDE4F08819B
:10136000C454D140CB5BDE4F1881C554D140CA5B19
:10137000DE4FE880C654D140C95BDE4FF880C754C9
:10138000D1400E94351205C0CE01099670E00E943E
:101390004C12442409851A852B853C854D855E8534
:1013A0006F85788989890E94FD0DB5CCCE0109969B
:1013B000BE016B5F7F4FA301C05CDE4F2881C0542C
:1013C000D140CF5BDE4F3881C154D140052DA3E021
:1013D000EA2EF12CEC0EFD1EF4E0CF2ED12CCC0E1B
:1013E000DD1EE7E0AE2EB12CAC0EBD1E0E946212D7
:1013F000188AB2E05B1609F017CF0ACF10924702A5
:1014000010924602880F8093BA0085E48093BC0056
:1014100078940895882311F085EC01C085E88093C5
:10142000BC000895282F30E070E088E090E0861B33
:10143000970BA90102C0440F551F8A95E2F7CA0114
:1014400002C0359527956A95E2F7822B0895A6E4A8
:10145000B1E0FC0186E001900D928150E1F7089522
:101460000F931F93182F092FA6E4B1E0FB0186E02C
:1014700001900D928150E1F710923602812F902F4A
:101480009C01D9012AEF30E08D91F901EA5BFE4F12
:1014900080832F5F3F4F81E020303807A9F7DA01C2
:1014A00020E230E08D91F901EA5BFE4F80832F5FEF
:1014B0003F4F26323105B1F74598449810924702C4
:1014C0001092460284EA8093BA0085E48093BC00BF
:1014D00078941F910F9108952F923F924F925F92AF
:1014E0006F927F928F929F92AF92BF92CF92DF9234
:1014F000EF92FF920F931F93DF93CF93CDB7DEB799
:1015000068970FB6F894DEBF0FBECDBF48E6642ED5
:1015100040E0742E882437E0232E312C2C0E3D1E03
:1015200028E0422E512CCBC084918D933196A21588
:10153000B305D1F780E090E0FC01EA5DFE4FE08169
:10154000F0E0EE56FF4FE491ADE0B0E0AC0FBD1F10
:10155000A80FB91FEC9301968A30910569F7AA8804
:10156000CF8429812A2530E04C2D477050E09E8899
:10157000B988C201841B950BB90102C0660F771FA1
:101580008A95E2F7CB0102C0359527954A95E2F797
:10159000822B89198B258F83EE84DD842A812E2569
:1015A00030E04D2D477050E0AC89C201841B950B93
:1015B000F90102C0EE0FFF1F8A95E2F7CF0102C0CA
:1015C000359527954A95E2F7822B8A198A278887CD
:1015D000EB892B812E2730E00D89077010E0B201D6
:1015E000601B710BC901062E02C0880F991F0A9457
:1015F000E2F7002E02C0359527950A94E2F7822B78
:101600008C198D2589872C812B2530E04A2F477036
:10161000842F90E0988F8F8BD888C2014F89588D86
:10162000841B950BA90102C0440F551F8A95E2F750
:10163000CA010F8802C0359527950A94E2F7822BDC
:101640008D198C258A878D81E826FF24E770F0E0CC
:10165000C2018E1B9F0B970102C0220F331F8A9578
:10166000E2F7C90102C0F594E794EA95E2F78E2902
:101670008D198B258B878E81A827B0E0AD0102C024
:10168000440F551F6A95E2F7BA0102C0B595A795B8
:101690000A95E2F76A2B6A1969256C87C10160E334
:1016A00071E046E050E00E942014009761F08394BE
:1016B00066E070E0660E771E77E0871621F0DE01A7
:1016C0001196F30131CF282D30E02F5F3F4F522F7D
:1016D000442780913401FA01E80FF11DEE56FF4FC7
:1016E00094912F5F3F4F322F222780912901F901DA
:1016F000E80FF11DEE56FF4FE491E927E093360124
:1017000080913201FA01E80FF11DEE56FF4F9491DE
:1017100080912B01F901E80FF11DEE56FF4FE49186
:10172000E927E093370180913501FA01E80FF11DB7
:10173000EE56FF4F949180912D01F901E80FF11DB4
:10174000EE56FF4FE491E927E09338018091300194
:10175000FA01E80FF11DEE56FF4F94918091280198
:10176000F901E80FF11DEE56FF4FE491E927E093F0
:10177000390180913101FA01E80FF11DEE56FF4F5A
:10178000949180912A01F901E80FF11DEE56FF4F67
:10179000E491E927E0933A0180913301FA01E80FDF
:1017A000F11DEE56FF4F949180912F01F901E80F42
:1017B000F11DEE56FF4FE491E927E0933B01809144
:1017C0002601FA01E80FF11DEE56FF4F949180912A
:1017D0002C01F901E80FF11DEE56FF4FE491E927C6
:1017E000E0933C0180912701FA01E80FF11DEE56CC
:1017F000FF4F949180912E01F901E80FF11DEE56F3
:10180000FF4FE491E927E0933D0180913001FA0117
:10181000E80FF11DEE56FF4F949180912701F901D9
:10182000E80FF11DEE56FF4FE491E927E0933E01EA
:1018300080913501FA01E80FF11DEE56FF4F9491AA
:1018400080912A01F901E80FF11DEE56FF4FE49156
:10185000E927E0933F0180913301FA01E80FF11D80
:10186000EE56FF4F949180912601F901E80FF11D8A
:10187000EE56FF4FE491E927E09340018091320159
:10188000FA01E80FF11DEE56FF4F949180912F0160
:10189000F901E80FF11DEE56FF4FE491E927E093BF
:1018A000410180913401FA01E80FF11DEE56FF4F1E
:1018B000949180912D01F901E80FF11DEE56FF4F33
:1018C000E491E927E093420180913101FA01E80FA8
:1018D000F11DEE56FF4F949180912E01F901E80F12
:1018E000F11DEE56FF4FE491E927E093430180910B
:1018F0002901FA01E80FF11DEE56FF4F94918091F6
:101900002B01F901E80FF11DEE56FF4FE491E92795
:10191000E093440180912801480F511D4E565F4FBE
:10192000FA01949180912C01280F311D2E563F4FC2
:10193000F901849189278093450168960FB6F89440
:10194000DEBF0FBECDBFCF91DF911F910F91FF90F2
:10195000EF90DF90CF90BF90AF909F908F907F904F
:101960006F905F904F903F902F900895982F8054E4
:101970008630A0F420E430E049E450E0FA01E21BB4
:10198000F30BD901AA5BBE4F8C91EA5DFE4F8083B9
:101990002F5F3F4F2634310589F70895892F8654EC
:1019A0008630C8F480918C018093290180918D014B
:1019B0008093280180918E018093270180918F016F
:1019C000809326018091900180933501809191014F
:1019D000809334010895892F8C548430C8F4809109
:1019E0009201809333018091930180933201809121
:1019F0009401809331018091950180933001892F6A
:101A000090E0860F911D8035910511F40E946C0ABB
:101A100008951F920F920FB60F9211242F933F93A8
:101A20004F935F936F937F938F939F93AF93BF93E6
:101A3000EF93FF938091B90090E0887F9070803998
:101A40009105E9F181399105D4F480379105A1F12F
:101A50008137910544F48036910571F188369105FE
:101A600009F0B6C029C08038910549F18838910540
:101A700009F4AEC08837910509F0AAC01DC0803BAB
:101A8000910509F46AC0813B91054CF4803A9105B7
:101A900009F457C0883A910509F09AC05EC0803CAD
:101AA000910509F493C0883C910509F48FC0883BE7
:101AB000910509F08DC053C01092480287C08091F3
:101AC0004802882389F12091BB00809136028A3A2E
:101AD00019F58091460290914702803F9105E1F00F
:101AE000A0914602B0914702E0914602F091470270
:101AF000E770F070E25CFE4F8081E0914602F09169
:101B00004702E770F070EA5CFE4F90818227890FF0
:101B1000AA5BBE4F8C934CC0E0914602F091470205
:101B2000EA5BFE4F208344C08091BB0090E090931D
:101B300047028093460281E0809348021092490256
:101B400045C08091460290914702209149026091E0
:101B50004902821B0E94B60C39C010924902809142
:101B600036028A3AE1F4E0914602F0914702EA5BDC
:101B7000FE4F8081E0914602F0914702E770F070DD
:101B8000EA5CFE4F2081E0914602F0914702E77047
:101B9000F070E25CFE4F9081821B892707C0E091C4
:101BA0004602F0914702EA5BFE4F80818093BB00C2
:101BB000809146029091470201969093470280934C
:101BC0004602809149028F5F8093490285EC01C0F3
:101BD00085E88093BC00FF91EF91BF91AF919F91F9
:101BE0008F917F916F915F914F913F912F910F90C6
:101BF0000FBE0F901F90189508950F931F93DF93BA
:101C0000CF93CDB7DEB729970FB6F894DEBF0FBEDE
:101C1000CDBF902F0983F12F1A83E22F2B83232F1F
:101C20003C83342F4D83452F5E83A62F6F83572F20
:101C3000788789873795332737952295220F207E1D
:101C4000232B422BEE0FEE0FEE0FE42BF295FF0F3E
:101C5000FF0FF07CFE2B9295907F9F2B9095909399
:101C60004F02A295AA0FAA0FA07C550F550F5A2B11
:101C70008295807F852B809580934E028AE492E046
:101C80000E94270A29960FB6F894DEBF0FBECDBF7B
:101C9000CF91DF911F910F91089580E091E06AE468
:101CA00072E046E051E02CEF3DE00E94300A8FE107
:101CB00080934A0280934B028FE080934C02809382
:101CC0004D028FEF80934E0280934F0208950F9341
:101CD0001F93CF93DF938C01FB01EA0120E030E0FA
:101CE00041E0DB018D919C91119780FF13C08E7FA5
:101CF0008D939C93233031053CF4D80116964C9378
:101D0000169715961C9206C0D80115964C931597F8
:101D100016961C922F5F3F4F6E5F7F4F2630310526
:101D200001F74081518141155105A9F482819381C8
:101D3000892B89F484819581892B69F48681978127
:101D4000892B49F480859185892B29F48285938597
:101D5000892B09F431C2888199814817590739F5CF
:101D6000228133818A819B812817390701F52481DB
:101D700035818C819D8128173907C9F426813781E7
:101D80008E819F812817390791F4208531858885B8
:101D900099852817390759F4228533858A859B85CB
:101DA0002817390721F481E0F801808305C2DE019C
:101DB0001C968C859D854817590781F522813381B2
:101DC00012968D919C9113972817390739F5248124
:101DD000358114968D919C91159728173907F1F448
:101DE0002681378116968D919C9117972817390770
:101DF000A9F42085318518968D919C911997281703
:101E0000390761F4228533851A968D919C911B9731
:101E10002817390719F481E0D801DDC0DE01589692
:101E2000888D998D4817590781F522813381129643
:101E30008D919C9113972817390739F524813581A5
:101E400014968D919C91159728173907F1F42681E6
:101E5000378116968D919C91179728173907A9F409
:101E60002085318518968D919C91199728173907EF
:101E700061F4228533851A968D919C911B972817C2
:101E8000390719F481E0F80158C1DE0194968CA15C
:101E90009DA14817590781F52281338112968D91B2
:101EA0009C9113972817390739F5248135811496A9
:101EB0008D919C91159728173907F1F42681378168
:101EC00016968D919C91179728173907A9F42085AC
:101ED000318518968D919C9119972817390761F4CF
:101EE000228533851A968D919C911B972817390767
:101EF00019F481E0D8015EC1DE01D09688A999A9C4
:101F00004817590789F52281338112968D919C914A
:101F100013972817390741F52481358114968D913F
:101F20009C91159728173907F9F426813781169661
:101F30008D919C91179728173907B1F42085318529
:101F400018968D919C9119972817390769F4228565
:101F500033851A968D919C911B972817390721F488
:101F600081E0F801848328C1DE01DC968CAD9DAD53
:101F70004817590799F52281338112968D919C91CA
:101F800013972817390751F52481358114968D91BF
:101F90009C9115972817390709F5268137811696E0
:101FA0008D919C91179728173907C1F420853185A9
:101FB00018968D919C9119972817390779F42285E5
:101FC00033851A968D919C911B972817390731F408
:101FD00081E0D8018C9311968C93EEC0DE01A85B52
:101FE000BF4F8D919C9111974817590789F5228110
:101FF000338112968D919C9113972817390741F5DB
:102000002481358114968D919C9115972817390755
:10201000F9F42681378116968D919C911797281790
:102020003907B1F42085318518968D919C911997C7
:102030002817390769F4228533851A968D919C916A
:102040001B972817390721F481E0F801818375C0B7
:10205000DE01AC5ABF4F8D919C91119748175907DB
:1020600099F52281338112968D919C9113972817AF
:10207000390751F52481358114968D919C911597DE
:102080002817390709F52681378116968D919C917D
:10209000179728173907C1F42085318518968D9137
:1020A0009C9119972817390779F4228533851A9658
:1020B0008D919C911B972817390731F481E0D80145
:1020C00012968C93129776C0DE01A05ABF4F8D9165
:1020D0009C9111974817590791F5228133811296E7
:1020E0008D919C9113972817390749F524813581E3
:1020F00014968D919C9115972817390701F5268123
:10210000378116968D919C91179728173907B9F446
:102110002085318518968D919C911997281739073C
:1021200071F4228533851A968D919C911B972817FF
:10213000390729F481E0F801808382833DC0DE0104
:10214000A459BF4F8D919C91119748175907A1F53C
:102150002281338112968D919C911397281739070C
:1021600059F52481358114968D919C9115972817E6
:10217000390711F52681378116968D919C91179715
:1021800028173907C9F42085318518968D919C91BF
:1021900019972817390781F4228533851A968D916E
:1021A0009C911B972817390739F481E0D8011196C3
:1021B0008C93119713968C93DF91CF911F910F9170
:1021C0000895EF92FF920F931F93CF93DF93DC015B
:1021D000FB0115961C92159716961C9216978081F6
:1021E00080FF04C081E016968C9316977A01BA019D
:1021F0006C5D7F4F4FEF00E050E011E080819181F6
:10220000009709F482C081309105C1F5E70188810A
:102210009981019711F41C93452F20813181E701A9
:102220008C859D852817390721F411961C931197E9
:10223000452F20813181E701888D998D2817390735
:1022400021F412961C931297452F20813181EB01C6
:10225000888199812817390721F413961C931397C5
:10226000452F20813181EB018C859D852817390709
:1022700039F414961C931497452F02C0082F01704F
:10228000208131812E7F31832083E70188819981EC
:102290002817390719F4232B09F01C932081318169
:1022A000E7018C859D852817390729F4232B19F020
:1022B00011961C93119720813181E701888D998DAA
:1022C0002817390729F4232B19F012961C9312971B
:1022D00020813181EB01888199812817390729F400
:1022E000232B19F013961C93139720813181EB0156
:1022F0008C859D852817390729F4232B19F014960E
:102300001C931497013009F4452F32965F5F82E0E9
:1023100090E0E80EF91E6E5F7F4F563009F06ECFE9
:10232000433020F481E016968C930BC04350433029
:1023300040F416968C911697813019F081E015962D
:102340008C93DF91CF911F910F91FF90EF900895A3
:10235000AF92BF92CF92DF92FF920F931F93CF93D2
:10236000DF93FC015B01D801890160E070E0FF248C
:10237000F39481E0C82ED12CE5018881982F9071CB
:10238000282F2870382F3470482F427085FF07C0DF
:10239000992371F08481882321F4F48240C0992329
:1023A00039F0222371F08381882321F4F38237C02E
:1023B000222339F0332371F08281882321F4F282C1
:1023C0002EC0332339F0442351F18181882321F435
:1023D000F18225C0442319F18D919C911197892B8D
:1023E00059F48091840090918500E8019983888355
:1023F0001196DC92CE9216C0209184003091850017
:10240000E801488159818081882361F4215030405E
:10241000241B350B2436310528F0F08203C01196B9
:102420001C921E92E501888180FF08C0633071050F
:102430001CF4F682158202C0F58216826F5F7F4F10
:1024400082E090E0A80EB91E12960E5F1F4F663014
:10245000710509F091CFDF91CF911F910F91FF90FE
:10246000DF90CF90BF90AF900895EF92FF920F93BF
:102470001F93243019F40E94670E09C0223019F40A
:102480000E94E11004C0980187010E94A8111F91C9
:102490000F91FF90EF900895FC016130710521F4D8
:1024A00081E08383828308956330710521F481E0A4
:1024B0008383848308956530710519F481E08283F4
:1024C00084830895AF92BF92CF92DF92EF92FF92F2
:1024D0000F93CF93DF93FC01DB01B90195018D913F
:1024E0009C911197009719F481E0808334C081306A
:1024F000910511F481E015C08230910511F481E05D
:1025000023C08330910511F481E024C0843091050B
:1025100019F481E084831FC08530910521F481E0A6
:102520008083818318C08630910519F481E081830E
:102530000BC08730910519F481E082830BC088308D
:10254000910521F481E08083828305C0099719F405
:1025500081E0818383838781882309F1E601888173
:10256000882359F48091840090918500E901998332
:10257000888381E0E601888310C080918400909177
:102580008500E90128813981821B930B885E934085
:1025900040F48091840090918500178202C0E6018A
:1025A00018828781882309F4F7C0F7018081882386
:1025B00009F0F4C0043009F060C08D919C9111972E
:1025C000FC01EE0FFF1FE80FF91FEE0FFF1FEE0FCC
:1025D000FF1FE40FF51F118210828D919C911197BE
:1025E000FC01EE0FFF1FE80FF91FEE0FFF1FEE0FAC
:1025F000FF1FE40FF51F138212828D919C9111979A
:10260000FC01EE0FFF1FE80FF91FEE0FFF1FEE0F8B
:10261000FF1FE40FF51F158214828D919C91119775
:10262000FC01EE0FFF1FE80FF91FEE0FFF1FEE0F6B
:10263000FF1FE40FF51F178216828D919C91119751
:10264000FC01EE0FFF1FE80FF91FEE0FFF1FEE0F4B
:10265000FF1FE40FF51F118610868D919C91119735
:10266000FC01EE0FFF1FE80FF91FEE0FFF1FEE0F2B
:10267000FF1FE40FF51F138612868D919C91119711
:10268000FC01EE0FFF1FE80FF91FEE0FFF1FEE0F0B
:10269000FF1FE40FF51F80819181EB0128813981B3
:1026A000822B932B918380838D919C911197FC01B8
:1026B000EE0FFF1FE80FF91FEE0FFF1FEE0FFF1FBA
:1026C000E40FF51F828193812A813B81822B932B1A
:1026D000938382838D919C911197FC01EE0FFF1FD4
:1026E000E80FF91FEE0FFF1FEE0FFF1FE40FF51F9E
:1026F000848195812C813D81822B932B95838483CA
:102700008D919C911197FC01EE0FFF1FE80FF91FAF
:10271000EE0FFF1FEE0FFF1FE40FF51F868197815D
:102720002E813F81822B932B978386838D919C9161
:102730001197FC01EE0FFF1FE80FF91FEE0FFF1FAF
:10274000EE0FFF1FE40FF51F8085918528853985E1
:10275000822B932B918780878D919C911197FC01FF
:10276000EE0FFF1FE80FF91FEE0FFF1FEE0FFF1F09
:10277000E40FF51F828593852A853B85822B932B59
:102780009387828781E0F70180838D919C911197D7
:1027900001968D939C9302C0E7011882DF91CF913F
:1027A0000F91FF90EF90DF90CF90BF90AF90089582
:1027B0002198299A22982A9A23982B9A24982C9A1D
:1027C00025982D9A3898409A3998419A3A98429A81
:1027D000579A5F9A569A5E9A559A5D9A529A5A9A61
:1027E000519A599A509A589A0895E4E6F0E08081F7
:1027F000877F8083E0E8F0E080818F77808380812D
:102800008F7B808380818F7D808380818F7E80839A
:1028100080818D7F808380818E7F8083E1E8F0E0FE
:102820008081877F808380818F7E808380818460A8
:10283000808380818D7F8083808181608083089503
:10284000FB01DC0104C08D910190801921F44150FD
:102850005040C8F7881B990B0895A0E0B0E0E3E36F
:10286000F4E10C946F147C01EB018A01690109C049
:10287000CE012196F6010995F70181937F01015060
:10288000104001151105A1F7CDB7DEB7E8E00C94B3
:102890008B14A0E0B0E0EFE4F4E10C946F14EC01D1
:1028A0007B018A01690109C0CE012196F70161917E
:1028B0007F01F60109950150104001151105A1F79E
:1028C000CDB7DEB7E8E00C948B142F923F924F9275
:1028D0005F926F927F928F929F92AF92BF92CF92B0
:1028E000DF92EF92FF920F931F93CF93DF93CDB7B9
:1028F000DEB7CA1BDB0B0FB6F894DEBF0FBECDBF31
:1029000009942A88398848885F846E847D848C8401
:102910009B84AA84B984C884DF80EE80FD800C810A
:102920001B81AA81B981CE0FD11D0FB6F894DEBFED
:0C2930000FBECDBFED010895F894FFCF5D
:10293C000000A420010300000000000000000000C3
:10294C00000000000000000000000000000000007B
:06295C0000000000000075
:00000001FF
