:100000000C9491000C94AE000C94210D0C94AE0055
:100010000C94AE000C94AE000C94AE000C94AE00A8
:100020000C94AE000C94AE000C94AE000C94AE0098
:100030000C94AE000C94AE000C94AE000C94AE0088
:100040000C94AE000C94AE000C94AE000C94AE0078
:100050000C94AE000C94AE000C94AE000C94AE0068
:100060000C94AE000C94AE0005010905A101150029
:100070002501350045017501950D05091901290D69
:1000800081029503810105012507463B0175049511
:100090000165140939814265009501810126FF003F
:1000A00046FF000930093109320935750895048188
:1000B00002C0040309041C034F00700065006E00B9
:1000C000430068006F00720064002E006F00720031
:1000D00067001403560031002000470075006900D6
:1000E0007400610072001201100100000008BA12D1
:1000F0000002000101020001090229000101008043
:10010000320904000002030000000921010100017E
:10011000224A000705810308000A07058303080037
:100120000A0011241FBECFEFD4E0DEBFCDBF11E027
:10013000A0E0B1E0EEEAFDE102C005900D92A23030
:10014000B107D9F711E0A2E0B1E001C01D92AD34D2
:10015000B107E1F70E9420010C94D50E0C94000029
:100160009C01F999FECF32BD21BDF89A80B5089562
:100170009C01F999FECF1FBA32BD21BD60BD0FB6FB
:10018000F894FA9AF99A0FBE08951F93CF93DF93CC
:100190009BB121E030E002C0220F331F8A95E2F7C5
:1001A000122F822F809589238BB984E190E0000083
:1001B00001972FEF8F3F9207D1F783B183B183B1BE
:1001C00083B181FD03C0C2E0D0E002C0C0E0D0E056
:1001D00082FD03C0A4E0B0E002C0A0E0B0E083FD77
:1001E00003C0E8E0F0E002C0E0E0F0E084FD03C01E
:1001F00060E170E002C060E070E085FD03C040E2B5
:1002000050E002C040E050E026B130E0369527953E
:100210003695279520953095217030702C2B3D2BED
:100220002A2B3B2B2E2B3F2B262B372B8BB1182B1E
:100230001BB9242B352BC901DF91CF911F91089554
:100240002F923F924F925F926F927F928F929F92E6
:10025000AF92BF92CF92DF92EF92FF920F931F93D4
:10026000DF93CF93CDB7DEB7C754D1400FB6F89424
:10027000DEBF0FBECDBF0E948A0B209A8AE08A8320
:10028000CE01019668E671E041E050E020EB30E0FD
:100290000E94660E8981BE016E5F7F4F823311F42A
:1002A0008AEF01C082E38A8388E691E041E050E072
:1002B00028EB30E00E94820E0E9446050E946305F2
:1002C0008CE09E012E5E3F4FD901E82F1D92EA95EA
:1002D000E9F7AE01425E5F4FDA01E82F1D92EA9521
:1002E000E9F7FE01BA96DF01982F1D929A95E9F77A
:1002F000BE016E5B7F4FDB011D928A95E9F71E827E
:100300001D821B821C8218861F821D861C861B86EE
:100310001A8619861E861F86188A198A3D98459A5C
:1003200044245524C05CDE4FE883C054D140CF5BE9
:10033000DE4FF883C154D140DB01CE5BDE4F6883D2
:10034000C254D140CD5BDE4FB883C354D140E6E305
:10035000F0E0EC0FFD1F3E96C25CDE4FF983E883B0
:10036000CE53D1406EE4662E712C6C0E7D1ECC5B9C
:10037000DE4F2883C454D140CB5BDE4F3883C55455
:10038000D140CA5BDE4F4883C654D140C95BDE4FC3
:100390005883C754D14096EC892E912C8C0E9D1E0B
:1003A0008EE0282E312C87E090E00E94C5009FABA4
:1003B0008EAB86E090E00E94C50099AF88AF85E0E3
:1003C00090E00E94C5009BAF8AAF82E090E00E945F
:1003D000C5009DAF8CAF81E090E00E94C5009FAF4B
:1003E0008EAF80E090E00E94C50022969FAF8EAF56
:1003F00022979E012A5C3F4FC05CDE4F8881C0542B
:10040000D140CF5BDE4F9881C154D140BC01CE5B5F
:10041000DE4F8881C254D140CD5BDE4F9881C354FA
:10042000D140FC01D9014D915C91DB018D919C91F2
:100430004817590719F41182108205C080819181F3
:10044000019691838083808191810F972CF0DB014D
:100450004D935C93118210822E5F3F4F6E5F7F4FF2
:100460003296C25CDE4F88819981CE53D1402817E5
:100470003907C1F61D861C861B861A8619861E86BC
:100480001F8686B190E041E050E09C01242735278B
:100490002170288B96958795842795278170898B65
:1004A0008AA59BA5809709F023C18CA59DA5892BC2
:1004B00009F01EC18EA59FA5809709F019C188A9D2
:1004C00099A9892B09F014C18AA99BA9809709F0E1
:1004D0000FC18CA99DA9892B09F00AC1D4011196DD
:1004E0001C921E92ECE0F0E01396FC93EE931297B0
:1004F00015961C921E92149706E010E017961C9316
:100500000E93169719961C921E92189782E090E00F
:100510001B969C938E931A971D969C938E931C9773
:100520001F961C921E921E9751965C934E93509765
:1005300053961C921E92529755965C934E935497E5
:100540005796FC93EE9356975996FC93EE935897D3
:100550005B961C921E925A975D961C930E935C9725
:100560005F961C921E925E9791969C938E939097A5
:1005700093961C921E92929795961C921E92949717
:1005800097965C934E9396979996FC93EE939897D3
:100590009B961C921E929A979D96FC93EE939C9725
:1005A0009F961C921E929E97D1961C921E92D09757
:1005B000D3961C930E93D297D5961C921E92D497E5
:1005C000D7965C934E93D697D9961C921E92D89745
:1005D000DB965C934E93DA9780E090E0B4014CE3B5
:1005E00050E028EB30E00E94820ED40111963C923C
:1005F0002E9213963C922E92129715961C921E9252
:10060000149717961C921E92169719961C921E927A
:1006100018971B963C922E921A971D961C921E922A
:100620001C971F963C922E921E9751963C922E92AA
:10063000509753961C921E92529755963C922E922A
:10064000549757961C921E92569759961C921E923A
:1006500058975B961C930E935A975D961C930E9336
:100660005C975F961C930E935E9791961C921E92D8
:10067000909793961C921E92929795961C921E921A
:10068000949797961C921E92969799961C930E9308
:1006900098979B961C930E939A979D961C930E93F6
:1006A0009C979F961C921E929E97D1961C921E928A
:1006B000D097D3961C921E92D297D5961C921E92DA
:1006C000D497D7963C922E92D697D9963C922E925A
:1006D000D897DB963C922E92DA9788E790E0B401A7
:1006E00048E750E028EB30E00E94820E5524FBC022
:1006F000B2E05B1621F0E4E05E1609F0F4C044209D
:1007000009F09FC08AA59BA5809709F097C08CA58A
:100710009DA5809709F092C08EA59FA5809709F0AE
:100720008DC088A999A9892B09F088C08AA99BA99D
:10073000892B09F083C08CA99DA9892B09F07EC063
:10074000F2E05F1609F078C0D30111961C921E9258
:1007500013961C921E92129715961C921E92149735
:1007600017961C921E92169719961C921E92189715
:100770001B961C921E921A971D961C921E921C97F5
:100780001F961C921E921E9751961C921E92509775
:1007900053961C921E92529755961C921E925497F5
:1007A00057961C921E92569759961C921E925897D5
:1007B0005B961C921E925A975D961C921E925C97B5
:1007C0005F961C921E925E9791961C921E92909735
:1007D00093961C921E92929795961C921E929497B5
:1007E00097961C921E92969799961C921E92989795
:1007F0009B961C921E929A979D961C921E929C9775
:100800009F961C921E929E97D1961C921E92D097F4
:10081000D3961C921E92D297D5961C921E92D49774
:10082000D7961C921E92D697D9961C921E92D89754
:10083000DB961C921E92DA97442443941E821D82FA
:100840001B82B1E04B1609F04EC08AA59BA5892BEF
:1008500009F0F4C08CA59DA5809709F0EFC08EA586
:100860009FA5809709F0EAC088A999A9809709F007
:10087000E5C08AA99BA9892B09F0E0C08CA99DA994
:10088000892B09F0DBC0E2E05E1631F480E090E0F5
:10089000B3014CE350E022C0F4E05F1639F519C013
:1008A0008D819E8105970CF4BDC08B81882309F052
:1008B000B9C01E821D82B6C024E0521609F0B2C033
:1008C0008D819E810A970CF4ADC08B81882309F03D
:1008D000A9C088E790E0B30148E750E028EB30E09A
:1008E0000E94820E03C0442009F09CC08AA59BA5EB
:1008F0008E319105E1F48CA59DA54E9709F064C059
:100900008EA59FA54E9709F05FC088A999A94E971B
:1009100009F05AC08AA99BA94E9709F055C08CA925
:100920009DA94E9709F050C031E0398B4DC0892BFD
:1009300009F04AC08CA59DA5892B09F045C08EA55C
:100940009FA58032910581F488A999A98097E1F546
:100950008AA99BA98097C1F58CA99DA9892BA1F58E
:1009600050FC32C0539430C0892B71F588A999A9E5
:10097000892B51F58AA99BA9892B31F58CA99DA9B1
:10098000892B11F585E0581611F455241DC091E00E
:10099000591661F4C30160E070E04CE350E020EBD5
:1009A00030E00E94660E12E0512E0EC0A3E05A16EF
:1009B00059F4C30168E770E048E750E020EB30E00D
:1009C0000E94660EB4E05B2E652D50FC25C0CE0162
:1009D0000996C05CDE4F6881C054D140CF5BDE4FCA
:1009E0007881C154D140A301252DCC5BDE4F088115
:1009F000C454D140CB5BDE4F1881C554D140CA5B93
:100A0000DE4FE880C654D140C95BDE4FF880C75442
:100A1000D1400E945C0905C0CE01099670E00E9499
:100A20007309442409851A852B853C854D855E858F
:100A30006F85788989890E94220BB5CCCE010996F1
:100A4000BE016B5F7F4FA301C05CDE4F2881C054A5
:100A5000D140CF5BDE4F3881C154D140052DA3E09A
:100A6000EA2EF12CEC0EFD1EF4E0CF2ED12CCC0E94
:100A7000DD1EE7E0AE2EB12CAC0EBD1E0E94890932
:100A8000188AB2E05B1609F017CF0ACF2198299A8D
:100A900022982A9A23982B9A24982C9A25982D9A52
:100AA0003898409A3998419A3A98429A579A5F9A58
:100AB000569A5E9A559A5D9A529A5A9A519A599AAA
:100AC000509A589A0895E4E6F0E08081877F808309
:100AD000E0E8F0E080818F77808380818F7B808366
:100AE00080818F7D808380818F7E808380818D7FD8
:100AF000808380818E7F8083E1E8F0E08081877F42
:100B0000808380818F7E80838081846080838081E8
:100B10008D7F808380818160808308950F931F93F0
:100B2000CF93DF938C01FB01EA0120E030E041E04C
:100B3000DB018D919C91119780FF13C08E7F8D9367
:100B40009C93233031053CF4D80116964C931697AC
:100B500015961C9206C0D80115964C9315971696BB
:100B60001C922F5F3F4F6E5F7F4F2630310501F79C
:100B70004081518141155105A9F482819381892BCE
:100B800089F484819581892B69F486819781892BE9
:100B900049F480859185892B29F482859385892B59
:100BA00009F431C2888199814817590739F52281A2
:100BB00033818A819B812817390701F5248135818A
:100BC0008C819D8128173907C9F4268137818E8150
:100BD0009F812817390791F420853185888599856B
:100BE0002817390759F4228533858A859B8528176C
:100BF000390721F481E0F801808305C2DE011C96EB
:100C00008C859D854817590781F52281338112967D
:100C10008D919C9113972817390739F524813581D7
:100C200014968D919C91159728173907F1F4268118
:100C3000378116968D919C91179728173907A9F43B
:100C40002085318518968D919C9119972817390721
:100C500061F4228533851A968D919C911B972817F4
:100C6000390719F481E0D801DDC0DE015896888D7E
:100C7000998D4817590781F52281338112968D91FC
:100C80009C9113972817390739F5248135811496DB
:100C90008D919C91159728173907F1F4268137819A
:100CA00016968D919C91179728173907A9F42085DE
:100CB000318518968D919C9119972817390761F401
:100CC000228533851A968D919C911B972817390799
:100CD00019F481E0F80158C1DE0194968CA19DA120
:100CE0004817590781F52281338112968D919C9185
:100CF00013972817390739F52481358114968D917A
:100D00009C91159728173907F1F42681378116969B
:100D10008D919C91179728173907A9F42085318563
:100D200018968D919C9119972817390761F422859F
:100D300033851A968D919C911B972817390719F4C2
:100D400081E0D8015EC1DE01D09688A999A9481733
:100D5000590789F52281338112968D919C911397C1
:100D60002817390741F52481358114968D919C917E
:100D7000159728173907F9F42681378116968D9132
:100D80009C91179728173907B1F42085318518965B
:100D90008D919C9119972817390769F4228533851D
:100DA0001A968D919C911B972817390721F481E0A1
:100DB000F801848328C1DE01DC968CAD9DAD481717
:100DC000590799F52281338112968D919C91139741
:100DD0002817390751F52481358114968D919C91FE
:100DE00015972817390709F52681378116968D91B1
:100DF0009C91179728173907C1F4208531851896DB
:100E00008D919C9119972817390779F4228533859C
:100E10001A968D919C911B972817390731F481E020
:100E2000D8018C9311968C93EEC0DE01A85BBF4F66
:100E30008D919C9111974817590789F5228133812B
:100E400012968D919C9113972817390741F52481AB
:100E5000358114968D919C91159728173907F9F4CF
:100E60002681378116968D919C91179728173907FF
:100E7000B1F42085318518968D919C91199728178A
:100E8000390769F4228533851A968D919C911B97B9
:100E90002817390721F481E0F801818375C0DE014C
:100EA000AC5ABF4F8D919C9111974817590799F5EE
:100EB0002281338112968D919C91139728173907BF
:100EC00051F52481358114968D919C9115972817A1
:100ED000390709F52681378116968D919C911797D0
:100EE00028173907C1F42085318518968D919C917A
:100EF00019972817390779F4228533851A968D9129
:100F00009C911B972817390731F481E0D80112967C
:100F10008C93129776C0DE01A05ABF4F8D919C91A1
:100F200011974817590791F52281338112968D91B7
:100F30009C9113972817390749F524813581149618
:100F40008D919C9115972817390701F526813781D6
:100F500016968D919C91179728173907B9F420851B
:100F6000318518968D919C9119972817390771F43E
:100F7000228533851A968D919C911B9728173907E6
:100F800029F481E0F801808382833DC0DE01A45909
:100F9000BF4F8D919C91119748175907A1F5228158
:100FA000338112968D919C9113972817390759F523
:100FB0002481358114968D919C91159728173907B6
:100FC00011F52681378116968D919C9117972817D8
:100FD0003907C9F42085318518968D919C91199710
:100FE0002817390781F4228533851A968D919C91B3
:100FF0001B972817390739F481E0D80111968C9393
:10100000119713968C93DF91CF911F910F910895B3
:10101000EF92FF920F931F93CF93DF93DC01FB01BD
:1010200015961C92159716961C921697808180FF34
:1010300004C081E016968C9316977A01BA016C5D14
:101040007F4F4FEF00E050E011E0808191810097E9
:1010500009F482C081309105C1F5E7018881998149
:10106000019711F41C93452F20813181E7018C8574
:101070009D852817390721F411961C931197452F48
:1010800020813181E701888D998D2817390721F456
:1010900012961C931297452F20813181EB01888194
:1010A00099812817390721F413961C931397452F1C
:1010B00020813181EB018C859D852817390739F412
:1010C00014961C931497452F02C0082F017020819D
:1010D00031812E7F31832083E70188819981281710
:1010E000390719F4232B09F01C9320813181E70182
:1010F0008C859D852817390729F4232B19F0119623
:101100001C93119720813181E701888D998D2817D3
:10111000390729F4232B19F012961C93129720817A
:101120003181EB01888199812817390729F4232B14
:1011300019F013961C93139720813181EB018C8554
:101140009D852817390729F4232B19F014961C9331
:101150001497013009F4452F32965F5F82E090E0EA
:10116000E80EF91E6E5F7F4F563009F06ECF4330A8
:1011700020F481E016968C930BC04350433040F42A
:1011800016968C911697813019F081E015968C9304
:10119000DF91CF911F910F91FF90EF900895AF9243
:1011A000BF92CF92DF92FF920F931F93CF93DF9363
:1011B000FC015B01D801890160E070E0FF24F39439
:1011C00081E0C82ED12CE5018881982F9071282FBD
:1011D0002870382F3470482F427085FF07C099233C
:1011E00071F08481882321F4F48240C0992339F07E
:1011F000222371F08381882321F4F38237C02223D4
:1012000039F0332371F08281882321F4F2822EC0D9
:10121000332339F0442351F18181882321F4F18271
:1012200025C0442319F18D919C911197892B59F474
:101230008091840090918500E801998388831196BC
:10124000DC92CE9216C02091840030918500E80196
:10125000488159818081882361F421503040241BCA
:10126000350B2436310528F0F08203C011961C920C
:101270001E92E501888180FF08C0633071051CF46F
:10128000F682158202C0F58216826F5F7F4F82E080
:1012900090E0A80EB91E12960E5F1F4F66307105C2
:1012A00009F091CFDF91CF911F910F91FF90DF90C7
:1012B000CF90BF90AF900895EF92FF920F931F933E
:1012C000243019F40E948E0509C0223019F40E94BE
:1012D000080804C0980187010E94CF081F910F9150
:1012E000FF90EF900895FC016130710521F481E0D9
:1012F0008383828308956330710521F481E08383C1
:10130000848308956530710519F481E082838483B4
:101310000895AF92BF92CF92DF92EF92FF920F9318
:10132000CF93DF93FC01DB01B90195018D919C9175
:101330001197009719F481E0808334C081309105C2
:1013400011F481E015C08230910511F481E023C0D1
:101350008330910511F481E024C08430910519F4A3
:1013600081E084831FC08530910521F481E0808372
:10137000818318C08630910519F481E081830BC008
:101380008730910519F481E082830BC08830910584
:1013900021F481E08083828305C0099719F481E0FC
:1013A000818383838781882309F1E60188818823EB
:1013B00059F48091840090918500E9019983888394
:1013C00081E0E601888310C08091840090918500BF
:1013D000E90128813981821B930B885E934040F498
:1013E0008091840090918500178202C0E6011882E6
:1013F0008781882309F4F7C0F7018081882309F0E9
:10140000F4C0043009F060C08D919C911197FC01EB
:10141000EE0FFF1FE80FF91FEE0FFF1FEE0FFF1F6C
:10142000E40FF51F118210828D919C911197FC01A0
:10143000EE0FFF1FE80FF91FEE0FFF1FEE0FFF1F4C
:10144000E40FF51F138212828D919C911197FC017C
:10145000EE0FFF1FE80FF91FEE0FFF1FEE0FFF1F2C
:10146000E40FF51F158214828D919C911197FC0158
:10147000EE0FFF1FE80FF91FEE0FFF1FEE0FFF1F0C
:10148000E40FF51F178216828D919C911197FC0134
:10149000EE0FFF1FE80FF91FEE0FFF1FEE0FFF1FEC
:1014A000E40FF51F118610868D919C911197FC0118
:1014B000EE0FFF1FE80FF91FEE0FFF1FEE0FFF1FCC
:1014C000E40FF51F138612868D919C911197FC01F4
:1014D000EE0FFF1FE80FF91FEE0FFF1FEE0FFF1FAC
:1014E000E40FF51F80819181EB0128813981822BE6
:1014F000932B918380838D919C911197FC01EE0F2A
:10150000FF1FE80FF91FEE0FFF1FEE0FFF1FE40F85
:10151000F51F828193812A813B81822B932B9383B8
:1015200082838D919C911197FC01EE0FFF1FE80FB4
:10153000F91FEE0FFF1FEE0FFF1FE40FF51F848151
:1015400095812C813D81822B932B958384838D9172
:101550009C911197FC01EE0FFF1FE80FF91FEE0F92
:10156000FF1FEE0FFF1FE40FF51F868197812E816D
:101570003F81822B932B978386838D919C9111972A
:10158000FC01EE0FFF1FE80FF91FEE0FFF1FEE0F1C
:10159000FF1FE40FF51F8085918528853985822BF3
:1015A000932B918780878D919C911197FC01EE0F71
:1015B000FF1FE80FF91FEE0FFF1FEE0FFF1FE40FD5
:1015C000F51F828593852A853B85822B932B9387F4
:1015D000828781E0F70180838D919C91119701961C
:1015E0008D939C9302C0E7011882DF91CF910F91F8
:1015F000FF90EF90DF90CF90BF90AF900895FC01E7
:10160000808180768032E1F48181813041F484E010
:1016100091E0909326018093250187E00895823020
:1016200041F482E091E0909326018093250181E0CE
:1016300008958A3029F483818093020180E008951F
:1016400080E008950F931F93DF93CF93CDB7DEB75C
:1016500029970FB6F894DEBF0FBECDBF902F098338
:10166000F12F1A83E22F2B83A32F3C83342F4D833A
:10167000B52F5E83462F6F83272F78878987582F52
:101680001092050188E08093060180E880930701AD
:10169000809308018093090110920A013295307FEE
:1016A0003A2BFF0FFF0FEE0FEE0FEE0FEF2B990F00
:1016B0009E2B932B90930401BB2311F010920601F3
:1016C000442319F084E080930601220F80910501E4
:1016D000822B809305015295550F507E8091040115
:1016E000852B80930401A8950E94B80B8091160168
:1016F00084FF05C084E091E067E00E94E60C299633
:101700000FB6F894DEBF0FBECDBFCF91DF911F9112
:101710000F9108952EE088E190E00FB6F894A89517
:10172000809360000FBE209360000E94A70B549A24
:1017300020E048EB5BE004C0A895CA010197F1F7EF
:101740002150D1F7549878940E94B80B0895E9E697
:10175000F0E080818C608083E99A8BE480931701AC
:10176000809342018AE58093160180934101089598
:101770001F93CF93DF9390912701935097FDA8C0BB
:1017800020912401809123018D3209F09FC098306F
:1017900009F09CC0CCE0D0E0C21BD109C55DDE4F92
:1017A00083EC80930B018AE5809300011092030182
:1017B0008881807629F0CE010E94FF0A282F7DC003
:1017C0009A81109214018981882321F410921501C5
:1017D00022E06DC0853019F49093280167C08630EF
:1017E00009F04EC08B81813041F486EE90E09093F9
:1017F00026018093250122E13FC0823041F488EF29
:1018000090E0909326018093250129E235C0833032
:10181000F1F4992341F482EB90E0909326018093B8
:10182000250124E029C0913041F486EB90E09093AB
:101830002601809325012CE11FC09230E1F482ED56
:1018400090E0909326018093250124E115C0813218
:1018500041F48AE091E0909326018093250129E0EC
:101860000BC0823241F488E690E090932601809389
:1018700025012AE401C020E080E4809303011DC01B
:10188000883021F421E08AE291E013C0893019F414
:1018900090932A010BC08A3011F421E008C08B30EC
:1018A00029F48BE4809317018093420120E084E1C6
:1018B00091E090932601809325018F81882321F464
:1018C0008E81821708F4282F20930101109227019E
:1018D0008091000184FF4AC0809101018F3F09F48B
:1018E00045C0182F893008F018E0811B8093010152
:1018F00080910B0198E8892780930B01112341F116
:1019000020912501309126018091030186FF0DC0B1
:10191000ACE0B1E080E090E0F901E80FF91FE4915C
:10192000ED9301961817C1F708C0912FD901ECE08B
:10193000F1E08D9181939150E1F71150812F90E06A
:101940001F5F0196820F931F9093260180932501BC
:101950008CE091E0612F0E941D0D612F6C5F6C3057
:1019600019F08FEF809301016093000194E189B138
:10197000887131F49150D9F7109228011092220108
:10198000DF91CF911F9108951F93DC01162F809155
:10199000410184FF07C08091420198E88927809324
:1019A000420103C08AE580934101912FE3E4F1E015
:1019B0008D9181939150E1F783E491E0612F0E9432
:1019C0001D0D1C5F109341011F9108951F93DC01B1
:1019D000162F8091160184FF07C08091170198E8A7
:1019E00089278093170103C08AE580931601912F00
:1019F000E8E1F1E08D9181939150E1F788E191E088
:101A0000612F0E941D0D1C5F109316011F910895F8
:101A1000A82FB92F80E090E041E050EA609530E0D7
:101A200009C02D9182279795879510F084279527D7
:101A3000305EC8F36F5FA8F30895EADF8D939D933E
:101A40000895CF93CFB7CF93C3954C9BE9F74C9BA9
:101A500009C04C9B07C04C9B05C04C9B03C04C9BD2
:101A600001C0A3C0DF93C0912401DD27C55DDE4F17
:101A70004C9B02C0DF91EBCF2F930F931F9309B1C3
:101A80002FEF04FB20F94F933F9319B14FEF01273C
:101A900004FB21F93BE031C04E7F012F19B12160D9
:101AA00028C0102F4D7F2260000009B129C04B7F54
:101AB0002460012F000019B12BC019B1477F2860A5
:101AC0002AC04F7E09B120612CC04F7D19B1206220
:101AD0002FC04F7B09B1206432C0422709B149931E
:101AE0004FEF0000102714FB20F919B11871C9F14C
:101AF000297F91F2012704FB21F909B1237F89F2A3
:101B0000315058F1102714FB22F919B1277E79F2D0
:101B1000012704FB23F92F7C81F209B1102714FB64
:101B200024F92F7971F200C019B1012704FB25F9BE
:101B30002F7359F200C009B1102714FB26F9223087
:101B400040F200C019B1012704FB27F9243028F620
:101B50004F77206819B10000F9CF12E01CBB0027B5
:101B600019C03B503195C31BD04012E01CBB08810B
:101B7000033CF9F00B34E9F0209122011981110F97
:101B80001213EDCF4A81441F093641F10D3211F095
:101B9000013E29F7009329013F914F911F910F9129
:101BA0002F91DF91CCB3C1FD4FCFCF91CFBFCF915C
:101BB000189520912901222379F3109127011123EF
:101BC000C1F53430C2F130932701209323011091E5
:101BD00024013BE0311B309324012DC000912701EB
:101BE00001303CF50AE54F7049F43091000134FDB5
:101BF00024C000930001CBE0D1E023C0413549F07F
:101C00003091160134FD19C000931601C7E1D1E0EF
:101C100018C03091410134FD10C000934101C2E46D
:101C2000D1E00FC02795A8F45150A9F4220F00006D
:101C3000F9CF4AE503C042ED01C0432FC4E1D0E033
:101C400032E01AB118615C9A1AB90BB120E418E1BC
:101C50005F93012756E00BB9279520F4515021F4EA
:101C6000220FF9CF012756E000003B5A0BB9D0F202
:101C7000279528F4515029F4220F0000F9CF0127AD
:101C800056E027950BB920F4515021F4220FF9CFDB
:101C9000012756E0299133230BB921F6077E1091D5
:101CA0002801110FC651D0400BB911F01093220139
:101CB00012E01CBB00611AB1177E402F477E5F9176
:101CC00000C000C00BB91AB94BB966CFA0E0B0E0B4
:101CD000ECE6FEE00C94A80E7C01EB018A016901A0
:101CE00009C0CE012196F6010995F70181937F0184
:101CF0000150104001151105A1F7CDB7DEB7E8E09E
:101D00000C94C40EA0E0B0E0E8E8FEE00C94A80E4D
:101D1000EC017B018A01690109C0CE012196F7011E
:101D200061917F01F60109950150104001151105DF
:101D3000A1F7CDB7DEB7E8E00C94C40E2F923F9226
:101D40004F925F926F927F928F929F92AF92BF92CB
:101D5000CF92DF92EF92FF920F931F93CF93DF9377
:101D6000CDB7DEB7CA1BDB0B0FB6F894DEBF0FBED4
:101D7000CDBF09942A88398848885F846E847D8421
:101D80008C849B84AA84B984C884DF80EE80FD8023
:101D90000C811B81AA81B981CE0FD11D0FB6F89499
:101DA000DEBF0FBECDBFED010895F894FFCF5AFFFF
:101DB000FFFFFFFFFFFFFFFFFFFFFFFFFFFFFFFF33
:101DC000FFFFFFFFFFFFFFFFFFFFFFFFFFFFFFFF23
:101DD000FFFFFFFFFFFFFFFFFFFFFFFFFFFFFFFF13
:101DE000FFFFFFFFFFFFFFFFFFFFFFFFFFFFFFFF03
:107800000C94693C0C94863C0C94A13C0C94863CF2
:107810000C94863C0C94863C0C94863C0C94863CE0
:107820000C94863C0C94863C0C94863C0C94863CD0
:107830000C94863C0C94863C0C94863C0C94863CC0
:107840000C94863C0C94863C0C94863C0C94863CB0
:107850000C94863C0C94863C0C94863C0C94863CA0
:107860000C94863C0C94863C0403090410034800E5
:107870004900440042006F006F00740012011001C3
:1078800000000008C016DF05000100020001090227
:107890002200010100803209040000010300000001
:1078A000092101010001222100070581030800C808
:1078B0000600FF0901A101150026FF0075088501DA
:1078C00095060900B20201850295830900B2020102
:1078D000C00011241FBECFEFD8E0DEBFCDBF11E046
:1078E000A0E0B1E0EAE8FFE702C005900D92AA30FF
:1078F000B107D9F711E0AAE0B1E001C01D92AB33A6
:10790000B107E1F70E94D23D0C94C33F0C94003CB8
:10791000A82FB92F80E090E041E050EA609530E078
:1079200009C02D9182279795879510F08427952778
:10793000305EC8F36F5FA8F30895EADF8D939D93DF
:107940000895CF93CFB7CF93C3954C9BE9F74C9B4A
:1079500009C04C9B07C04C9B05C04C9B03C04C9B73
:1079600001C0A3C0DF93C0911E01DD27CB5DDE4FB8
:107970004C9B02C0DF91EBCF2F930F931F9309B164
:107980002FEF04FB20F94F933F9319B14FEF0127DD
:1079900004FB21F93BE031C04E7F012F19B121607A
:1079A00028C0102F4D7F2260000009B129C04B7FF5
:1079B0002460012F000019B12BC019B1477F286046
:1079C0002AC04F7E09B120612CC04F7D19B12062C1
:1079D0002FC04F7B09B1206432C0422709B14993BF
:1079E0004FEF0000102714FB20F919B11871C9F1ED
:1079F000297F91F2012704FB21F909B1237F89F244
:107A0000315058F1102714FB22F919B1277E79F271
:107A1000012704FB23F92F7C81F209B1102714FB05
:107A200024F92F7971F200C019B1012704FB25F95F
:107A30002F7359F200C009B1102714FB26F9223028
:107A400040F200C019B1012704FB27F9243028F6C1
:107A50004F77206819B10000F9CF12E01CBB002756
:107A600019C03B503195C31BD04012E01CBB0881AC
:107A7000033CF9F00B34E9F020911C011981110F3E
:107A80001213EDCF4A81441F093641F10D3211F036
:107A9000013E29F7009323013F914F911F910F91D0
:107AA0002F91DF91CCB3C1FD4FCFCF91CFBFCF91FD
:107AB000189520912301222379F31091210111239C
:107AC00021F5343022F13093210120931D011091D2
:107AD0001E013BE0311B30931E0119C000912101B2
:107AE00001309CF40AE54F7081F43091000134FDBF
:107AF00010C000930001C1E1D1E00FC02795A8F4A8
:107B00005150A9F4220F0000F9CF4AE503C042ED1D
:107B100001C0432FC4E1D0E032E01AB118615C9A91
:107B20001AB90BB120E418E15F93012756E00BB9B5
:107B3000279520F4515021F4220FF9CF012756E068
:107B400000003B5A0BB9D0F2279528F4515029F484
:107B5000220F0000F9CF012756E027950BB920F43A
:107B6000515021F4220FF9CF012756E029913323F8
:107B70000BB921F6077E10912201110FC651D0409A
:107B80000BB911F010931C0112E01CBB00611AB17B
:107B9000177E402F477E5F9100C000C00BB91AB915
:107BA0004BB97ACF2F923F924F925F926F927F9212
:107BB0008F929F92AF92BF92CF92DF92EF92FF92FD
:107BC0000F931F93DF93CF9300D000D0CDB7DEB7D4
:107BD00091E098B988E28A95F1F73099BCC195BFD8
:107BE00082E085BF809169008C6080936900E99A8A
:107BF000549A20E048EB5BE0A895CA010197F1F7A1
:107C00002150D1F754987894FF2400E06AE5E62EDD
:107C100050EB252E58E7352E4CE6642E48E7742E9F
:107C200038E6432E38E7532E2EEEC22E2FEFD22EFB
:107C300020EA38E7C20ED31E9CE7A92E98E7B92E9A
:107C400082E0882E81E0982EA89590912101292F1D
:107C5000235027FD1DC180911E014CE050E0481BC0
:107C600051094B5D5E4F5C834B8380911D018D32CA
:107C700009F0AAC0283009F009C153EC5093110152
:107C8000E092000110920A01AB81BC812C91822FFD
:107C9000807611969C9111978823C9F0993071F4E0
:107CA00012968C91823031F410920D0127FD7BC029
:107CB0009FEF7DC0B1E0B0930E015DC1913009F03E
:107CC0005AC19092200180921F0127E055C1EB819B
:107CD000FC81228110921A01992331F410921B0128
:107CE0008AE191E022E05AC0953019F420932201F4
:107CF00052C0963009F03FC0AB81BC8113968C9185
:107D0000813031F4B0922001A0921F0122E12FC0F6
:107D1000823031F4D0922001C0921F0122E227C0AC
:107D2000833091F4222331F45092200140921F01BC
:107D300024E01DC02130D1F02230C1F47092200126
:107D400060921F0120E113C0813241F4E0EAF8E7BC
:107D5000F0932001E0931F0129E009C0823231F441
:107D60003092200120921F0121E201C020E0F0E4C6
:107D7000F0930A0101C1983019F484E291E009C03E
:107D8000993019F42093240106C09A3021F48AE135
:107D900091E021E003C08AE191E020E0909320018E
:107DA00080931F01E9C0AB81BC8116969C9180E84D
:107DB00080930A0106C0EB81FC819681921708F03E
:107DC000922F9093010162C080910A0187FF5EC0EB
:107DD00040910B0150910C015A83498380910D0110
:107DE000882389F4AB81BC811196BC91B983EB8166
:107DF000FC81F281FA832B813C812C5F3F4F3C83D5
:107E00002B83292F2750322F380F30930D01898172
:107E10008F7759F4F89443E0E981FA814093570051
:107E2000E895789407B600FCFDCFF89449815A8113
:107E3000AB81BC818D919C9161E0FA010C01609352
:107E40005700E895112478943296FA83E983898162
:107E50008F7751F4F89465E0FA0160935700E89544
:107E6000789407B600FCFDCF225031F08B819C81C5
:107E700002969C838B83CBCFA981BA81B0930C01EE
:107E8000A0930B0137FF02C0109201011092210153
:107E90008091000184FF4AC0809101018F3F09F465
:107EA00045C0182F893008F018E0811B809301012C
:107EB0008091110198E8892780931101112341F1E4
:107EC00020911F013091200180910A0186FF0DC091
:107ED000A2E1B1E080E090E0F901E80FF91FE49140
:107EE000ED9301961817C1F708C0D901912FE2E16F
:107EF000F1E08D9181939150E1F71150812F90E045
:107F00001F5F0196820F931F9093200180931F01A2
:107F100082E191E0612F0E949D3C612F6C5F6C308B
:107F200019F08FEF809301016093000194E189B112
:107F3000887131F49150D9F71092220110921C01EE
:107F400080910E01882309F47FCEFA9409F07CCE4B
:107F5000015009F079CEF89481E180935700E895BB
:107F60001DBA1092690081E085BF15BEE0910F0136
:107F7000F0911001099520E0EB81FC818781882335
:107F800009F419CF1DCFF894FFCF5AFF01800000EC
:107F900080000000FFFFFFFFFFFFFFFFFFFFFFFF6D
:107FA000FFFFFFFFFFFFFFFFFFFFFFFFFFFFFFFFE1
:107FB000FFFFFFFFFFFFFFFFFFFFFFFFFFFFFFFFD1
:107FC000FFFFFFFFFFFFFFFFFFFFFFFFFFFFFFFFC1
:107FD000FFFFFFFFFFFFFFFFFFFFFFFFFFFFFFFFB1
:107FE000FFFFFFFFFFFFFFFFFFFFFFFFFFFFFFFFA1
:107FF000FFFFFFFFFFFFFFFFFFFFFFFFFFFFFFFF91
:00000001FF
