:100000000C948E000C94AB000C94ED040C94AB009B
:100010000C94AB000C94AB000C94AB000C94AB00B4
:100020000C94AB000C94AB000C94AB000C94AB00A4
:100030000C94AB000C94AB000C94AB000C94AB0094
:100040000C94AB000C94AB000C94AB000C94AB0084
:100050000C94AB000C94AB000C94AB000C94AB0074
:100060000C94AB000C94AB001201100100000008CE
:10007000C016E40501000102000109026500020149
:100080000080320904000000010100000924010081
:100090000109000101090401000201030000072415
:1000A00001000141000624020101000624020202AF
:1000B00000092403010301020100092403020401D1
:1000C00001010009050103080002000005250101E6
:1000D0000109058103080002000005250101030450
:1000E00003090422037700770077002E0063007273
:1000F000007900700074006F006D00790073002EAD
:100100000064006500160356002D005500530042A0
:10011000002D004D004900440049000011241FBE7D
:10012000CFEFD4E0DEBFCDBF11E0A0E0B1E0E8E565
:10013000FCE002C005900D92AE30B107D9F711E096
:10014000AEE0B1E001C01D92A634B107E1F70E9414
:100150006F010C942A060C9400002198299A229889
:100160002A9A23982B9A24982C9A25982D9A389875
:10017000409A3998419A3A98429A579A5F9A569A71
:100180005E9A559A5D9A529A5A9A209A289A3B9A60
:10019000439A0895E4E6F0E08081877F8083E0E879
:1001A000F0E080818F77808380818F7B8083808166
:1001B0008F7D808380818F7E808380818D7F80830F
:1001C00080818E7F8083E1E8F0E08081877F80837B
:1001D00080818F7E808380818460808380818D7F19
:1001E00080838081816080830895FF920F931F93A5
:1001F000CF93DF93FB01908121E030E002C0220F1A
:10020000331F8A95E2F7F22E822F8095892380830F
:1002100084E190E0000001972FEF8F3F9207D1F724
:1002200083B183B183B183B181FD03C002E010E0EB
:1002300002C000E010E082FD03C0C4E0D0E002C0D4
:10024000C0E0D0E083FD03C0A8E0B0E002C0A0E0C1
:10025000B0E084FD03C060E170E002C060E070E0E7
:1002600085FD03C040E250E002C040E050E026B10E
:1002700030E0369527953695279520953095217055
:100280003070202B312B2C2B3D2B2A2B3B2B262B5C
:10029000372B80818F298083242B352BC901DF9157
:1002A000CF911F910F91FF90089585FF03C06B5F61
:1002B0007F4F13C084FF03C06C5F7F4F0EC083FF6E
:1002C00003C06D5F7F4F09C082FF03C06E5F7F4F29
:1002D00004C081FF02C06F5F7F4FCB0108952F9252
:1002E0003F924F925F926F927F928F929F92AF92C6
:1002F000BF92CF92DF92EF92FF920F931F93DF9303
:10030000CF93CDB7DEB7C955D0400FB6F894DEBF56
:100310000FBECDBF0E94AD000E94CA000E943F03E5
:10032000DE019596E0E0F1E08CE001900D928150C5
:10033000E1F7FE01F396CE01835A9F4F118210829E
:100340003696E817F907D1F78CE0FE013196DF0108
:10035000982F1D929A95E9F79E01275E3F4FD9018C
:100360001D928A95E9F76696EFAF66972F2E6896ED
:100370003FAF2EAF6897FE01BB966A96FFAFEEAF18
:100380006A9787E090E06BE270E00E94F5009E873C
:100390008D8786E090E06BE270E00E94F500988B1C
:1003A0008F8785E090E06BE270E00E94F5009A8B09
:1003B000898B82E090E06BE270E00E94F5009C8BFC
:1003C0008B8B80E090E065E270E00E94F5009E8BF0
:1003D0008D8B83E090E068E270E00E94F500988FDA
:1003E0008F8B9E01235F3F4F66968FAD6697922D50
:1003F000BC01FE017996D9014D915C91DB018D9193
:100400009C914817590719F41182108205C0808108
:100410009181019691838083808191810A972CF04C
:10042000DB014D935C93118210822E5F3F4F6E5F14
:100430007F4F329668968EAD9FAD68972817390723
:10044000D1F686B15FE4C52ED12CCC0EDD1E4BE07B
:10045000A42EB12CAC0EBD1E3FE2832E912C8C0E2F
:100460009D1E8601D80115965C9015974C901496A8
:100470006C90149711967C9011971296ED90FC90C9
:1004800013971E141F044CF40894E108F108E114BA
:10049000F10419F4662463947724F5013080918186
:1004A000D4016D917C91832D0E9455019C01842D76
:1004B00090E08217930731F0422E662463947724EC
:1004C000EE24FF2430FE03C0552453940DC0B1E048
:1004D0005B1651F4422E55246624639428EC722E48
:1004E00090EDE92E97E0F92EF80155824082648262
:1004F0007182F382E282065010408EEF9FEFA80EC9
:10050000B91E880E991E6A96AEADBFAD6A970A17DE
:100510001B0709F0A7CFF6018481813061F4618166
:10052000808190E070E040E050E00E941203D6012C
:1005300014961C9203C0A8950E948F03EAEFFFEF68
:10054000CE0EDF1E6A968EAD9FAD6A97C816D9068D
:1005500011F717CFFC018381813041F488E690E0E8
:1005600090932B0180932A0182E108958AE790E01D
:1005700090932B0180932A0185E60895FC01E08188
:100580008E2F8076803229F4E7FD03C081E08093CE
:100590000E018FEF0895FC011082118212821382E6
:1005A00014821582168287E0089581E008950895E7
:1005B000EF92FF920F931F93DF93CF93CDB7DEB7E8
:1005C00028970FB6F894DEBF0FBECDBFF82EE62EEB
:1005D0008E010F5F1F4F88E0F80111928A95E9F7AD
:1005E00010920E01A8950E948F0380911B0184FF39
:1005F0000AC089E0898380E98A83FB82EC82C80192
:1006000064E00E94690380E090E028960FB6F894B9
:10061000DEBF0FBECDBFCF91DF911F910F91FF9035
:10062000EF9008950F931F93DF93CF93CDB7DEB76D
:1006300028970FB6F894DEBF0FBECDBF182F062F38
:10064000A8950E948F0310920E0180911B0184FFD8
:100650000BC089E0898380E98A831B830C83CE01E8
:10066000019664E00E94690328960FB6F894DEBFF5
:100670000FBECDBFCF91DF911F910F9108952EE056
:1006800088E190E00FB6F894A895809360000FBEC3
:10069000209360000E945C03549A20E048EB5BE0EA
:1006A00004C0A895CA010197F1F72150D1F75498D9
:1006B00078940E948F030895E9E6F0E080818C60D1
:1006C0008083E99A8BE480931C018AE580931B0167
:1006D00008951F93DC01162F80911B018E31E9F0E4
:1006E00080911B0184FF07C080911C0198E8892735
:1006F00080931C0103C08AE580931B01912FEDE1DB
:10070000F1E08D9181939150E1F78DE191E0612FBE
:100710000E94E9041C5F10931B011F9108951F9311
:10072000CF93DF9360912C01635067FDCEC0809121
:100730002901CCE0D0E0C81BD109C05DDE4F80911B
:100740002801803120F4CE010E94D702BCC08D3236
:1007500009F0A8C0683009F0B6C083EC809310019E
:100760008AE580930C0110920F019881892F807681
:1007700029F0CE010E94BE02282F81C02A813C812F
:10078000109219018981882381F49F71923049F474
:10079000313839F480911B018E3119F481E0809356
:1007A000190110921A0122E063C0813011F08330E8
:1007B00089F4222309F05BC0313809F058C0813038
:1007C00011F08EE101C08AE580931B018BE48093D8
:1007D0001C014DC0853019F420932D0148C086308E
:1007E00079F58B81813011F0823029F4CE010E949D
:1007F000AA02282F21C08330F1F4222341F48FED87
:1008000090E090932B0180932A0124E015C02130C1
:1008100041F483EE90E090932B0180932A0122E231
:100820000BC0223041F485E091E090932B0180933E
:100830002A0126E101C020E080E480930F011FC05F
:10084000883021F421E08FE291E014C0893019F45E
:1008500020932F0109C08A3011F421E009C08B30A8
:1008600031F48BE480931C018AE580931B0120E026
:1008700089E191E090932B0180932A0109C02F3FD9
:1008800039F4888187FD2E8180E880930F0106C0AE
:100890008F81882319F48E81821708F0822F80932C
:1008A0000D0111C080910F0187FF0DC0CE010E9484
:1008B000D5028F3F21F48EE180930C0104C0882380
:1008C00011F010920D0110922C0180910C0184FF07
:1008D0005AC080910D018F3F09F455C0182F8930FF
:1008E00008F018E0811B80930D018091100198E8B9
:1008F000892780931001112399F180910F0187FFBF
:1009000009C081E191E0612F0E94CB02182F89304C
:10091000A0F526C020912A0130912B0186FF0DC041
:10092000A1E1B1E080E090E0F901E80FF91FE49166
:10093000ED9301961817C1F708C0912FD901E1E195
:10094000F1E08D9181939150E1F71150812F90E06A
:100950001F5F0196820F931F90932B0180932A01B2
:1009600081E191E0612F0E94E904612F6C5F6C309E
:1009700041F08FEF80930D0104C08FEF80930D0144
:100980006EE160930C0194E189B1887149F4915052
:10099000D9F710922D01109227018AE580931B014F
:1009A000DF91CF911F910895A82FB92F80E090E09B
:1009B00041E050EA60956F5F58F42D9138EF82273F
:1009C0009795879510F0842795273F5FC8F3F3CF5D
:1009D0000895EADF8D939D930895CF93CFB7CF937A
:1009E000C3954C9BE9F74C9B09C04C9B07C04C9BA3
:1009F00005C04C9B03C04C9B01C0A6C0DF93C091B7
:100A00002901DD27C05DDE4F4C9B02C0DF91EBCF9B
:100A10002F930F931F9309B12FEF04FB20F94F93EE
:100A20003F9319B14FEF012704FB21F93BE031C09F
:100A30004E7F012F19B1216028C0102F4D7F2260F9
:100A4000000009B129C04B7F2460012F000019B1BB
:100A50002BC019B1477F28602AC04F7E09B12061A1
:100A60002CC04F7D19B120622FC04F7B09B120648B
:100A700032C0422709B149934FEF0000102714FB01
:100A800020F919B11871C9F1297F91F2012704FBEE
:100A900021F909B1237F89F2315058F1102714FB55
:100AA00022F919B1277E79F2012704FB23F92F7C63
:100AB00081F209B1102714FB24F92F7971F200C0DB
:100AC00019B1012704FB25F92F7359F200C009B1B0
:100AD000102714FB26F9223040F200C019B101277B
:100AE00004FB27F9243028F64F77206819B100005D
:100AF000F9CF12E01CBB00271CC03B503195C31B33
:100B0000D04012E01CBB0881033C11F10B3401F111
:100B1000209127011981110F1213EDCF4A81441F33
:100B2000093659F10D3211F0013E29F74F7009F0E5
:100B3000042F00932E013F914F911F910F912F9100
:100B4000DF91CCB3C1FD4CCFCF91CFBFCF911895E2
:100B500020912E01222379F310912C01112369F5A4
:100B600034306AF130932C0120932801109129012F
:100B70003BE0311B3093290122C000912C01013050
:100B8000E4F40AE54F7049F430910C0134FD19C0CA
:100B900000930C01C0E1D1E018C030911B0134FD7D
:100BA00010C000931B01CCE1D1E00FC02795A8F441
:100BB0005150A9F4220F0000F9CF4AE503C042EDDD
:100BC00001C0432FC4E1D0E032E01AB118615C9A51
:100BD0001AB90BB120E418E15F93012756E00BB975
:100BE000279520F4515021F4220FF9CF012756E028
:100BF00000003B5A0BB9D0F2279528F4515029F444
:100C0000220F0000F9CF012756E027950BB920F4F9
:100C1000515021F4220FF9CF012756E029913323B7
:100C20000BB921F6077E10912D01110FC651D0404E
:100C30000BB911F01093270112E01CBB00611AB12F
:100C4000177E402F477E5F9100C000C00BB91AB9D4
:080C50004BB971CFF894FFCFFE
:0E0C580028002D00320037003B0040005AFFFC
:00000001FF
