:100000000C9449050C9466050C9466050C946605E1
:100010000C9466050C9466050C9466050C946605B4
:100020000C9466050C9466050C9466050C946605A4
:100030000C9466050C9466050C9466050C94660594
:100040000C9466050C9466050C9466050C94660584
:100050000C9466050C9466050C9466050C94660574
:100060000C94BB0E0C946605A877A6E0F7435A35AE
:1000700085E272978FB71A6287380D67C7BE4F3E09
:100080002076378F68B7A9263F2B10E3307E900E7D
:10009000850A70510386400D4FEB3ECCD18735BDAC
:1000A000F50B5ED0F8F2D5E26C310CADFC21C378D3
:1000B000C106C24C55E64A3448111EDAE71A84A03C
:1000C00096A7E37FAF639CFA235B79C89EBAB2C957
:1000D00022124BB3A1B63249A2E189391066C50795
:1000E0008F54EA91CA3FF919F0D746BC281B61E842
:1000F0002F6AAE9DF64E0914774DDB1F2E7B7CF1E7
:1001000043A300B8138C85B9297588FDD2561C50BD
:100110009741E53B60B5C064EE98D62D25A4AACDE5
:100120007DA883C6ABBE4499263CCE9FBFD3CB7679
:100130007A7E82018A9A801D0EB05CD43862F430D7
:10014000E08E53B70257ACA6520A6D92651724335E
:10015000457274B1B4F75DED2CFF47375A90BBDFA1
:100160002A165995D9C4276773C768FEA5DD6B5F4A
:1001700093D8EC053A8D6EFB3DA96936F394DEEF1A
:10018000156F8B9B080FDC81182004E471CFE92BDD
:10019000425801A0A962D63F85A7B6D4FA156617C2
:1001A00009BD5D14342659729154064FF8B05B7442
:1001B00093998CF245CDEA4EAD104AE5CAEEDFC602
:1001C0006F9F888E02CC08A877946D21B128E439FE
:1001D0007996607181162EE678B9C4469A42AEB718
:1001E0007C43B3221A86C2323D2D9CD229E9639BFF
:1001F000D131385E1E3641BB03182B3EBF6861FC0F
:1002000052C0DEE00A58135A00BE1C900E5312FD75
:10021000E26EBACE2427447F87A3A1D55040E3F9EC
:1002200083F7C7A235C8DB19AB2F1125ED339E55D7
:10023000E148AF7384DA2AAA51EB9D95B2CBE770FF
:1002400080FE4C6504EFC5F1C33AB4F55F2389DD48
:1002500030A58BD3F6DC4D64D7F08FEC56375CA419
:100260000D07768A2C0BB5D8C11FE83BF44B1B4712
:100270006C49677B92CF757E20D97D3C977AD005FB
:100280006B0F1DFB8298578DF36ABCACC9A6FFB8F3
:10029000690C4C4D72075A49338DA2AB463D630D34
:1002A000A097FFF0F5FAC0E9DB62E4E17443DC8675
:1002B000182937F406E2ED6F90481E2D1DEA73945D
:1002C00054DF25F64727D91177C9841C5B5C51811F
:1002D000A6223E2496C88AEC827C09B8454A57BBC0
:1002E0002F50758E61708C6CAFD0FDB41BAEDEFEEE
:1002F0003BB536BD55010E9C41565FB3260383BA0C
:10030000134BCAC50AF860A5B9C7C39832FB12F9E6
:10031000A792AA68F3787E05202102E8BFF2B059BF
:100320008FD2CB876515F11AB230ADEE58A38B662C
:100330001F2CD75D1985A8E6D36BA10C91936A5E3B
:100340000B79E3DD004F3C896E7169A9AC40E599FA
:1003500028C6314E7ACD089E7DEF17FC88D8A46D53
:100360004495D1B7D49BBE2A34642BCF2EEB38CE24
:1003700023E03A3FF77B9F1053BC526716E7807625
:1003800004C4B6C1C27F9ADAD53942149DB10F3583
:10039000D6CCB9DA380CA29C091F06B1B6FD1A6991
:1003A0002330C4DE01D1F45829371C7DD5BFFFBDF1
:1003B000C8C9CF65BE7B7897986708B32657F7FA08
:1003C00040AD8E75A67CDB918B5199D4177A908DB8
:1003D000CE63CB4EA0AB183A5B507F2174C1BBB843
:1003E000B7BA0B359531599A4D04071E5A7613F357
:1003F0007183D08603A83942AA28E6E4D85DD3D019
:100400006E6F96FB5EBC56C25F859BE7AFD23B84A6
:100410006AA753C54449A5F936723D2CD91BA1F5ED
:100420004F939D68474116CA2A4CA387D6E5192EDB
:1004300077156D70C0DFB20046EDC66C4360922D3B
:10044000A922458F3455AEA40A6632E0DC02ACE83E
:10045000208C89624AFEEEC3E33CF17905E9F62778
:1004600033CCF29E11817E80108A829F480DD7B4D2
:10047000FC2FB5C7DD88146B2B54EA1D945CB0EFDC
:100480001224CDEBE1E264733F0E5261253EF80F7A
:100490004BECC00030F602493D106E20C9A62FFE7D
:1004A0002C2B752E4526AB48A980FC04CCD3B5BABD
:1004B000A338317D01D9A77B96B663694EF7DEE09C
:1004C00078CA50AA41916588E42185DA3A27BE1C92
:1004D0003E425E17527F1F89246F8F5C67740E1235
:1004E000878DE934ED73C4F8615B05DF594C97796A
:1004F0008318A45595EBBD53F5F15766469FB2811D
:100500000951862216DD23937629C2D71DD4BF3622
:100510003FEA4B1132B9625460D66D439A0D929CFA
:10052000B0EF586C9D772D70FAF3B30BE2407EF478
:100530008AE58C3C5671D164E1820ACB131590ECAC
:100540000399AF145D0F334A94A5A8351BE36AC61F
:1005500028FF4DE72584AC08AEC5A22AB8370C7A2F
:10056000A0C3CEAD061A9E8BFBD5D0C11ED0B49BC6
:10057000B144F247C768CF72BB4F5AF9DC6BDBD28C
:10058000E87CC8EE98A1E6D839075FFD8E19B73B25
:10059000BCCD7CE38173B211BF6F2098FE7596EFDE
:1005A0006CDA50E109725445BA34805BED3E532C4D
:1005B00087A457F3333F3CB767B4A325604F076B5D
:1005C0001B47150FE40AEAD1327836498D4BD2BC6D
:1005D000A5DC1D0D4DCD9A825FFC9465BEE2F4C989
:1005E0001E44CB9E0C64712663B314E840708A0EDF
:1005F00019426DAC88105CDF41A9ADE5FB74CCD528
:10060000068E5986CE1F3D76E08FB977277BA6D818
:1006100029D3ECB813F7FAC3516ADE4A5AEBC28BFE
:10062000234892CF62A899F8D02E856143C8BDF0C7
:100630000593CA4EF17D30FDC469662F08B152F9A9
:1006400021E67A2BDD3984FFC091D637D47F2D9BEC
:100650005DA13B6EB5C54604F590EE7E831C035646
:10066000B6AA0017013555790B12BB1A31E70228DB
:1006700016C1F6A2DB189C89683897ABC72AD73A0F
:10068000F2C6244CB058A0225E9DD9A7E9AEAF8C2B
:10069000959F28B720D7B030C30919C067D6003C52
:1006A0007EE7E9F4085AF8B82E05A6259E5CD81511
:1006B0000DE1F611546BCD2146665E84AD063829F6
:1006C00044C5A2CEF1AAC1407186B5EFFC36A8CBD5
:1006D0000A48274564A3AF8CB2C69F0789DC17D3AD
:1006E0004979FBFE1DD0B9884352BC01782B7D941B
:1006F000C70EDEA5D59BCCF7617AC274813903ABF6
:1007000096A037BD2D72753FC9D48E6FF98DED62FD
:10071000DB1CDF04AC1B6C144B63D0BFB482EC7BDE
:100720001A5992D21060B63D5FE6806E70C4F23501
:10073000D97CEEE541A45B50DDBB4CF31F9D5D57BA
:10074000555197E358424D9C73BAC877316926AE2C
:10075000EA8ADA22B38756FA930B341633E8E45365
:10076000BEA9B13A3EF5906ACF3B12FD8F9AA747DA
:100770009199EB0F24FF2318854E7F0CE0A1D2D175
:100780002C2A4A024F1E95688B98836D76CA653273
:10079000132FC3829AA4BA8160373435FC80A851E4
:1007A0006567ED305F10D34A272F13B92AD2CCE109
:1007B000EFAEEBBEF4BDCF43B3C58884B7DD39409F
:1007C000CE486D9B72617EE7A14E532E773BE2C906
:1007D00036221B6E73B103B24C87A9D44D0FD815C6
:1007E0006CAA18F649575DFB7A149463A011B09E69
:1007F000DE0546C8EE47DBDC24899C919729E97B1E
:10080000C1071EB8FDFEACC662984FF179E0E86BF7
:100810007856B68D045086CA6F20E6EAE576171C36
:10082000747FBC0D2C85F76696E48B753F4BD938E9
:10083000AF7CDA0B832D3132A2F51D594145BF3C07
:100840001FF8F98AD016256912999D2195AB01A64A
:10085000D7B5C07DFF580E3A92D155E3089FD63EDA
:10086000528EFAA3C702CDDF8F64198CF3A70C5EFA
:100870000A6A09F0935B42C20623EC71ADB4CBBBAC
:100880007028D51A5C33685A004490A5C4263D2BC5
:10089000F25496ADDA1FED33E18169080D0ADB35BC
:1008A000779A64D1FC78AA1BD067A0DDFA6C6371DB
:1008B0000584176A894F667FC65055926FBDE7D28F
:1008C00040728DBBEC06428AE4889D7E7A822713B3
:1008D000411AAFC8A476B4C2FE6D1CD96130B37C96
:1008E000EAF7290FF23B51C1DE5FE52A2F990B5D34
:1008F000A32B4AAB95A5D35856EE283100CC15460C
:10090000CAE686383C65F5E39FD65B094983702DBE
:1009100053A97DE2C4AC8E5EB825F4B957F3F168F3
:1009200047B2A25920CE34795C900E1EBED5222348
:10093000B1C91862162E913E078FD83F933DD49BC4
:10094000DF8521FB117497C7D7DC4C194598E94323
:10095000024BBCC3049C6BF07552A726F6C5BACFF8
:10096000B0B7AE5AA1BF038B80126E0CEBF9C04436
:1009700024EF10F8A88CE87BFF9E2CCD603687B55D
:1009800094A654733A144E011DB6FD37484D39CB29
:10099000E032000000000000000000000000000045
:1009A0000000000000000000000000000000000047
:1009B0000000000000000000000000000000000037
:1009C0000000000000000000000000000000000027
:1009D0000000000000000000000000000000000017
:1009E0000000000000000000000000000000000007
:1009F00000000000000000000000000000000000F7
:100A000000000000000000000000000000000000E6
:100A100000000000000000000000000000000000D6
:100A200000000000000000000000000000000000C6
:100A300000000000000000000000000000000000B6
:100A400000000000000000000000000000000000A6
:100A50000000000000000000000000000000000096
:100A60000000000000000000000000000000000086
:100A70000000000000000000000000000000000076
:100A80000000000000000000000000000000000066
:100A9000000011241FBECFEFD8E0DEBFCDBF11E0B4
:100AA000A0E0B1E0EAE7FFE102C005900D92A632B6
:100AB000B107D9F712E0A6E2B1E001C01D92AB3652
:100AC000B107E1F70E94F1050C94BB0F0C940000F4
:100AD0000895E4E6F0E08081877F8083E0E8F0E03D
:100AE00080818F77808380818F7B808380818F7DE1
:100AF000808380818F7E808380818D7F80838081D1
:100B00008E7F8083E1E8F0E08081877F8083808131
:100B10008F7E808380818460808380818D7F8083CD
:100B200080818160808308951F93CF93DF93EB01D1
:100B30009BB121E030E002C0220F331F8A95E2F71B
:100B4000122F822F809589238BB984E190E00000D9
:100B500001972FEF8F3F9207D1F783B183B183B114
:100B600083B181FD03C042E050E002C040E050E0AC
:100B700082FD03C024E030E002C020E030E083FDCD
:100B800003C0A8E0B0E002C0A0E0B0E084FD03C074
:100B9000E0E1F0E002C0E0E0F0E085FD03C060E2EB
:100BA00070E002C060E070E086B190E096958795B5
:100BB000969587958095909581709070482B592BCC
:100BC000422B532B4A2B5B2B4E2B5F2B462B572B49
:100BD000598348838BB1182B1BB9DF91CF911F919B
:100BE00008952F923F924F925F926F927F928F92D1
:100BF0009F92AF92BF92CF92DF92EF92FF920F93AC
:100C00001F93DF93CF93CDB7DEB7C855D0400FB653
:100C1000F894DEBF0FBECDBFFE013D968CE0DF0134
:100C20001D928A95E9F7AAE4B2E086E001900D9260
:100C30008150E1F7A8E5B2E0FE013D9686E0019023
:100C40000D928150E1F78FE18093640280936502F9
:100C50008FE080936602809367028FEF8093680233
:100C6000809369022198299A22982A9A23982B9A8C
:100C700024982C9A25982D9A3898409A3998419A18
:100C80003A98429A579A5F9A569A5E9A559A5D9AFE
:100C9000529A5A9A519A599A509A589A8E010F5FBD
:100CA0001F4F8CE0F80111928A95E9F780E091E0FE
:100CB00064E672E046E051E028E635E00E94E20B8F
:100CC0000E9469052224AA24BB2433247724669633
:100CD0000FAF669767961FAF679787E090E06696BD
:100CE0006FAD669767967FAD67970E94940586E023
:100CF00090E0BE016D5F7F4F0E94940585E090E01B
:100D0000BE016B5F7F4F0E94940582E090E0BE01C0
:100D1000695F7F4F0E94940581E090E0BE01675FAC
:100D20007F4F0E94940580E090E0BE01655F7F4F99
:100D30000E949405F2E07F1621F024E0721609F07B
:100D400050C1222009F075C089819A81C09709F0AD
:100D50004CC18B819C81C09709F047C18D819E81D8
:100D6000C09709F042C18F819885892B09F03DC158
:100D700089859A85892B09F038C18B859C85892BBB
:100D800009F033C182E0781609F0D3C41A8E198EA7
:100D90001C8E1B8E1E8E1D8E18A21F8E1AA219A2CB
:100DA0001CA21BA21EA21DA218A61FA21AA619A64B
:100DB0001CA61BA61EA61DA618AA1FA61AAA19AA1B
:100DC0001CAA1BAA1EAA1DAA18AE1FAA1AAE19AEEB
:100DD0001CAE1BAE1EAE1DAE21961FAE1EAE2197E1
:100DE00023961FAE1EAE239725961FAE1EAE2597E7
:100DF00027961FAE1EAE279729961FAE1EAE2997C7
:100E00002B961FAE1EAE2B972D961FAE1EAE2D97A6
:100E10002F961FAE1EAE2F9761961FAE1EAE619726
:100E200063961FAE1EAE639765961FAE1EAE6597A6
:100E300080C491E0291609F077C449815A8141158F
:100E4000510509F07AC48B819C81C09709F075C463
:100E50008D819E81C09709F070C48F819885892B00
:100E600009F06BC489859A85892B09F066C48B8546
:100E70009C85892B09F061C46AC48FEE17C0A1E07C
:100E8000AA16B10411F48FEB11C0B2E0AB16B10495
:100E900011F487EF0BC0E3E0AE16B10411F48FED4F
:100EA00005C0F4E0AF16B10419F48FE7809369022E
:100EB000309922C080916A02882361F48091840075
:100EC00090918500909357028093560221E02093E1
:100ED0006A0279C080918400909185002091560229
:100EE00030915702821B930B885E934040F48091AF
:100EF00084009091850067C010926A0264C033201C
:100F000009F062C0B4E07B16D9F4F501EE0FFF1FC3
:100F1000EA0DFB1DEE0FFF1FEE0FFF1F89E190E0B2
:100F20008C0F9D1FE80FF91F11821082138212820D
:100F300015821482178216821186108613861286F5
:100F4000F501EE0FFF1FEA0DFB1DEE0FFF1FEE0F69
:100F5000FF1FA9E1B0E0AC0FBD1FEA0FFB1F8081AE
:100F60009181842B952B91838083828193812B8126
:100F70003C81822B932B93838283848195812D8165
:100F80003E81822B932B95838483868197812F8149
:100F90003885822B932B978386838085918529853D
:100FA0003A85822B932B91878087828593852B8529
:100FB0003C85822B932B938782870894A11CB11CBC
:100FC0003324339401C03324B5E0AB16B1040CF4E0
:100FD000C2C3332009F0BFC3E2E07E1609F0B7C3F5
:100FE000B8C3222009F0A0C303C03324AA24BB2421
:100FF00089819A8188339105E9F48B819C81C89716
:1010000009F0E7C08D819E81C89709F0E2C08F8109
:101010009885892B09F0DDC089859A85892B09F08F
:10102000D8C08B859C85892B09F0D3C070FCD1C0BA
:101030007394CFC0892B09F0CCC08B819C81892B04
:1010400009F0C7C08D819E81892B09F0C2C0F5E0EF
:101050007F1611F47724BDC021E0721609F05DC03F
:101060001A8E198E4CE050E05C8F4B8F1E8E1D8EB9
:1010700066E070E078A36F8F1AA219A282E090E078
:101080009CA38BA39EA38DA318A61FA221E030E0F2
:101090003AA729A71CA61BA63EA72DA758AB4FA76A
:1010A0005AAB49AB1CAA1BAA7EAB6DAB18AE1FAAEC
:1010B0009AAF89AF1CAE1BAE1EAE1DAE21963FAFE0
:1010C0002EAF219723965FAF4EAF239725961FAE85
:1010D0001EAE259727965FAF4EAF279729961FAE76
:1010E0001EAE29972B961FAE1EAE2B972D967FAF67
:1010F0006EAF2D972F961FAE1EAE2F9761963FAF06
:101100002EAF619763961FAE1EAE639765963FAF95
:101110002EAF659782E0782E5CC083E0781609F0E8
:1011200058C02EE030E03A8F298F3C8F2B8F1E8ED7
:101130001D8E18A21F8E1AA219A23CA32BA31EA2B9
:101140001DA238A72FA33AA729A71CA61BA63EA716
:101150002DA718AA1FA61AAA19AA86E090E09CAB90
:101160008BAB9EAB8DAB98AF8FAB1AAE19AE1CAEEE
:101170001BAE1EAE1DAE21961FAE1EAE219723964E
:101180009FAF8EAF239725969FAF8EAF259727965B
:101190009FAF8EAF279729961FAE1EAE29972B962D
:1011A0001FAE1EAE2B972D961FAE1EAE2D972F96FF
:1011B0001FAE1EAE2F9761963FAF2EAF619763961D
:1011C0003FAF2EAF639765963FAF2EAF659704E0B4
:1011D000702E70FE08C070E0992410E0CC2400E06E
:1011E00060E0DD2453C294E0791609F01AC16696D6
:1011F0008FAD669767969FAD6797FC0120E030E062
:10120000992470E08081918180FF0CC08E7F918352
:1012100080832330310524F070E09924939402C038
:1012200071E099242F5F3F4F32962630310551F7F8
:1012300049815A81898D9A8D4817590731F52B813B
:101240003C818B8D9C8D28173907F9F42D813E81C7
:101250008D8D9E8D28173907C1F42F8138858F8D8C
:1012600098A12817390789F429853A8589A19AA177
:101270002817390751F410E02B853C858BA19CA1E0
:101280002817390719F411E001C010E08DA19EA1C3
:101290004817590739F52B813C818FA198A528174C
:1012A000390701F52D813E8189A59AA528173907AF
:1012B000C9F42F8138858BA59CA52817390791F48F
:1012C00029853A858DA59EA52817390759F4CC2480
:1012D0002B853C858FA598A92817390721F4CC24A4
:1012E000C39401C0CC2489A99AA94817590731F59C
:1012F0002B813C818BA99CA928173907F9F42D81F2
:101300003E818DA99EA928173907C1F42F81388500
:101310008FA998AD2817390789F429853A8589ADB1
:101320009AAD2817390751F400E02B853C858BAD29
:101330009CAD2817390719F401E001C000E08DAD1C
:101340009EAD4817590781F52B813C8121968EADC2
:101350009FAD21972817390739F52D813E812396B6
:101360008EAD9FAD239728173907F1F42F8138856B
:1013700025968EAD9FAD259728173907A9F42985A5
:101380003A8527968EAD9FAD27972817390761F4C8
:1013900060E02B853C8529968EAD9FAD2997281757
:1013A000390719F461E001C060E02B968EAD9FAD66
:1013B0002B974817590709F0D1C12B813C812D96F5
:1013C0008EAD9FAD2D972817390709F0C7C12D8124
:1013D0003E812F968EAD9FAD2F972817390709F0C4
:1013E000BDC12F81388561968EAD9FAD619728175D
:1013F000390709F0B3C129853A8563968EAD9FAD53
:1014000063972817390709F0A9C1DD242B853C858E
:1014100065968EAD9FAD65972817390709F048C1CD
:1014200045C1A2E07A1609F099C066968FAD66971D
:1014300067969FAD67977C01FE0179961DE3812E2B
:10144000912C8C0E9D1EDD2460E000E0CC2410E089
:101450004FEF70E050E0D7012D913C9121153105FF
:1014600009F463C02130310529F58081918101970C
:1014700011F4452F11E084859585019719F4452FC6
:10148000CC24C394808D918D019711F4452F01E0F8
:10149000D4018D919C91019711F4452F61E0D40105
:1014A0001C968D919C911D97019731F4452FDD2459
:1014B000D39402C0722F71702E7FD7012D933C936D
:1014C000808191812817390721F42115310509F010
:1014D00011E0848595852817390729F421153105F0
:1014E00011F0CC24C394808D918D2817390721F4F5
:1014F0002115310509F001E0D4018D919C91281747
:10150000390721F42115310509F061E0D4011C9659
:101510008D919C911D972817390721F4232B11F0E9
:10152000DD24D394713009F4452F82E090E0E80E79
:10153000F91E5F5F3296880E991E563009F08BCFE8
:10154000433010F471E008C04350433020F470E0A1
:1015500099249394ADC070E09924AAC066968FAD8B
:10156000669767969FAD67977C01E8E5F2E0AAE48D
:10157000B2E06996BFAFAEAF6997DD2460E000E0EE
:10158000CC2410E0992470E040E050E0B1E04B2E14
:10159000512CD7016C90962D9071262D2870362DE8
:1015A0003470A2E08A2E862065FE09C0992389F056
:1015B000DD2039F411821082DD24D39448C09923B0
:1015C00041F0222381F0662331F41182108261E020
:1015D0003EC0222341F0332389F0002331F41182ED
:1015E000108201E034C0332349F0882071F1CC200F
:1015F00039F411821082CC24C39429C0882029F1A7
:1016000080819181892B69F480918400909185007B
:101610006996AEADBFAD69978D939C935182408220
:1016200016C080918400909185006996AEADBFADE3
:1016300069972D913C91112351F40197821B930BD3
:101640008436910520F011E002C01182108260FE04
:1016500009C04330510524F070E09924939402C0EE
:1016600071E099244F5F5F4F82E090E0E80EF91E31
:1016700032966996AEADBFAD699712966996BFAFC7
:10168000AEAF69974630510509F083CFB1E07B16C4
:1016900019F411E001E00CC0E3E07E1619F411E04A
:1016A00061E006C0F5E07F1619F411E0DD24D39463
:1016B0008FEF80936802D794DD24D7946295660FEC
:1016C000607E6D29962A000F000F000F0929C29431
:1016D000CC0CCC0CE0ECCE22C02A1295107F1C2939
:1016E00010951093690286B190E041E050E09C01B2
:1016F0002427352721703070220F331F220F331F0C
:101700007295770F770F707C722B9695879584274B
:1017100095278170907024E0880F991F2A95E1F732
:10172000782B70957093680284E692E00E94D90B42
:10173000D4CA3324AA24BB2480CB8FEF80936802C1
:1017400080936902A114B10409F497CB98CB2224A9
:101750004FCCAA24BB2422242394E6CFDD24A8CF97
:101760001092470210924602880F8093BA0085E4D7
:101770008093BC0078940895882311F085EC01C013
:1017800085E88093BC000895282F30E070E088E061
:1017900090E0861B970BA90102C0440F551F8A9544
:1017A000E2F7CA0102C0359527956A95E2F7822BC8
:1017B0000895A6E4B1E0FC0186E001900D9281500D
:1017C000E1F708950F931F93182F092FA6E4B1E0B6
:1017D000FB0186E001900D928150E1F710923602F4
:1017E000812F902F9C01D9012AEF30E08D91F901D2
:1017F000EA5BFE4F80832F5F3F4F81E02030380748
:10180000A9F7DA0120E230E08D91F901EA5BFE4FA1
:1018100080832F5F3F4F26323105B1F745984498BA
:10182000109247021092460284EA8093BA0085E43F
:101830008093BC0078941F910F9108952F923F924E
:101840004F925F926F927F928F929F92AF92BF92D0
:10185000CF92DF92EF92FF920F931F93DF93CF937C
:10186000CDB7DEB768970FB6F894DEBF0FBECDBF19
:1018700048E6642E40E0742E882437E0232E312C75
:101880002C0E3D1E28E0422E512CCBC084918D930E
:101890003196A215B305D1F780E090E0FC01EA5D36
:1018A000FE4FE081F0E0EE56FF4FE491ADE0B0E096
:1018B000AC0FBD1FA80FB91FEC9301968A3091059C
:1018C00069F7AA88CF8429812A2530E04C2D4770FA
:1018D00050E09E88B988C201841B950BB90102C0F3
:1018E000660F771F8A95E2F7CB0102C035952795E1
:1018F0004A95E2F7822B89198B258F83EE84DD844C
:101900002A812E2530E04D2D477050E0AC89C20170
:10191000841B950BF90102C0EE0FFF1F8A95E2F7B9
:10192000CF0102C0359527954A95E2F7822B8A1997
:101930008A278887EB892B812E2730E00D89077055
:1019400010E0B201601B710BC901062E02C0880FA6
:10195000991F0A94E2F7002E02C0359527950A9444
:10196000E2F7822B8C198D2589872C812B2530E07D
:101970004A2F4770842F90E0988F8F8BD888C201B0
:101980004F89588D841B950BA90102C0440F551F28
:101990008A95E2F7CA010F8802C0359527950A9407
:1019A000E2F7822B8D198C258A878D81E826FF240A
:1019B000E770F0E0C2018E1B9F0B970102C0220F5F
:1019C000331F8A95E2F7C90102C0F594E794EA95BE
:1019D000E2F78E298D198B258B878E81A827B0E0A1
:1019E000AD0102C0440F551F6A95E2F7BA0102C06B
:1019F000B595A7950A95E2F76A2B6A1969256C8750
:101A0000C10160E371E046E050E00E94AE0F009734
:101A100061F0839466E070E0660E771E77E08716CB
:101A200021F0DE011196F30131CF282D30E02F5F38
:101A30003F4F522F442780913401FA01E80FF11DE6
:101A4000EE56FF4F94912F5F3F4F322F2227809108
:101A50002901F901E80FF11DEE56FF4FE491E92746
:101A6000E093360180913201FA01E80FF11DEE5644
:101A7000FF4F949180912B01F901E80FF11DEE5673
:101A8000FF4FE491E927E093370180913501FA0196
:101A9000E80FF11DEE56FF4F949180912D01F90151
:101AA000E80FF11DEE56FF4FE491E927E09338016E
:101AB00080913001FA01E80FF11DEE56FF4F94912D
:101AC00080912801F901E80FF11DEE56FF4FE491D6
:101AD000E927E093390180913101FA01E80FF11D06
:101AE000EE56FF4F949180912A01F901E80FF11D04
:101AF000EE56FF4FE491E927E0933A0180913301DC
:101B0000FA01E80FF11DEE56FF4F949180912F01DD
:101B1000F901E80FF11DEE56FF4FE491E927E0933C
:101B20003B0180912601FA01E80FF11DEE56FF4FAF
:101B3000949180912C01F901E80FF11DEE56FF4FB1
:101B4000E491E927E0933C0180912701FA01E80F35
:101B5000F11DEE56FF4F949180912E01F901E80F8F
:101B6000F11DEE56FF4FE491E927E0933D0180918E
:101B70003001FA01E80FF11DEE56FF4F949180916C
:101B80002701F901E80FF11DEE56FF4FE491E92717
:101B9000E0933E0180913501FA01E80FF11DEE5608
:101BA000FF4F949180912A01F901E80FF11DEE5643
:101BB000FF4FE491E927E0933F0180913301FA015F
:101BC000E80FF11DEE56FF4F949180912601F90127
:101BD000E80FF11DEE56FF4FE491E927E093400135
:101BE00080913201FA01E80FF11DEE56FF4F9491FA
:101BF00080912F01F901E80FF11DEE56FF4FE4919E
:101C0000E927E093410180913401FA01E80FF11DC9
:101C1000EE56FF4F949180912D01F901E80FF11DCF
:101C2000EE56FF4FE491E927E093420180913101A4
:101C3000FA01E80FF11DEE56FF4F949180912E01AD
:101C4000F901E80FF11DEE56FF4FE491E927E0930B
:101C5000430180912901FA01E80FF11DEE56FF4F73
:101C6000949180912B01F901E80FF11DEE56FF4F81
:101C7000E491E927E093440180912801480F511D28
:101C80004E565F4FFA01949180912C01280F311D1F
:101C90002E563F4FF901849189278093450168961C
:101CA0000FB6F894DEBF0FBECDBFCF91DF911F916D
:101CB0000F91FF90EF90DF90CF90BF90AF909F90EB
:101CC0008F907F906F905F904F903F902F900895EE
:101CD000982F80548630A0F420E430E049E450E0AE
:101CE000FA01E21BF30BD901AA5BBE4F8C91EA5DAE
:101CF000FE4F80832F5F3F4F2634310589F70895CB
:101D0000892F86548630C8F480918C0180932901F4
:101D100080918D018093280180918E01809327010D
:101D200080918F01809326018091900180933501ED
:101D300080919101809334010895892F8C548430CF
:101D4000C8F4809192018093330180919301809334
:101D500032018091940180933101809195018093AB
:101D60003001892F90E0860F911D8035910511F487
:101D70000E941E0C08951F920F920FB60F9211240D
:101D80002F933F934F935F936F937F938F939F9383
:101D9000AF93BF93EF93FF938091B90090E0887F5A
:101DA000907080399105E9F181399105D4F480373B
:101DB0009105A1F18137910544F48036910571F1C7
:101DC0008836910509F0B6C029C08038910549F1DF
:101DD0008838910509F4AEC08837910509F0AAC08A
:101DE0001DC0803B910509F46AC0813B91054CF40C
:101DF000803A910509F457C0883A910509F09AC0D4
:101E00005EC0803C910509F493C0883C910509F4BB
:101E10008FC0883B910509F08DC053C010924802D5
:101E200087C080914802882389F12091BB0080916E
:101E300036028A3A19F58091460290914702803F16
:101E40009105E1F0A0914602B0914702E09146026F
:101E5000F0914702E770F070E25CFE4F8081E09104
:101E60004602F0914702E770F070EA5CFE4F908105
:101E70008227890FAA5BBE4F8C934CC0E09146022B
:101E8000F0914702EA5BFE4F208344C08091BB0083
:101E900090E0909347028093460281E0809348024D
:101EA0001092490245C080914602909147022091CC
:101EB000490260914902821B0E94680E39C010924B
:101EC0004902809136028A3AE1F4E0914602F091AB
:101ED0004702EA5BFE4F8081E0914602F0914702A3
:101EE000E770F070EA5CFE4F2081E0914602F091CD
:101EF0004702E770F070E25CFE4F9081821B8927F9
:101F000007C0E0914602F0914702EA5BFE4F8081F4
:101F10008093BB0080914602909147020196909376
:101F2000470280934602809149028F5F8093490265
:101F300085EC01C085E88093BC00FF91EF91BF91D3
:101F4000AF919F918F917F916F915F914F913F9151
:101F50002F910F900FBE0F901F901895FB01DC0181
:101F600004C08D910190801921F441505040C8F770
:0A1F7000881B990B0895F894FFCF29
:101F7A000000A4200103000000000000000000008F
:101F8A000000000000000000000000000000000047
:061F9A0000000000000041
:00000001FF
