:107800000C94693C0C94863C0C94A13C0C94863CF2
:107810000C94863C0C94863C0C94863C0C94863CE0
:107820000C94863C0C94863C0C94863C0C94863CD0
:107830000C94863C0C94863C0C94863C0C94863CC0
:107840000C94863C0C94863C0C94863C0C94863CB0
:107850000C94863C0C94863C0C94863C0C94863CA0
:107860000C94863C0C94863C0403090410034800E5
:107870004900440042006F006F00740012011001C3
:1078800000000008C016DF05000100020001090227
:107890002200010100803209040000010300000001
:1078A000092101010001222100070581030800C808
:1078B0000600FF0901A101150026FF0075088501DA
:1078C00095060900B20201850295830900B2020102
:1078D000C00011241FBECFEFD4E0DEBFCDBF11E04A
:1078E000A0E0B1E0E8E5FFE702C005900D92AA3004
:1078F000B107D9F711E0AAE0B1E001C01D92AB33A6
:10790000B107E1F70E94B93D0C94AA3F0C94003CEA
:10791000A82FB92F80E090E041E050EA609530E078
:1079200009C02D9182279795879510F08427952778
:10793000305EC8F36F5FA8F30895EADF8D939D93DF
:107940000895CF93CFB7CF93DF93C3954C9BE9F7BF
:107950004C9B0BC04C9B09C04C9B07C04C9B05C06B
:107960004C9B03C04C9B01C08BC06F93C0911E0108
:10797000DD27CB5DDE4F2F9365E54C9B03C02F9138
:107980006F91E6CF0F931F934F9320E040E15F93F9
:1079900009B1087104FB27F93F9350E03BE039C07F
:1079A000187140642F77012F5F5F1EC0406819B1C6
:1079B00018712F7752501FC0406409B12F7708719A
:1079C000D1F15F5F00C023C0406219B12F771871F9
:1079D00091F15F5F00C025C008711027515012F46B
:1079E0005D5F0000115027952C3F19B1C8F6187142
:1079F0000127015027952C3FC8F64227499309B12A
:107A0000087110274F73115027952C3FA8F6469503
:107A1000469519B1187179F00127015027952C3F2F
:107A200098F66B5A60F3315009B1B0F600C012E01D
:107A30001CBB002719C03B503195C31BD04012E03E
:107A40001CBB0881033C09F10B34F9F020911C01A7
:107A50001981110F1213EDCF4A81441F093651F1DC
:107A60000D3211F0013E29F7009323013F915F9100
:107A70004F911F910F912F916F91CCB3C1FD65CFA5
:107A8000DF91CF91CFBFCF91189520912301222371
:107A900069F310912101112349F534304AF13093F3
:107AA000210120931D0110911E013BE0311B3093F9
:107AB0001E011EC0009121010130C4F40AE54F707F
:107AC000A9F43091000134FD14C000930001C1E11C
:107AD000D1E013C0052710E000C000000BB91AC0A8
:107AE000052710E0221F1DC010E021C04AE502C09A
:107AF00032ED432FC4E1D0E032E01AB118615C9A54
:107B00000BB11AB958E120E865E320FF05270BB94E
:107B1000279517951C3FF0F66695B8F7B1F720FF4B
:107B200005270BB9279517951C3FD0F62795179574
:107B300017FF052700001C3F0BB9B0F629913A95B5
:107B400019F7077E10912201110FC651D0400BB9D1
:107B500011F010931C0112E01CBB00611AB1177EDA
:107B6000402F477E54E05A95F1F70BB91AB94BB93B
:107B70007DCF2F923F924F925F926F927F928F9222
:107B80009F92AF92BF92CF92DF92EF92FF920F93AC
:107B90001F93DF93CF9300D000D0CDB7DEB791E035
:107BA00098B985E38A95F1F73099BCC195BF82E019
:107BB00085BF809169008C6080936900E99A549A2E
:107BC00020E040EA5FE0A895CA010197F1F7215053
:107BD000D1F754987894FF2400E06AE5E62E50EB44
:107BE000252E58E7352E4CE6642E48E7742E38E6ED
:107BF000432E38E7532E2EEEC22E2FEFD22E20EA40
:107C000038E7C20ED31E9CE7A92E98E7B92E82E072
:107C1000882E81E0982EA89590912101292F23503C
:107C200027FD1DC180911E014CE050E0481B510909
:107C30004B5D5E4F5C834B8380911D018D3209F05B
:107C4000AAC0283009F009C153EC50931101E09209
:107C5000000110920A01AB81BC812C91822F8076A9
:107C600011969C9111978823C9F0993071F412965E
:107C70008C91823031F410920D0127FD7BC09FEF73
:107C80007DC0B1E0B0930E015DC1913009F05AC1E1
:107C90009092200180921F0127E055C1EB81FC8169
:107CA000228110921A01992331F410921B018AE16A
:107CB00091E022E05AC0953019F42093220152C07D
:107CC000963009F03FC0AB81BC8113968C91813016
:107CD00031F4B0922001A0921F0122E12FC0823026
:107CE00031F4D0922001C0921F0122E227C08330DC
:107CF00091F4222331F45092200140921F0124E09C
:107D00001DC02130D1F02230C1F470922001609268
:107D10001F0120E113C0813241F4E0EAF8E7F0935B
:107D20002001E0931F0129E009C0823231F4309232
:107D3000200120921F0121E201C020E0F0E4F09335
:107D40000A0101C1983019F484E291E009C0993028
:107D500019F42093240106C09A3021F48AE191E0BD
:107D600021E003C08AE191E020E09093200180931C
:107D70001F01E9C0AB81BC8116969C9180E880937D
:107D80000A0106C0EB81FC819681921708F0922FC0
:107D90009093010162C080910A0187FF5EC040910B
:107DA0000B0150910C015A83498380910D01882366
:107DB00089F4AB81BC811196BC91B983EB81FC81C4
:107DC000F281FA832B813C812C5F3F4F3C832B83D4
:107DD000292F2750322F380F30930D0189818F774B
:107DE00059F4F89443E0E981FA8140935700E8950B
:107DF000789407B600FCFDCFF89449815A81AB8195
:107E0000BC818D919C9161E0FA010C016093570057
:107E1000E895112478943296FA83E98389818F77E3
:107E200051F4F89465E0FA0160935700E89578946E
:107E300007B600FCFDCF225031F08B819C81029669
:107E40009C838B83CBCFA981BA81B0930C01A09383
:107E50000B0137FF02C010920101109221018091A5
:107E6000000184FF4AC0809101018F3F09F445C0A1
:107E7000182F893008F018E0811B80930101809150
:107E8000110198E8892780931101112341F1209174
:107E90001F013091200180910A0186FF0DC0A2E1EF
:107EA000B1E080E090E0F901E80FF91FE491ED9373
:107EB00001961817C1F708C0D901912FE2E1F1E04E
:107EC0008D9181939150E1F71150812F90E01F5FC8
:107ED0000196820F931F9093200180931F0182E1EE
:107EE00091E0612F0E949D3C612F6C5F6C3019F016
:107EF0008FEF809301016093000194E189B1887153
:107F000031F49150D9F71092220110921C01809106
:107F10000E01882309F47FCEFA9409F07CCE01503B
:107F200009F079CEF89481E180935700E8951DBA65
:107F30001092690081E085BF15BEE0910F01F091BC
:107F40001001099520E0EB81FC818781882309F4E9
:087F500019CF1DCFF894FFCFFB
:0A7F58005AFF018000004000000005
:040000030000780081
:00000001FF
