:100000000C94A6050C94C3050C943D110C94C305E7
:100010000C94C3050C94C3050C94C3050C94C30540
:100020000C94C3050C94C3050C94C3050C94C30530
:100030000C94C3050C94C3050C94C3050C94C30520
:100040000C94C3050C94C3050C94C3050C94C30510
:100050000C94C3050C94C3050C94C3050C94C30500
:100060000C94D5160C94C30505010905A1011500D2
:100070002501350045017501950D05091901290D69
:1000800081029503810105012507463B0175049511
:100090000165140939814265009501810126FF003F
:1000A00046FF000930093109320935750895048188
:1000B00002C0040309041C034F00700065006E00B9
:1000C000430068006F00720064002E006F00720031
:1000D00067001403560031002000470075006900D6
:1000E0007400610072001201100100000008BA12D1
:1000F0000002000101020001090229000101008043
:10010000320904000002030000000921010100017E
:10011000224A000705810308000A07058303080037
:100120000AA877A6E0F7435A3585E272978FB71A87
:100130006287380D67C7BE4F3E2076378F68B7A9F4
:10014000263F2B10E3307E900E850A7051038640C7
:100150000D4FEB3ECCD18735BDF50B5ED0F8F2D517
:10016000E26C310CADFC21C378C106C24C55E64AA5
:100170003448111EDAE71A84A096A7E37FAF639C88
:10018000FA235B79C89EBAB2C922124BB3A1B63228
:1001900049A2E189391066C5078F54EA91CA3FF92F
:1001A00019F0D746BC281B61E82F6AAE9DF64E09B0
:1001B00014774DDB1F2E7B7CF143A300B8138C8595
:1001C000B9297588FDD2561C509741E53B60B5C0F2
:1001D00064EE98D62D25A4AACD7DA883C6ABBE44D7
:1001E00099263CCE9FBFD3CB767A7E82018A9A80B5
:1001F0001D0EB05CD43862F430E08E53B70257ACB9
:10020000A6520A6D9265172433457274B1B4F75D36
:10021000ED2CFF47375A90BBDF2A165995D9C427D2
:100220006773C768FEA5DD6B5F93D8EC053A8D6EEA
:10023000FB3DA96936F394DEEF156F8B9B080FDC4D
:1002400081182004E471CFE92B425801A0A962D69D
:100250003F85A7B6D4FA15661709BD5D1434265933
:10026000729154064FF8B05B7493998CF245CDEAC5
:100270004EAD104AE5CAEEDFC66F9F888E02CC08ED
:10028000A877946D21B128E4397996607181162E92
:10029000E678B9C4469A42AEB77C43B3221A86C206
:1002A000323D2D9CD229E9639BD131385E1E364107
:1002B000BB03182B3EBF6861FC52C0DEE00A581336
:1002C0005A00BE1C900E5312FDE26EBACE24274493
:1002D0007F87A3A1D55040E3F983F7C7A235C8DBD8
:1002E00019AB2F1125ED339E55E148AF7384DA2AFF
:1002F000AA51EB9D95B2CBE77080FE4C6504EFC52B
:10030000F1C33AB4F55F2389DD30A58BD3F6DC4D1C
:1003100064D7F08FEC56375CA40D07768A2C0BB5AA
:10032000D8C11FE83BF44B1B476C49677B92CF75E4
:100330007E20D97D3C977AD0056B0F1DFB829857A4
:100340008DF36ABCACC9A6FFB8690C4C4D72075A54
:1003500049338DA2AB463D630DA097FFF0F5FAC07F
:10036000E9DB62E4E17443DC86182937F406E2ED48
:100370006F90481E2D1DEA739454DF25F64727D948
:100380001177C9841C5B5C5181A6223E2496C88AE1
:10039000EC827C09B8454A57BB2F50758E61708C32
:1003A0006CAFD0FDB41BAEDEFE3BB536BD55010EC5
:1003B0009C41565FB3260383BA134BCAC50AF86043
:1003C000A5B9C7C39832FB12F9A792AA68F3787E41
:1003D00005202102E8BFF2B0598FD2CB876515F115
:1003E0001AB230ADEE58A38B661F2CD75D1985A8C5
:1003F000E6D36BA10C91936A5E0B79E3DD004F3C71
:10040000896E7169A9AC40E59928C6314E7ACD084C
:100410009E7DEF17FC88D8A46D4495D1B7D49BBEC0
:100420002A34642BCF2EEB38CE23E03A3FF77B9F64
:100430001053BC526716E7807604C4B6C1C27F9AD7
:10044000DAD53942149DB10F35D6CCB9DA380CA2C1
:100450009C091F06B1B6FD1A692330C4DE01D1F430
:100460005829371C7DD5BFFFBDC8C9CF65BE7B7875
:1004700097986708B32657F7FA40AD8E75A67CDBD0
:10048000918B5199D4177A908DCE63CB4EA0AB1837
:100490003A5B507F2174C1BBB8B7BA0B359531595F
:1004A0009A4D04071E5A7613F37183D08603A83938
:1004B00042AA28E6E4D85DD3D06E6F96FB5EBC56A8
:1004C000C25F859BE7AFD23B846AA753C54449A569
:1004D000F936723D2CD91BA1F54F939D6847411603
:1004E000CA2A4CA387D6E5192E77156D70C0DFB2E6
:1004F0000046EDC66C4360922DA922458F3455AE5F
:10050000A40A6632E0DC02ACE8208C89624AFEEE86
:10051000C3E33CF17905E9F62733CCF29E11817EE5
:1005200080108A829F480DD7B4FC2FB5C7DD881490
:100530006B2B54EA1D945CB0EF1224CDEBE1E26426
:10054000733F0E5261253EF80F4BECC00030F602AF
:10055000493D106E20C9A62FFE2C2B752E4526ABCB
:1005600048A980FC04CCD3B5BAA338317D01D9A702
:100570007B96B663694EF7DEE078CA50AA41916572
:1005800088E42185DA3A27BE1C3E425E17527F1F5F
:1005900089246F8F5C67740E12878DE934ED73C404
:1005A000F8615B05DF594C97798318A45595EBBD2D
:1005B00053F5F15766469FB2810951862216DD2315
:1005C000937629C2D71DD4BF363FEA4B1132B962A8
:1005D0005460D66D439A0D929CB0EF586C9D772D68
:1005E00070FAF3B30BE2407EF48AE58C3C5671D18D
:1005F00064E1820ACB131590EC0399AF145D0F33BD
:100600004A94A5A8351BE36AC628FF4DE72584ACAC
:1006100008AEC5A22AB8370C7AA0C3CEAD061A9E82
:100620008BFBD5D0C11ED0B49BB144F247C768CF75
:1006300072BB4F5AF9DC6BDBD2E87CC8EE98A1E6BE
:10064000D839075FFD8E19B73BBCCD7CE38173B20F
:1006500011BF6F2098FE7596EF6CDA50E109725465
:1006600045BA34805BED3E532C87A457F3333F3CAF
:10067000B767B4A325604F076B1B47150FE40AEA61
:10068000D1327836498D4BD2BCA5DC1D0D4DCD9AAB
:10069000825FFC9465BEE2F4C91E44CB9E0C64717B
:1006A0002663B314E840708A0E19426DAC88105C62
:1006B000DF41A9ADE5FB74CCD5068E5986CE1F3D32
:1006C00076E08FB977277BA6D829D3ECB813F7FA51
:1006D000C3516ADE4A5AEBC28B234892CF62A89973
:1006E000F8D02E856143C8BDF00593CA4EF17D3028
:1006F000FDC469662F08B152F921E67A2BDD3984F1
:10070000FFC091D637D47F2D9B5DA13B6EB5C5460A
:1007100004F590EE7E831C0356B6AA0017013555EA
:10072000790B12BB1A31E7022816C1F6A2DB189C1E
:1007300089683897ABC72AD73AF2C6244CB058A07C
:10074000225E9DD9A7E9AEAF8C959F28B720D7B080
:1007500030C30919C067D6003C7EE7E9F4085AF8AF
:10076000B82E05A6259E5CD8150DE1F611546BCD6B
:100770002146665E84AD06382944C5A2CEF1AAC1E1
:10078000407186B5EFFC36A8CB0A48274564A3AF75
:100790008CB2C69F0789DC17D34979FBFE1DD0B9FF
:1007A000884352BC01782B7D94C70EDEA5D59BCC27
:1007B000F7617AC274813903AB96A037BD2D72758B
:1007C0003FC9D48E6FF98DED62DB1CDF04AC1B6C6E
:1007D000144B63D0BFB482EC7B1A5992D21060B62E
:1007E0003D5FE6806E70C4F235D97CEEE541A45BD6
:1007F00050DDBB4CF31F9D5D57555197E358424D5B
:100800009C73BAC877316926AEEA8ADA22B3875672
:10081000FA930B341633E8E453BEA9B13A3EF5908F
:100820006ACF3B12FD8F9AA7479199EB0F24FF23C4
:1008300018854E7F0CE0A1D2D12C2A4A024F1E957A
:10084000688B98836D76CA6532132FC3829AA4BAD7
:100850008160373435FC80A8516567ED305F10D377
:100860004A272F13B92AD2CCE1EFAEEBBEF4BDCFAD
:1008700043B3C58884B7DD3940CE486D9B72617E35
:10088000E7A14E532E773BE2C936221B6E73B103AC
:10089000B24C87A9D44D0FD8156CAA18F649575DEC
:1008A000FB7A149463A011B09EDE0546C8EE47DBC8
:1008B000DC24899C919729E97BC1071EB8FDFEAC19
:1008C000C662984FF179E0E86B7856B68D04508691
:1008D000CA6F20E6EAE576171C747FBC0D2C85F7FD
:1008E0006696E48B753F4BD938AF7CDA0B832D319C
:1008F00032A2F51D594145BF3C1FF8F98AD0162593
:100900006912999D2195AB01A6D7B5C07DFF580E00
:100910003A92D155E3089FD63E528EFAA3C702CD34
:10092000DF8F64198CF3A70C5E0A6A09F0935B42AF
:10093000C20623EC71ADB4CBBB7028D51A5C33680A
:100940005A004490A5C4263D2BF25496ADDA1FED13
:1009500033E18169080D0ADB35779A64D1FC78AA06
:100960001BD067A0DDFA6C63710584176A894F6636
:100970007FC65055926FBDE7D240728DBBEC0642E8
:100980008AE4889D7E7A822713411AAFC8A476B480
:10099000C2FE6D1CD96130B37CEAF7290FF23B51DE
:1009A000C1DE5FE52A2F990B5DA32B4AAB95A5D33A
:1009B0005856EE283100CC1546CAE686383C65F517
:1009C000E39FD65B094983702D53A97DE2C4AC8EA9
:1009D0005EB825F4B957F3F16847B2A25920CE3476
:1009E000795C900E1EBED52223B1C91862162E91D5
:1009F0003E078FD83F933DD49BDF8521FB11749731
:100A0000C7D7DC4C194598E943024BBCC3049C6B27
:100A1000F07552A726F6C5BACFB0B7AE5AA1BF033C
:100A20008B80126E0CEBF9C04424EF10F8A88CE810
:100A30007BFF9E2CCD603687B594A654733A144E36
:100A4000011DB6FD37484D39CBE0320000000000F3
:100A50000000000000000000000000000000000096
:100A60000000000000000000000000000000000086
:100A70000000000000000000000000000000000076
:100A80000000000000000000000000000000000066
:100A90000000000000000000000000000000000056
:100AA0000000000000000000000000000000000046
:100AB0000000000000000000000000000000000036
:100AC0000000000000000000000000000000000026
:100AD0000000000000000000000000000000000016
:100AE0000000000000000000000000000000000006
:100AF00000000000000000000000000000000000F6
:100B000000000000000000000000000000000000E5
:100B100000000000000000000000000000000000D5
:100B200000000000000000000000000000000000C5
:100B300000000000000000000000000000000000B5
:100B400000000000000000000000000011241FBE93
:100B5000CFEFD4E0DEBFCDBF11E0A0E0B1E0E2E72F
:100B6000F1E302C005900D92A832B107D9F712E067
:100B7000A8E2B1E001C01D92AD39B107E1F70E94D2
:100B8000500C0C94B7180C9400000F931F93CF9344
:100B9000DF938C01FB01EA0120E030E091E0DB0112
:100BA0008C9180FF10C0233031053CF4D80116969B
:100BB0009C93169715961C9206C0D80115969C9387
:100BC000159716961C922F5F3F4F6E5F7F4F263012
:100BD000310529F7408151814E7F41155105D1F4EE
:100BE000828193818E7F892BA9F4848195818E7F68
:100BF000892B81F4868197818E7F892B59F480859A
:100C000091858E7F892B31F4828593858E7F892B08
:100C100009F463C2888199814817590761F5828177
:100C200093818E7F2A813B818217930721F58481EE
:100C300095818E7F2C813D8182179307E1F4868117
:100C400097818E7F2E813F8182179307A1F4808543
:100C500091858E7F288539858217930761F4828577
:100C600093858E7F2A853B858217930721F481E047
:100C7000F801808332C2DE011C968C859D85481761
:100C80005907A9F5828193818E7F12962D913C910F
:100C900013978217930759F5848195818E7F149657
:100CA0002D913C9115978217930709F586819781BD
:100CB0008E7F16962D913C91179782179307B9F462
:100CC000808591858E7F18962D913C91199782177A
:100CD000930769F4828593858E7F1A962D913C91B6
:100CE0001B978217930719F481E0D801F1C0DE0148
:100CF0005896888D998D48175907A9F58281938157
:100D00008E7F12962D913C9113978217930759F578
:100D1000848195818E7F14962D913C911597821731
:100D2000930709F5868197818E7F16962D913C91C8
:100D3000179782179307B9F4808591858E7F18964F
:100D40002D913C9119978217930769F482859385B9
:100D50008E7F1A962D913C911B978217930719F459
:100D600081E0F80176C1DE0194968CA19DA148171F
:100D70005907A9F5828193818E7F12962D913C911E
:100D800013978217930759F5848195818E7F149666
:100D90002D913C9115978217930709F586819781CC
:100DA0008E7F16962D913C91179782179307B9F471
:100DB000808591858E7F18962D913C911997821789
:100DC000930769F4828593858E7F1A962D913C91C5
:100DD0001B978217930719F481E0D8017CC1DE01CB
:100DE000D09688A999A948175907B1F582819381AE
:100DF0008E7F12962D913C9113978217930761F580
:100E0000848195818E7F14962D913C911597821740
:100E1000930711F5868197818E7F16962D913C91CF
:100E2000179782179307C1F4808591858E7F189656
:100E30002D913C9119978217930771F482859385C0
:100E40008E7F1A962D913C911B978217930721F460
:100E500081E0F801848341C1DE01DC968CAD9DAD5B
:100E600048175907C1F5828193818E7F12962D9183
:100E70003C9113978217930771F5848195818E7F3A
:100E800014962D913C9115978217930721F5868131
:100E900097818E7F16962D913C9117978217930715
:100EA000D1F4808591858E7F18962D913C9119976C
:100EB0008217930781F4828593858E7F1A962D91F0
:100EC0003C911B978217930731F481E0D8018C93F2
:100ED00011968C9302C1DE01A85BBF4F8D919C914E
:100EE000119748175907B1F5828193818E7F129629
:100EF0002D913C9113978217930761F58481958119
:100F00008E7F14962D913C9115978217930711F5BA
:100F1000868197818E7F16962D913C911797821727
:100F20009307C1F4808591858E7F18962D913C9111
:100F300019978217930771F4828593858E7F1A968D
:100F40002D913C911B978217930721F481E0F801C2
:100F500081837FC0DE01AC5ABF4F8D919C91119768
:100F600048175907C1F5828193818E7F12962D9182
:100F70003C9113978217930771F5848195818E7F39
:100F800014962D913C9115978217930721F5868130
:100F900097818E7F16962D913C9117978217930714
:100FA000D1F4808591858E7F18962D913C9119976B
:100FB0008217930781F4828593858E7F1A962D91EF
:100FC0003C911B978217930731F481E0D801129668
:100FD0008C93129780C0DE01A05ABF4F8D919C91D7
:100FE000119748175907B9F5828193818E7F129620
:100FF0002D913C9113978217930769F58481958110
:101000008E7F14962D913C9115978217930719F5B1
:10101000868197818E7F16962D913C911797821726
:101020009307C9F4808591858E7F18962D913C9108
:1010300019978217930779F4828593858E7F1A9684
:101040002D913C911B978217930729F481E0F801B9
:101050008083828342C0DE01A459BF4F8D919C9151
:10106000119748175907C9F5828193818E7F12968F
:101070002D913C9113978217930779F5848195817F
:101080008E7F14962D913C9115978217930729F521
:10109000868197818E7F16962D913C9117978217A6
:1010A0009307D9F4808591858E7F18962D913C9178
:1010B00019978217930789F4828593858E7F1A96F4
:1010C0002D913C911B978217930739F481E0D80149
:1010D00011968C93119713968C93DF91CF911F915A
:1010E0000F910895EF92FF920F931F93CF93DF9389
:1010F000DC01FB0115961C92159716961C9216970B
:10110000808180FF04C081E016968C9316977F0142
:10111000FA01BA016C5D7F4F4FEF00E050E011E043
:10112000E70188819981009709F47BC0813091059E
:10113000C9F580819181019711F41C93452FE70136
:1011400028813981848595852817390721F41196DE
:101150001C931197452FE70128813981808D918D4E
:101160002817390721F412961C931297452FE7018F
:1011700028813981EB01888199812817390721F469
:1011800013961C931397452FE70128813981EB01B2
:101190008C859D852817390739F414961C9314976C
:1011A000452F02C0082F0170E701288139812E7F69
:1011B000808191812817390721F42115310509F023
:1011C0001C93848595852817390731F4211531053D
:1011D00019F011961C931197808D918D281739075E
:1011E00031F42115310519F012961C931297EB0179
:1011F000888199812817390731F42115310519F0B3
:1012000013961C931397EB018C859D85281739073E
:1012100029F4232B19F014961C931497013009F428
:10122000452F82E090E0E80EF91E5F5F32966E5F18
:101230007F4F563009F074CF433020F481E016968A
:101240008C930BC04350433040F416968C91169704
:10125000813019F081E015968C93DF91CF911F9129
:101260000F91FF90EF900895AF92BF92CF92DF92CF
:10127000FF920F931F93CF93DF93FC015B01D80183
:10128000890160E070E0FF24F39481E0C82ED12C46
:10129000E5018881998102971CF081858F5F8187A4
:1012A000E5018881982F9071282F2870382F34708D
:1012B000482F427085FF07C0992371F084818823ED
:1012C00021F4F48240C0992339F0222371F0838104
:1012D000882321F4F38237C0222339F0332371F0BD
:1012E0008281882321F4F2822EC0332339F04423F3
:1012F00051F18181882321F4F18225C0442319F121
:101300008D919C911197892B59F480918400909133
:101310008500E801998388831196DC92CE9216C0ED
:101320002091840030918500E801488159818081B5
:10133000882361F421503040241B350B24363105BD
:1013400028F0F08203C011961C921E92E50188815C
:1013500080FF08C0633071051CF4F682158202C05C
:10136000F58216826F5F7F4F82E090E0A80EB91E73
:1013700012960E5F1F4F6630710509F089CF818587
:10138000863048F58381882359F08281882341F093
:101390008181882329F08081882311F012821082B4
:1013A0008481882331F08381882319F0828181111F
:1013B00013828381882331F08281882319F081810F
:1013C000811112828281882331F08181882319F072
:1013D000808181111182DF91CF911F910F91FF9038
:1013E000DF90CF90BF90AF900895EF92FF920F9350
:1013F0001F93243019F40E94C50509C0223019F446
:101400000E94720804C0980187010E9434091F914C
:101410000F91FF90EF900895FC016130710521F468
:1014200081E08383828308956330710521F481E034
:101430008383848308956530710519F481E0828384
:1014400084830895AF92BF92CF92DF92EF92FF9282
:101450000F93CF93DF93FC01DB01B90195018D91CF
:101460009C911197009719F481E0808334C08130FA
:10147000910511F481E015C08230910511F481E0ED
:1014800023C08330910511F481E024C0843091059C
:1014900019F481E084831FC08530910521F481E037
:1014A0008083818318C08630910519F481E081839F
:1014B0000BC08730910519F481E082830BC088301E
:1014C000910521F481E08083828305C0099719F496
:1014D00081E0818383838781882309F1E601888104
:1014E000882359F48091840090918500E9019983C3
:1014F000888381E0E601888310C080918400909108
:101500008500E90128813981821B930B885E934015
:1015100040F48091840090918500178202C0E6011A
:1015200018828781882309F4F7C0F7018081882316
:1015300009F0F4C0043009F060C08D919C911197BE
:10154000FC01EE0FFF1FE80FF91FEE0FFF1FEE0F5C
:10155000FF1FE40FF51F118210828D919C9111974E
:10156000FC01EE0FFF1FE80FF91FEE0FFF1FEE0F3C
:10157000FF1FE40FF51F138212828D919C9111972A
:10158000FC01EE0FFF1FE80FF91FEE0FFF1FEE0F1C
:10159000FF1FE40FF51F158214828D919C91119706
:1015A000FC01EE0FFF1FE80FF91FEE0FFF1FEE0FFC
:1015B000FF1FE40FF51F178216828D919C911197E2
:1015C000FC01EE0FFF1FE80FF91FEE0FFF1FEE0FDC
:1015D000FF1FE40FF51F118610868D919C911197C6
:1015E000FC01EE0FFF1FE80FF91FEE0FFF1FEE0FBC
:1015F000FF1FE40FF51F138612868D919C911197A2
:10160000FC01EE0FFF1FE80FF91FEE0FFF1FEE0F9B
:10161000FF1FE40FF51F80819181EB012881398143
:10162000822B932B918380838D919C911197FC0148
:10163000EE0FFF1FE80FF91FEE0FFF1FEE0FFF1F4A
:10164000E40FF51F828193812A813B81822B932BAA
:10165000938382838D919C911197FC01EE0FFF1F64
:10166000E80FF91FEE0FFF1FEE0FFF1FE40FF51F2E
:10167000848195812C813D81822B932B958384835A
:101680008D919C911197FC01EE0FFF1FE80FF91F40
:10169000EE0FFF1FEE0FFF1FE40FF51F86819781EE
:1016A0002E813F81822B932B978386838D919C91F2
:1016B0001197FC01EE0FFF1FE80FF91FEE0FFF1F40
:1016C000EE0FFF1FE40FF51F808591852885398572
:1016D000822B932B918780878D919C911197FC0190
:1016E000EE0FFF1FE80FF91FEE0FFF1FEE0FFF1F9A
:1016F000E40FF51F828593852A853B85822B932BEA
:101700009387828781E0F70180838D919C91119767
:1017100001968D939C9302C0E7011882DF91CF91CF
:101720000F91FF90EF90DF90CF90BF90AF90089512
:101730002198299A22982A9A23982B9A24982C9AAD
:1017400025982D9A3898409A3998419A3A98429A11
:10175000579A5F9A569A5E9A559A5D9A529A5A9AF1
:10176000519A599A509A589A0895E4E6F0E0808187
:10177000877F8083E0E8F0E080818F7780838081BD
:101780008F7B808380818F7D808380818F7E80832B
:1017900080818D7F808380818E7F8083E1E8F0E08F
:1017A0008081877F808380818F7E80838081846039
:1017B000808380818D7F8083808181608083089594
:1017C0009C01F999FECF32BD21BDF89A80B50895EC
:1017D0009C01F999FECF1FBA32BD21BD60BD0FB685
:1017E000F894FA9AF99A0FBE08951F93CF93DF9356
:1017F0009BB121E030E002C0220F331F8A95E2F74F
:10180000122F822F809589238BB984E190E000000C
:1018100001972FEF8F3F9207D1F783B183B183B147
:1018200083B181FD03C0C2E0D0E002C0C0E0D0E0DF
:1018300082FD03C0A4E0B0E002C0A0E0B0E083FD00
:1018400003C0E8E0F0E002C0E0E0F0E084FD03C0A7
:1018500060E170E002C060E070E085FD03C040E23E
:1018600050E002C040E050E026B130E036952795C8
:101870003695279520953095217030702C2B3D2B77
:101880002A2B3B2B2E2B3F2B262B372B8BB1182BA8
:101890001BB9242B352BC901DF91CF911F910895DE
:1018A0002F923F924F925F926F927F928F929F9270
:1018B000AF92BF92CF92DF92EF92FF920F931F935E
:1018C000DF93CF93CDB7DEB7C754D1400FB6F894AE
:1018D000DEBF0FBECDBF0E94980B0E94B50B0E94C9
:1018E00007110E9421188CE09E012E5E3F4FD90106
:1018F000E82F1D92EA95E9F7AE01425E5F4FDA01EB
:10190000E82F1D92EA95E9F7FE01BA96DF01982FBC
:101910001D929A95E9F7BE016E5B7F4FDB011D9228
:101920008A95E9F71C821B8219821A821E821D8207
:101930001B861A86198618861F821C861D861E869F
:101940001F86188A198A44245524C05CDE4FE88318
:10195000C054D140CF5BDE4FF883C154D140DB018E
:10196000CE5BDE4F6883C254D140CD5BDE4FB8837F
:10197000C354D140E6E3F0E0EC0FFD1F3E96C25C9D
:10198000DE4FF983E883CE53D14096EC892E912C1B
:101990008C0E9D1E8EE0282E312C0EE4602E712CB4
:1019A0006C0E7D1ECC5BDE4F2883C454D140CB5BD4
:1019B000DE4F3883C554D140CA5BDE4F4883C654DE
:1019C000D140C95BDE4F5883C754D14087E090E0D7
:1019D0000E94F50B9FAB8EAB86E090E00E94F50B6A
:1019E00099AF88AF85E090E00E94F50B9BAF8AAF7E
:1019F00082E090E00E94F50B9DAF8CAF81E090E01B
:101A00000E94F50B9FAF8EAF80E090E00E94F50B37
:101A100022969FAF8EAF22979E012A5C3F4FC05CFB
:101A2000DE4F8881C054D140CF5BDE4F9881C154D6
:101A3000D140BC01CE5BDE4F8881C254D140CD5B2A
:101A4000DE4F9881C354D140FC01D9014D915C9186
:101A5000DB018D919C914817590719F4118210826E
:101A600005C08081918101969183808380819181DD
:101A70000F972CF0DB014D935C93118210822E5F47
:101A80003F4F6E5F7F4F3296C25CDE4F88819981F7
:101A9000CE53D14028173907C1F61B861A861986FE
:101AA00018861F821C861D86188A198A86B190E0C6
:101AB00041E050E09C012427352721702E87969520
:101AC00087958427952781708F878AA59BA5809706
:101AD00009F022C18CA59DA5892B09F01DC18EA5F9
:101AE0009FA5809709F018C188A999A9892B09F0A9
:101AF00013C18AA99BA9809709F00EC18CA99DA941
:101B0000892B09F009C1D40111961C921E92ECE0B8
:101B1000F0E01396FC93EE93129715961C921E928A
:101B2000149706E010E017961C930E9316971996DB
:101B30001C921E92189782E090E01B969C938E93C5
:101B40001A971D969C938E931C971F961C921E921B
:101B50001E9751965C934E93509753961C921E92EB
:101B6000529755965C934E9354975796FC93EE93E9
:101B700056975996FC93EE9358975B961C921E923B
:101B80005A975D961C930E935C975F961C921E92DB
:101B90005E9791969C938E93909793961C921E922B
:101BA000929795961C921E92949797965C934E935B
:101BB00096979996FC93EE9398979B961C921E92FB
:101BC0009A979D96FC93EE939C979F961C921E92DB
:101BD0009E97D1961C921E92D097D3961C930E93EB
:101BE000D297D5961C921E92D497D7965C934E931B
:101BF000D697D9961C921E92D897DB965C934E93FB
:101C0000DA9780E090E0B4014CE350E028EE3BE04E
:101C10000E946418D40111963C922E9213963C9225
:101C20002E92129715961C921E92149717961C923C
:101C30001E92169719961C921E9218971B963C920C
:101C40002E921A971D961C921E921C971F963C92DC
:101C50002E921E9751963C922E92509753961C921C
:101C60001E92529755963C922E92549757961C92DC
:101C70001E92569759961C921E9258975B961C93EB
:101C80000E935A975D961C930E935C975F961C93E8
:101C90000E935E9791961C921E92909793961C922B
:101CA0001E92929795961C921E92949797961C92CC
:101CB0001E92969799961C930E9398979B961C93B9
:101CC0000E939A979D961C930E939C979F961C92A9
:101CD0001E929E97D1961C921E92D097D3961C92DC
:101CE0001E92D297D5961C921E92D497D7963C926C
:101CF0002E92D697D9963C922E92D897DB963C920C
:101D00002E92DA9788E790E0B40148E750E028EE99
:101D10003BE00E94641855242AA53BA520323105DA
:101D2000B1F48CA59DA5892B91F48EA59FA5892B37
:101D300071F488A999A9892B51F48AA99BA9892BA7
:101D400031F48CA99DA9809711F4B1E0B98BE2E040
:101D50005E1621F0F4E05F1609F0F1C0442009F0AE
:101D60009EC02032310509F097C08CA59DA58097B3
:101D700009F092C08EA59FA5809709F08DC088A913
:101D800099A9892B09F088C08AA99BA9892B09F0F8
:101D900083C08CA99DA9892B09F07EC082E05816CA
:101DA00009F078C0D30111961C921E9213961C92D2
:101DB0001E92129715961C921E92149717961C92BB
:101DC0001E92169719961C921E9218971B961C929B
:101DD0001E921A971D961C921E921C971F961C927B
:101DE0001E921E9751961C921E92509753961C92CB
:101DF0001E92529755961C921E92549757961C927B
:101E00001E92569759961C921E9258975B961C925A
:101E10001E925A975D961C921E925C975F961C923A
:101E20001E925E9791961C921E92909793961C928A
:101E30001E92929795961C921E92949797961C923A
:101E40001E92969799961C921E9298979B961C921A
:101E50001E929A979D961C921E929C979F961C92FA
:101E60001E929E97D1961C921E92D097D3961C924A
:101E70001E92D297D5961C921E92D497D7961C92FA
:101E80001E92D697D9961C921E92D897DB961C92DA
:101E90001E92DA97442443941C821B821982B1E07B
:101EA0004B1609F04CC0232B09F0F5C08CA59DA55D
:101EB000809709F0F0C08EA59FA5809709F0EBC030
:101EC00088A999A9809709F0E6C08AA99BA9892BBE
:101ED00009F0E1C08CA99DA9892B09F0DCC0E2E0E2
:101EE0005E1631F480E090E0B3014CE350E022C094
:101EF000F4E05F1639F519C08B819C8105970CF4CD
:101F0000AFC08981882309F0ABC01C821B82A8C0A6
:101F100024E0521609F0A4C08B819C810A970CF42E
:101F20009FC08981882309F09BC088E790E0B301B6
:101F300048E750E028EE3BE00E94641803C04420CC
:101F400009F08EC08AA59BA5892B09F05BC08CA5E2
:101F50009DA5892B09F056C02EA53FA52115310559
:101F600071F488A999A9892B51F48AA99BA9892B75
:101F700031F48CA99DA9809711F481E08F872032DC
:101F8000310581F488A999A98097E1F58AA99BA9CF
:101F90008097C1F58CA99DA9892BA1F550FC32C071
:101FA000539430C0232B71F588A999A9892B51F539
:101FB0008AA99BA9892B31F58CA99DA9892B11F59B
:101FC00095E0591611F455241DC0A1E05A1661F48C
:101FD000C30160E070E04CE350E020EE3BE00E9483
:101FE0004818B2E05B2E0EC0B3E05B1659F4C30193
:101FF00068E770E048E750E020EE3BE00E944818B8
:10200000A4E05A2E652D50FC25C0CE010796C05C79
:10201000DE4F6881C054D140CF5BDE4F7881C15420
:10202000D140A301252DCC5BDE4F0881C454D140A3
:10203000CB5BDE4F1881C554D140CA5BDE4FE880D0
:10204000C654D140C95BDE4FF880C754D1400E94CE
:10205000F50905C0CE01079670E00E940C0A4424E1
:10206000EF80F88409851A852B853C854D855E8532
:102070006F85788989890E949510EF80F884098599
:102080001A852B853C854D855E856F857889898984
:102090000E94C9179BCCCE010796BE016D5F7F4F92
:1020A000A301C05CDE4F2881C054D140CF5BDE4F1E
:1020B0003881C154D140052D7E010894E11CF11CEA
:1020C000F2E0CF2ED12CCC0EDD1EE5E0AE2EB12CF1
:1020D000AC0EBD1E0E94220A1E86E2E05E1609F0CA
:1020E00017CF0ACFFC01808180768032E1F48181B4
:1020F000813041F48EE492E09093700280936F02FD
:1021000087E00895823041F488E291E09093700274
:1021100080936F0281E008958A3029F4838180934F
:10212000280180E0089580E00895EF92FF920F93D8
:102130001F93DF93CF93CDB7DEB72B970FB6F894ED
:10214000DEBF0FBECDBF9E2DE982BF2DFA82F02FDC
:102150000B83012F1C83E22F2D83132F3E83A42F8B
:102160004F83352F5887262F69877A878B87482F8B
:1021700010924F0288E08093500280E880935102D1
:10218000809352028093530210925402E295E07FB2
:10219000E02BBB0FBB0FFF0FFF0FFF0FFB2B990FA8
:1021A0009F2B9E2B90934E02112311F01092500200
:1021B000AA2319F084E080935002330F80914F02DC
:1021C000382B2295220F207E80914E02822B809305
:1021D0004E024295407F342B30934F02A8950E94C7
:1021E0007A128091600284FF05C08EE492E067E07D
:1021F0000E94A8132B960FB6F894DEBF0FBECDBF7A
:10220000CF91DF911F910F91FF90EF9008952EE0F5
:1022100088E190E00FB6F894A895809360000FBE17
:10222000209360000E946912549A20E040EA5FE027
:1022300004C0A895CA010197F1F72150D1F754982D
:1022400078940E947A120895A82FB92F80E090E028
:1022500041E050EA609530E009C02D9182279795C2
:10226000879510F084279527305EC8F36F5FA8F339
:102270000895EADF8D939D930895CF93CFB7CF93C1
:10228000DF93C3954C9BE9F74C9B0BC04C9B09C05B
:102290004C9B07C04C9B05C04C9B03C04C9B01C092
:1022A0008BC06F93C0916E02DD27CB58DD4F2F930B
:1022B00065E54C9B03C02F916F91E6CF0F931F9361
:1022C0004F9320E040E15F9309B1087104FB27F9C7
:1022D0003F9350E03BE039C0187140642F77012FE5
:1022E0005F5F1EC0406819B118712F7752501FC030
:1022F000406409B12F770871D1F15F5F00C023C03E
:10230000406219B12F77187191F15F5F00C025C04D
:1023100008711027515012F45D5F0000115027958D
:102320002C3F19B1C8F618710127015027952C3F91
:10233000C8F64227499309B1087110274F7311500D
:1023400027952C3FA8F64695469519B1187179F056
:102350000127015027952C3F98F66B5A60F33150B6
:1023600009B1B0F600C012E01CBB002719C03B50F9
:102370003195C31BD04012E01CBB0881033C09F11E
:102380000B34F9F020916C021981110F1213EDCF6B
:102390004A81441F093651F10D3211F0013E29F7EF
:1023A000009373023F915F914F911F910F912F9175
:1023B0006F91CCB3C1FD65CFDF91CF91CFBFCF91EE
:1023C000189520917302222369F310917102112351
:1023D000E9F53430EAF13093710220936D021091E7
:1023E0006E023BE0311B30936E0232C000917102ED
:1023F000013064F50AE54F7049F43091000134FD75
:1024000028C000930001C5E5D2E027C0413549F05E
:102410003091600234FD1DC000936002C1E6D2E03D
:102420001CC030918B0234FD14C000938B02CCE8A9
:10243000D2E013C0052710E000C000000BB91AC09D
:10244000052710E0221F1DC010E021C04AE502C090
:1024500032ED432FC4E1D0E032E01AB118615C9A4A
:102460000BB11AB958E120E865E320FF05270BB945
:10247000279517951C3FF0F66695B8F7B1F720FF42
:1024800005270BB9279517951C3FD0F6279517956B
:1024900017FF052700001C3F0BB9B0F629913A95AC
:1024A00019F7077E10917202110FC651D0400BB977
:1024B00011F010936C0212E01CBB00611AB1177E80
:1024C000402F477E54E05A95F1F70BB91AB94BB932
:1024D00069CFE9E6F0E080818C608083E99A8BE443
:1024E0008093610280938C028AE5809360028093DE
:1024F0008B0208951F93CF93DF93909171029350B5
:1025000097FDA8C020916E0280916D028D3209F076
:102510009FC0983009F09CC0CCE0D0E0C21BD1092C
:10252000CB58DD4F83EC809355028AE58093000100
:10253000109229018881807629F0CE010E947210C4
:10254000282F7DC09A8110925E028981882321F410
:1025500010925F0222E06DC0853019F490937202F0
:1025600067C0863009F04EC08B81813041F486EE21
:1025700090E09093700280936F0222E13FC082301E
:1025800041F488EF90E09093700280936F0229E20B
:1025900035C08330F1F4992341F482EB90E09093BD
:1025A000700280936F0224E029C0913041F486EBE1
:1025B00090E09093700280936F022CE11FC09230E4
:1025C000E1F482ED90E09093700280936F0224E139
:1025D00015C0813241F48AE091E0909370028093BB
:1025E0006F0229E00BC0823241F488E690E09093BC
:1025F000700280936F022AE401C020E080E480939F
:1026000029011DC0883021F421E084E792E013C045
:10261000893019F4909374020BC08A3011F421E0D0
:1026200008C08B3029F48BE48093610280938C0284
:1026300020E08EE592E09093700280936F028F818C
:10264000882321F48E81821708F4282F209301011A
:10265000109271028091000184FF4AC080910101B3
:102660008F3F09F445C0182F893008F018E0811B0E
:10267000809301018091550298E889278093550243
:10268000112341F120916F02309170028091290154
:1026900086FF0DC0A6E5B2E080E090E0F901E80F0A
:1026A000F91FE491ED9301961817C1F708C0912F17
:1026B000D901E6E5F2E08D9181939150E1F7115057
:1026C000812F90E01F5F0196820F931F90937002FD
:1026D00080936F0286E592E0612F0E943911612F8D
:1026E0006C5F6C3019F08FEF8093010160930001F3
:1026F00094E189B1887131F49150D9F71092720246
:1027000010926C02DF91CF911F9108951F93DC010D
:10271000162F80918B0284FF07C080918C0298E86D
:10272000892780938C0203C08AE580938B02912FC6
:10273000EDE8F2E08D9181939150E1F78DE892E020
:10274000612F0E9439111C5F10938B021F91089515
:102750001F93DC01162F8091600284FF07C08091D7
:10276000610298E889278093610203C08AE580931B
:102770006002912FE2E6F2E08D9181939150E1F7B2
:1027800082E692E0612F0E9439111C5F1093600273
:102790001F91089510924B0210924A02880F809365
:1027A000BA0085E48093BC0078940895882311F0E2
:1027B00085EC01C085E88093BC000895282F30E0A7
:1027C00070E088E090E0861B970BA90102C0440FDF
:1027D000551F8A95E2F7CA0102C0359527956A957B
:1027E000E2F7822B0895AAE4B1E0FC0186E00190B3
:1027F0000D928150E1F708950F931F93182F092F21
:10280000AAE4B1E0FB0186E001900D928150E1F76E
:1028100010923A02812F902F9C01D9012AEF30E0CB
:102820008D91F901E65BFE4F80832F5F3F4F81E082
:1028300020303807A9F7DA0120E230E08D91F90164
:10284000E65BFE4F80832F5F3F4F26323105B1F7A5
:102850004598449810924B0210924A0284EA809361
:10286000BA0085E48093BC0078941F910F9108957D
:102870002F923F924F925F926F927F928F929F9290
:10288000AF92BF92CF92DF92EF92FF920F931F937E
:10289000DF93CF93CDB7DEB768970FB6F894DEBF5E
:1028A0000FBECDBF41E2642E41E0742E882437E094
:1028B000232E312C2C0E3D1E28E0422E512CCBC055
:1028C00084918D933196A215B305D1F780E090E005
:1028D000FC01E65DFE4FE081F0E0E55BFE4FE49138
:1028E000ADE0B0E0AC0FBD1FA80FB91FEC9301968F
:1028F0008A30910569F7AA88CF8429812A2530E09A
:102900004C2D477050E09E88B988C201841B950BFE
:10291000B90102C0660F771F8A95E2F7CB0102C0AA
:10292000359527954A95E2F7822B89198B258F8358
:10293000EE84DD842A812E2530E04D2D477050E055
:10294000AC89C201841B950BF90102C0EE0FFF1F79
:102950008A95E2F7CF0102C0359527954A95E2F7AF
:10296000822B8A198A278887EB892B812E2730E0D2
:102970000D89077010E0B201601B710BC901062EB2
:1029800002C0880F991F0A94E2F7002E02C0359505
:1029900027950A94E2F7822B8C198D2589872C8143
:1029A0002B2530E04A2F4770842F90E0988F8F8B33
:1029B000D888C2014F89588D841B950BA90102C08C
:1029C000440F551F8A95E2F7CA010F8802C035955A
:1029D00027950A94E2F7822B8D198C258A878D81A1
:1029E000E826FF24E770F0E0C2018E1B9F0B9701E1
:1029F00002C0220F331F8A95E2F7C90102C0F59485
:102A0000E794EA95E2F78E298D198B258B878E81C5
:102A1000A827B0E0AD0102C0440F551F6A95E2F748
:102A2000BA0102C0B595A7950A95E2F76A2B6A1913
:102A300069256C87C10164E371E046E050E00E94C3
:102A40003B18009761F0839466E070E0660E771E95
:102A500077E0871621F0DE011196F30131CF282DA2
:102A600030E02F5F3F4F522F442780913801FA0109
:102A7000E80FF11DE55BFE4F94912F5F3F4F322F22
:102A8000222780912D01F901E80FF11DE55BFE4F32
:102A9000E491E927E0933A0180913601FA01E80FC9
:102AA000F11DE55BFE4F949180912F01F901E80F34
:102AB000F11DE55BFE4FE491E927E0933B01809136
:102AC0003901FA01E80FF11DE55BFE4F9491809109
:102AD0003101F901E80FF11DE55BFE4FE491E927B3
:102AE000E0933C0180913401FA01E80FF11DE55BB0
:102AF000FE4F949180912C01F901E80FF11DE55BE7
:102B0000FE4FE491E927E0933D0180913501FA0100
:102B1000E80FF11DE55BFE4F949180912E01F901C4
:102B2000E80FF11DE55BFE4FE491E927E0933E01DC
:102B300080913701FA01E80FF11DE55BFE4F94919A
:102B400080913301F901E80FF11DE55BFE4FE4913F
:102B5000E927E0933F0180912A01FA01E80FF11D76
:102B6000E55BFE4F949180913001F901E80FF11D72
:102B7000E55BFE4FE491E927E093400180912B0152
:102B8000FA01E80FF11DE55BFE4F9491809132014F
:102B9000F901E80FF11DE55BFE4FE491E927E093B1
:102BA000410180913401FA01E80FF11DE55BFE4F10
:102BB000949180912B01F901E80FF11DE55BFE4F27
:102BC000E491E927E093420180913901FA01E80F8D
:102BD000F11DE55BFE4F949180912E01F901E80F04
:102BE000F11DE55BFE4FE491E927E09343018091FD
:102BF0003701FA01E80FF11DE55BFE4F94918091DA
:102C00002A01F901E80FF11DE55BFE4FE491E92788
:102C1000E093440180913601FA01E80FF11DE55B74
:102C2000FE4F949180913301F901E80FF11DE55BAE
:102C3000FE4FE491E927E093450180913801FA01C4
:102C4000E80FF11DE55BFE4F949180913101F90190
:102C5000E80FF11DE55BFE4FE491E927E0934601A3
:102C600080913501FA01E80FF11DE55BFE4F94916B
:102C700080913201F901E80FF11DE55BFE4FE4910F
:102C8000E927E093470180912D01FA01E80FF11D3A
:102C9000E55BFE4F949180912F01F901E80FF11D42
:102CA000E55BFE4FE491E927E093480180912C0118
:102CB000480F511D455B5E4FFA01949180913001A0
:102CC000280F311D255B3E4FF901849189278093A0
:102CD000490168960FB6F894DEBF0FBECDBFCF9105
:102CE000DF911F910F91FF90EF90DF90CF90BF90F9
:102CF000AF909F908F907F906F905F904F903F909C
:102D00002F900895982F80548630A0F420E430E06E
:102D100049E450E0FA01E21BF30BD901A65BBE4F78
:102D20008C91E65DFE4F80832F5F3F4F2634310547
:102D300089F70895892F86548630C8F480919001D0
:102D400080932D018091910180932C0180919201BB
:102D500080932B018091930180932A0180919401AB
:102D60008093390180919501809338010895892FCE
:102D70008C548430C8F480919601809337018091FF
:102D8000970180933601809198018093350180915D
:102D9000990180933401892F90E0860F911D803531
:102DA000910511F40E94381408951F920F920FB6E6
:102DB0000F9211242F933F934F935F936F937F93C1
:102DC0008F939F93AF93BF93EF93FF938091B9003D
:102DD00090E0887F907080399105E9F18139910503
:102DE000D4F480379105A1F18137910544F4803600
:102DF000910571F18836910509F0B6C029C0803877
:102E0000910549F18838910509F4AEC088379105DC
:102E100009F0AAC01DC0803B910509F46AC0813B3E
:102E200091054CF4803A910509F457C0883A910510
:102E300009F09AC05EC0803C910509F493C0883CBB
:102E4000910509F48FC0883B910509F08DC053C0EE
:102E500010924C0287C080914C02882389F1209106
:102E6000BB0080913A028A3A19F580914A0290910A
:102E70004B02803F9105E1F0A0914A02B0914B02D4
:102E8000E0914A02F0914B02E770F070EE5BFE4F6A
:102E90008081E0914A02F0914B02E770F070E65CAD
:102EA000FE4F90818227890FA65BBE4F8C934CC04A
:102EB000E0914A02F0914B02E65BFE4F208344C052
:102EC0008091BB0090E090934B0280934A0281E096
:102ED00080934C0210924D0245C080914A0290911D
:102EE0004B0220914D0260914D02821B0E9482167E
:102EF00039C010924D0280913A028A3AE1F4E09191
:102F00004A02F0914B02E65BFE4F8081E0914A025B
:102F1000F0914B02E770F070E65CFE4F2081E0918B
:102F20004A02F0914B02E770F070EE5BFE4F908129
:102F3000821B892707C0E0914A02F0914B02E65BB1
:102F4000FE4F80818093BB0080914A0290914B029A
:102F5000019690934B0280934A0280914D028F5FBD
:102F600080934D0285EC01C085E88093BC00FF9101
:102F7000EF91BF91AF919F918F917F916F915F91F1
:102F80004F913F912F910F900FBE0F901F9018956A
:102F90000895EF92FF920F931F93DF93CF93CDB7D6
:102FA000DEB72B970FB6F894DEBF0FBECDBFEE2D68
:102FB000E982EF2CFA82F02E0B83F12F1C83A22FD3
:102FC0002D83B32F3E83342F4F83252F5887962F81
:102FD00069877A878B87A795AA27A795F295FF0F10
:102FE000F07EFA2BBF2BFF0CFF0CFF0CFB2AE294A8
:102FF000EE0CEE0C80ECE822EF28E295E07FEE2963
:10300000E095E0939C023295330F330F307C220F12
:10301000220F232B9295907F922B909590939B0259
:1030200087E992E00E94F3132B960FB6F894DEBF67
:103030000FBECDBFCF91DF911F910F91FF90EF9009
:10304000089582E091E067E972E048E051E028EC01
:1030500037E10E94FC138FE18093970280939802DE
:103060008FE08093990280939A028FEF80939B0266
:1030700080939C020895FB01DC0104C08D910190B6
:10308000801921F441505040C8F7881B990B0895CE
:10309000A0E0B0E0EEE4F8E10C948A187C01EB01CA
:1030A0008A01690109C0CE012196F6010995F7014F
:1030B00081937F010150104001151105A1F7CDB793
:1030C000DEB7E8E00C94A618A0E0B0E0EAE6F8E18C
:1030D0000C948A18EC017B018A01690109C0CE01B8
:1030E0002196F70161917F01F60109950150104089
:1030F00001151105A1F7CDB7DEB7E8E00C94A618CD
:103100002F923F924F925F926F927F928F929F92F7
:10311000AF92BF92CF92DF92EF92FF920F931F93E5
:10312000CF93DF93CDB7DEB7CA1BDB0B0FB6F89496
:10313000DEBF0FBECDBF09942A88398848885F84D6
:103140006E847D848C849B84AA84B984C884DF8047
:10315000EE80FD800C811B81AA81B981CE0FD11D2B
:103160000FB6F894DEBF0FBECDBFED010895F89401
:02317000FFCF8F
:103172005AFF0000A420010300000000000000002C
:10318200000000000000000000000000000000003D
:08319200000000000000000035
:00000001FF
