:100000000C9491000C94AE000C943F0C0C94AE0038
:100010000C94AE000C94AE000C94AE000C94AE00A8
:100020000C94AE000C94AE000C94AE000C94AE0098
:100030000C94AE000C94AE000C94AE000C94AE0088
:100040000C94AE000C94AE000C94AE000C94AE0078
:100050000C94AE000C94AE000C94AE000C94AE0068
:100060000C94AE000C94AE0005010905A101150029
:100070002501350045017501950D05091901290D69
:1000800081029503810105012507463B0175049511
:100090000165140939814265009501810126FF003F
:1000A00046FF000930093109320935750895048188
:1000B00002C0040309041C034F00700065006E00B9
:1000C000430068006F00720064002E006F00720031
:1000D00067001403560031002000470075006900D6
:1000E0007400610072001201100100000008BA12D1
:1000F0000002000101020001090229000101008043
:10010000320904000002030000000921010100017E
:10011000224A000705810308000A07058303080037
:100120000A0011241FBECFEFD4E0DEBFCDBF11E027
:10013000A0E0B1E0E8EBFBE102C005900D92A23037
:10014000B107D9F711E0A2E0B1E001C01D92AD34D2
:10015000B107E1F70E9420010C94DA0D0C94000025
:100160009C01F999FECF32BD21BDF89A80B5089562
:100170009C01F999FECF1FBA32BD21BD60BD0FB6FB
:10018000F894FA9AF99A0FBE08951F93CF93DF93CC
:100190009BB121E030E002C0220F331F8A95E2F7C5
:1001A000122F822F809589238BB984E190E0000083
:1001B00001972FEF8F3F9207D1F783B183B183B1BE
:1001C00083B181FD03C0C2E0D0E002C0C0E0D0E056
:1001D00082FD03C0A4E0B0E002C0A0E0B0E083FD77
:1001E00003C0E8E0F0E002C0E0E0F0E084FD03C01E
:1001F00060E170E002C060E070E085FD03C040E2B5
:1002000050E002C040E050E026B130E0369527953E
:100210003695279520953095217030702C2B3D2BED
:100220002A2B3B2B2E2B3F2B262B372B8BB1182B1E
:100230001BB9242B352BC901DF91CF911F91089554
:100240002F923F924F925F926F927F928F929F92E6
:10025000AF92BF92CF92DF92EF92FF920F931F93D4
:10026000DF93CF93CDB7DEB7C552D1400FB6F89428
:10027000DEBF0FBECDBF0E94A80A209A8AE08A8303
:10028000CE01019668E671E041E050E020EB30E0FD
:100290000E946B0D8981BE016E5F7F4F823311F426
:1002A0008AEF01C082E38A8388E691E041E050E072
:1002B00028EB30E00E94870D0E946C040E948904A4
:1002C0008CE0FE017296DF01982F1D929A95E9F756
:1002D000FE017E96DF01982F1D929A95E9F7FE01A7
:1002E000BA96DF011D928A95E9F71E821D821B8254
:1002F0001C8218861F821D861C861B861A861986FC
:100300001E861F86188A198A3D98459A6624772486
:10031000EEEA8E2E912C8C0E9D1E7CE6272E312C23
:100320002C0E3D1E87E090E00E94C5009BA78AA787
:1003300086E090E00E94C5009DA78CA785E090E034
:100340000E94C5009FA78EA782E090E00E94C50092
:1003500099AB88AB81E090E00E94C5009BAB8AAB73
:1003600080E090E00E94C5009C019DAB8CAB1D8697
:100370001C861B861A8619861E861F86188A198A6D
:100380008AA59BA5029709F0E7C08CA59DA50C97AF
:1003900009F0E2C08EA59FA5029709F0DDC088A9EB
:1003A00099A90C9709F0D8C04AA95BA94230510518
:1003B00009F0D2C02C30310509F0CEC0F401118211
:1003C0001082338322831582148206E010E01783A3
:1003D0000683118610865387428755874487178680
:1003E000168681E090E0918B808B138A128A958B20
:1003F000848B378B268B318F208F138E128E158F27
:10040000048F178E168E51A340A313A212A215A219
:1004100014A297A386A331A720A713A612A635A7D7
:1004200024A717A616A611AA10AA13AB02AB15AAE9
:1004300014AA97AB86AB11AE10AE93AF82AF80E03B
:1004400090E0B4014CE350E028EB30E00E94870DCF
:100450008EE090E0D40111969C938E9313969C931A
:100460008E93129715961C921E92149717961C92B3
:100470001E92169719961C921E9218971B969C9383
:100480008E931A971D961C921E921C971F969C93F2
:100490008E931E9751969C938E93509753961C92D1
:1004A0001E92529755969C938E93549757961C92F2
:1004B0001E92569759961C921E9258975B961C93C3
:1004C0000E935A975D961C930E935C975F961C93C0
:1004D0000E935E9791961C921E92909793961C9203
:1004E0001E92929795961C921E92949797961C92A4
:1004F0001E92969799961C930E9398979B961C9391
:100500000E939A979D961C930E939C979F961C9280
:100510001E929E97D1961C921E92D097D3961C92B3
:100520001E92D297D5961C921E92D497D7969C93E2
:100530008E93D697D9969C938E93D897DB969C935F
:100540008E93DA9788E790E0B40148E750E028EB13
:1005500030E00E94870D772486B190E041E050E0C2
:100560009C01242735272170288B96958795842711
:1005700095278170898B2AA53BA52E313105B1F4D1
:100580008CA59DA54E9791F48EA59FA54E9771F4CD
:1005900088A999A94E9751F48AA99BA94E9731F43D
:1005A0008CA99DA94E9711F481E0898BB2E07B164E
:1005B00021F0E4E07E1609F0EEC0662009F094C058
:1005C0002033310509F08DC08CA59DA5C09709F099
:1005D00088C08EA59FA5C09709F083C088A999A956
:1005E000892B09F07EC08AA99BA9892B09F079C0C3
:1005F0008CA99DA9892B09F074C0F2E07F1609F03F
:100600006EC01FAA1EAA19AE18AE1BAE1AAE1DAE42
:100610001CAE1FAE1EAE22961FAE1EAE22972496B3
:100620001FAE1EAE249726961FAE1EAE26972896A6
:100630001FAE1EAE28972A961FAE1EAE2A972C9686
:100640001FAE1EAE2C972E961FAE1EAE2E97609636
:100650001FAE1EAE609762961FAE1EAE6297649686
:100660001FAE1EAE649766961FAE1EAE6697689666
:100670001FAE1EAE68976A961FAE1EAE6A976C9646
:100680001FAE1EAE6C976E961FAE1EAE6E97A096F6
:100690001FAE1EAEA097A2961FAE1EAEA297A49646
:1006A0001FAE1EAEA497A6961FAE1EAEA697A89626
:1006B0001FAE1EAEA897AA961FAE1EAEAA97AC9606
:1006C0001FAE1EAEAC97D1011D921C92E0961FAEDC
:1006D0001EAEE097FE01E059FF4F118210826624A2
:1006E00063941E821D821B82B1E06B1609F053C019
:1006F000232B09F0CCC08CA59DA5C09709F0C7C0DD
:100700008EA59FA5C09709F0C2C088A999A9C097D6
:1007100009F0BDC08AA99BA9892B09F0B8C08CA992
:100720009DA9892B09F0B3C0E2E07E1641F480E078
:1007300090E0BE016A5C7F4F4CE350E027C0F4E0DC
:100740007F1661F588E790E0BE016A5C7F4F1CC0B0
:100750008D819E8105970CF48EC08B81882309F0D2
:100760008AC01E821D8287C084E0781609F083C08B
:100770008D819E810A970CF47EC08B81882309F0BD
:100780007AC088E790E0B20148E750E028EB30E01B
:100790000E94870D03C0662009F06DC08AA59BA545
:1007A000892B09F04DC08CA59DA5892B09F048C067
:1007B0008EA59FA58831910589F488A999A94897A4
:1007C00009F03EC08AA99BA94897D1F58CA99DA99B
:1007D000892BB1F570FC34C0739432C0892B81F53C
:1007E00088A999A9892B61F58AA99BA9892B41F52B
:1007F0008CA99DA9892B21F595E0791611F4772410
:100800001FC0A1E07A1669F4CE01C69660E070E0E0
:100810004CE350E020EB30E00E946B0D52E0752E6F
:100820000FC0B3E07B1661F4CE01C69668E770E0B6
:1008300048E750E020EB30E00E946B0D44E0742E5E
:10084000672DCE01099670FC12C0BE01665D7F4F18
:10085000AE014A5C5F4F272D8E010E5E1F4F3EE1B9
:10086000E32EF12CEC0EFD1E0E946E0803C070E01A
:100870000E948508662409851A852B853C854D854F
:100880005E856F85788989890E94340A4BCDB6E3ED
:100890004B2E512C4C0E5D1ECE010996BE016B5F96
:1008A0007F4FA2019E01265D3F4F072DA3E0EA2E58
:1008B000F12CEC0EFD1EF4E0CF2ED12CCC0EDD1E63
:1008C000E7E0AE2EB12CAC0EBD1E0E949B08E2E00C
:1008D0007E1609F049CF3CCF2198299A22982A9A6E
:1008E00023982B9A24982C9A25982D9A3898409AD8
:1008F0003998419A3A98429A579A5F9A569A5E9ACC
:10090000559A5D9A529A5A9A519A599A509A589A67
:100910000895E4E6F0E08081877F8083E0E8F0E0FE
:1009200080818F77808380818F7B808380818F7DA2
:10093000808380818F7E808380818D7F8083808192
:100940008E7F8083E1E8F0E08081877F80838081F3
:100950008F7E808380818460808380818D7F80838F
:1009600080818160808308950F931F93CF93DF93DD
:100970008C01FB01EA0120E030E041E0DB018D91D8
:100980009C91119780FF13C08E7F8D939C93233091
:1009900031053CF4D80116964C93169715961C9287
:1009A00006C0D80115964C93159716961C922F5F8A
:1009B0003F4F6E5F7F4F2630310501F740815181F7
:1009C00041155105A9F482819381892B89F4848191
:1009D0009581892B69F486819781892B49F48085DB
:1009E0009185892B29F482859385892B09F431C25D
:1009F000888199814817590739F5228133818A8185
:100A00009B812817390701F5248135818C819D81CF
:100A100028173907C9F4268137818E819F812817CD
:100A2000390791F4208531858885998528173907FC
:100A300059F4228533858A859B852817390721F447
:100A400081E0F801808305C2DE011C968C859D85BE
:100A50004817590781F52281338112968D919C9117
:100A600013972817390739F52481358114968D910C
:100A70009C91159728173907F1F42681378116962E
:100A80008D919C91179728173907A9F420853185F6
:100A900018968D919C9119972817390761F4228532
:100AA00033851A968D919C911B972817390719F455
:100AB00081E0D801DDC0DE015896888D998D4817F8
:100AC000590781F52281338112968D919C9113975C
:100AD0002817390739F52481358114968D919C9119
:100AE000159728173907F1F42681378116968D91CD
:100AF0009C91179728173907A9F4208531851896F6
:100B00008D919C9119972817390761F422853385B7
:100B10001A968D919C911B972817390719F481E03B
:100B2000F80158C1DE0194968CA19DA14817590780
:100B300081F52281338112968D919C91139728170C
:100B4000390739F52481358114968D919C9115973B
:100B500028173907F1F42681378116968D919C91DB
:100B6000179728173907A9F42085318518968D9194
:100B70009C9119972817390761F4228533851A96B5
:100B80008D919C911B972817390719F481E0D801A2
:100B90005EC1DE01D09688A999A94817590789F541
:100BA0002281338112968D919C91139728173907D2
:100BB00041F52481358114968D919C9115972817C4
:100BC0003907F9F42681378116968D919C911797F4
:100BD00028173907B1F42085318518968D919C919D
:100BE00019972817390769F4228533851A968D914C
:100BF0009C911B972817390721F481E0F801848321
:100C000028C1DE01DC968CAD9DAD4817590799F5DA
:100C10002281338112968D919C9113972817390761
:100C200051F52481358114968D919C911597281743
:100C3000390709F52681378116968D919C91179772
:100C400028173907C1F42085318518968D919C911C
:100C500019972817390779F4228533851A968D91CB
:100C60009C911B972817390731F481E0D8018C93A8
:100C700011968C93EEC0DE01A85BBF4F8D919C91C5
:100C800011974817590789F52281338112968D9162
:100C90009C9113972817390741F5248135811496C3
:100CA0008D919C91159728173907F9F42681378182
:100CB00016968D919C91179728173907B1F42085C6
:100CC000318518968D919C9119972817390769F4E9
:100CD000228533851A968D919C911B972817390789
:100CE00021F481E0F801818375C0DE01AC5ABF4F69
:100CF0008D919C9111974817590799F5228133815D
:100D000012968D919C9113972817390751F52481DC
:100D1000358114968D919C9115972817390709F5FF
:100D20002681378116968D919C9117972817390740
:100D3000C1F42085318518968D919C9119972817BB
:100D4000390779F4228533851A968D919C911B97EA
:100D50002817390731F481E0D80112968C93129745
:100D600076C0DE01A05ABF4F8D919C911197481714
:100D7000590791F52281338112968D919C91139799
:100D80002817390749F52481358114968D919C9156
:100D900015972817390701F52681378116968D9109
:100DA0009C91179728173907B9F420853185189633
:100DB0008D919C9119972817390771F422853385F5
:100DC0001A968D919C911B972817390729F481E079
:100DD000F801808382833DC0DE01A459BF4F8D910D
:100DE0009C91119748175907A1F5228133811296DA
:100DF0008D919C9113972817390759F524813581D6
:100E000014968D919C9115972817390711F5268115
:100E1000378116968D919C91179728173907C9F439
:100E20002085318518968D919C911997281739073F
:100E300081F4228533851A968D919C911B972817F2
:100E4000390739F481E0D80111968C9311971396E4
:100E50008C93DF91CF911F910F910895EF92FF92A4
:100E60000F931F93CF93DF93FC0115821682DB0152
:100E70007A01BA016C5D7F4F4FEF00E050E011E066
:100E80008D919C911197009709F47CC08130910558
:100E9000A1F5E70188819981019711F41083452F0D
:100EA0002D913C911197E7018C859D852817390775
:100EB00011F41183452F2D913C911197E701888DF5
:100EC000998D2817390711F41283452F2D913C91E4
:100ED0001197EB01888199812817390711F4138341
:100EE000452F2D913C911197EB018C859D852817FD
:100EF000390729F41483452F02C0082F01702D9162
:100F00003C9111972E7F11963C932E93E701888197
:100F100099812817390719F4232B09F010832D9193
:100F20003C911197E7018C859D852817390719F4A5
:100F3000232B09F011832D913C911197E701888DA6
:100F4000998D2817390719F4232B09F012832D9155
:100F50003C911197EB01888199812817390719F481
:100F6000232B09F013832D913C911197EB018C8574
:100F70009D852817390719F4232B09F014830130B4
:100F800009F4452F12965F5F82E090E0E80EF91EAB
:100F90006E5F7F4F563009F073CF433018F481E015
:100FA000868308C04350433028F48681813011F095
:100FB00081E08583DF91CF911F910F91FF90EF909A
:100FC0000895AF92BF92CF92DF92FF920F931F933B
:100FD000CF93DF93FC015B01D801890160E070E0F1
:100FE000FF24F39481E0C82ED12CE5018881982F4D
:100FF0009071282F2870382F3470482F427085FF49
:1010000007C0992371F08481882321F4F48240C0C1
:10101000992339F0222371F08381882321F4F3820C
:1010200037C0222339F0332371F08281882321F4E1
:10103000F2822EC0332339F0442351F18181882379
:1010400021F4F18225C0442319F18D919C911197CF
:10105000892B59F48091840090918500E80199834F
:1010600088831196DC92CE9216C020918400309134
:101070008500E801488159818081882361F42150ED
:101080003040241B350B2436310528F0F08203C094
:1010900011961C921E92E501888180FF08C0633082
:1010A00071051CF4F682158202C0F58216826F5F0C
:1010B0007F4F82E090E0A80EB91E12960E5F1F4F80
:1010C0006630710509F091CFDF91CF911F910F919B
:1010D000FF90DF90CF90BF90AF900895EF92FF9276
:1010E0000F931F93243019F40E94B40409C02230D6
:1010F00019F40E942E0704C0980187010E94E1079D
:101100001F910F91FF90EF900895FC0161307105E0
:1011100021F481E08083828308956330710521F496
:1011200081E08083838308956530710519F481E03F
:10113000808384830895AF92BF92CF92DF92EF9223
:10114000FF920F93CF93DF93FC01DB01B90195016F
:101150008D919C911197009719F481E0808334C0A0
:101160008130910511F481E015C08230910511F4B0
:1011700081E023C08330910511F481E024C08430E4
:10118000910519F481E084831FC08530910521F415
:1011900081E08083818318C08630910519F481E055
:1011A00081830BC08730910519F481E082830BC0E5
:1011B0008830910521F481E08083828305C00997FE
:1011C00019F481E0818383838781882309F1E60113
:1011D0008881882359F48091840090918500E901E9
:1011E0009983888381E0E601888310C08091840020
:1011F00090918500E90128813981821B930B885EDB
:10120000934040F48091840090918500178202C041
:10121000E60118828781882309F4F7C0F7018081ED
:10122000882309F0F4C0043009F060C08D919C91CE
:101230001197FC01EE0FFF1FE80FF91FEE0FFF1FC4
:10124000EE0FFF1FE40FF51F118210828D919C910C
:101250001197FC01EE0FFF1FE80FF91FEE0FFF1FA4
:10126000EE0FFF1FE40FF51F138212828D919C91E8
:101270001197FC01EE0FFF1FE80FF91FEE0FFF1F84
:10128000EE0FFF1FE40FF51F158214828D919C91C4
:101290001197FC01EE0FFF1FE80FF91FEE0FFF1F64
:1012A000EE0FFF1FE40FF51F178216828D919C91A0
:1012B0001197FC01EE0FFF1FE80FF91FEE0FFF1F44
:1012C000EE0FFF1FE40FF51F118610868D919C9184
:1012D0001197FC01EE0FFF1FE80FF91FEE0FFF1F24
:1012E000EE0FFF1FE40FF51F138612868D919C9160
:1012F0001197FC01EE0FFF1FE80FF91FEE0FFF1F04
:10130000EE0FFF1FE40FF51F80819181EB01288113
:101310003981822B932B918380838D919C9111979E
:10132000FC01EE0FFF1FE80FF91FEE0FFF1FEE0F7E
:10133000FF1FE40FF51F828193812A813B81822B5D
:10134000932B938382838D919C911197FC01EE0FD7
:10135000FF1FE80FF91FEE0FFF1FEE0FFF1FE40F37
:10136000F51F848195812C813D81822B932B958360
:1013700084838D919C911197FC01EE0FFF1FE80F64
:10138000F91FEE0FFF1FEE0FFF1FE40FF51F868101
:1013900097812E813F81822B932B978386838D911A
:1013A0009C911197FC01EE0FFF1FE80FF91FEE0F44
:1013B000FF1FEE0FFF1FE40FF51F80859185288525
:1013C0003985822B932B918780878D919C911197E2
:1013D000FC01EE0FFF1FE80FF91FEE0FFF1FEE0FCE
:1013E000FF1FE40FF51F828593852A853B85822B9D
:1013F000932B9387828781E0F70180838D919C9165
:10140000119701968D939C9302C0E7011882DF919A
:10141000CF910F91FF90EF90DF90CF90BF90AF9062
:101420000895FC01808180768032E1F481818130F1
:1014300041F484E091E0909326018093250187E0B8
:101440000895823041F482E091E0909326018093E8
:10145000250181E008958A3029F483818093020177
:1014600080E0089580E008950F931F93DF93CF935A
:10147000CDB7DEB729970FB6F894DEBF0FBECDBF4C
:10148000902F0983F12F1A83E22F2B83A32F3C8304
:10149000342F4D83B52F5E83462F6F83272F788798
:1014A0008987582F1092050188E08093060180E813
:1014B00080930701809308018093090110920A012B
:1014C0003295307F3A2BFF0FFF0FEE0FEE0FEE0F2E
:1014D000EF2B990F9E2B932B90930401BB2311F0BC
:1014E00010920601442319F084E080930601220F34
:1014F00080910501822B809305015295550F507EF6
:1015000080910401852B8093040180E49FE1019781
:10151000F1F7359B02C0289804C084E0809306014F
:10152000289AA8950E94D60A8091160184FF05C0CA
:1015300084E091E067E00E94040C29960FB6F894CD
:10154000DEBF0FBECDBFCF91DF911F910F910895E8
:101550002EE088E190E00FB6F894A89580936000A3
:101560000FBE209360000E94C50A549A20E040EA12
:101570005FE004C0A895CA010197F1F72150D1F7A7
:10158000549878940E94D60A0895E9E6F0E08081A4
:101590008C608083E99A8BE48093170180934201E9
:1015A0008AE5809316018093410108951F93CF939C
:1015B000DF9390912701935097FDA8C020912401BB
:1015C000809123018D3209F09FC0983009F09CC0B2
:1015D000CCE0D0E0C21BD109C55DDE4F83EC809327
:1015E0000B018AE5809300011092030188818076C7
:1015F00029F0CE010E94110A282F7DC09A811092F5
:1016000014018981882321F41092150122E06DC014
:10161000853019F49093280167C0863009F04EC0D8
:101620008B81813041F486EE90E090932601809387
:10163000250122E13FC0823041F488EF90E0909391
:1016400026018093250129E235C08330F1F49923E6
:1016500041F482EB90E0909326018093250124E0F1
:1016600029C0913041F486EB90E09093260180935D
:1016700025012CE11FC09230E1F482ED90E09093BF
:1016800026018093250124E115C0813241F48AE0CE
:1016900091E0909326018093250129E00BC08232CE
:1016A00041F488E690E090932601809325012AE496
:1016B00001C020E080E4809303011DC0883021F444
:1016C00021E08AE291E013C0893019F490932A0155
:1016D0000BC08A3011F421E008C08B3029F48BE470
:1016E000809317018093420120E084E191E0909380
:1016F0002601809325018F81882321F48E81821712
:1017000008F4282F209301011092270180910001F5
:1017100084FF4AC0809101018F3F09F445C0182F12
:10172000893008F018E0811B8093010180910B0142
:1017300098E8892780930B01112341F1209125011D
:10174000309126018091030186FF0DC0ACE0B1E02D
:1017500080E090E0F901E80FF91FE491ED93019624
:101760001817C1F708C0912FD901ECE0F1E08D9175
:1017700081939150E1F71150812F90E01F5F019606
:10178000820F931F90932601809325018CE091E0B6
:10179000612F0E943B0C612F6C5F6C3019F08FEF52
:1017A000809301016093000194E189B1887131F463
:1017B0009150D9F71092280110922201DF91CF9118
:1017C0001F9108951F93DC01162F8091410184FF22
:1017D00007C08091420198E889278093420103C0A5
:1017E0008AE580934101912FE3E4F1E08D918193AB
:1017F0009150E1F783E491E0612F0E943B0C1C5F64
:10180000109341011F9108951F93DC01162F8091C1
:10181000160184FF07C08091170198E889278093FB
:10182000170103C08AE580931601912FE8E1F1E0EA
:101830008D9181939150E1F788E191E0612F0E94B1
:101840003B0C1C5F109316011F910895A82FB92F10
:1018500080E090E041E050EA609530E009C02D91D1
:1018600082279795879510F084279527305EC8F3D7
:101870006F5FA8F30895EADF8D939D930895CF934A
:10188000CFB7CF93DF93C3954C9BE9F74C9B0BC02D
:101890004C9B09C04C9B07C04C9B05C04C9B03C094
:1018A0004C9B01C08BC06F93C0912401DD27C55DA7
:1018B000DE4F2F9365E54C9B03C02F916F91E6CFD0
:1018C0000F931F934F9320E040E15F9309B108719C
:1018D00004FB27F93F9350E03BE039C018714064A6
:1018E0002F77012F5F5F1EC0406819B118712F77E5
:1018F00052501FC0406409B12F770871D1F15F5F6A
:1019000000C023C0406219B12F77187191F15F5F59
:1019100000C025C008711027515012F45D5F00000F
:10192000115027952C3F19B1C8F6187101270150A5
:1019300027952C3FC8F64227499309B10871102713
:101940004F73115027952C3FA8F64695469519B12F
:10195000187179F00127015027952C3F98F66B5AA2
:1019600060F3315009B1B0F600C012E01CBB002793
:1019700019C03B503195C31BD04012E01CBB0881FD
:10198000033C09F10B34F9F0209122011981110F68
:101990001213EDCF4A81441F093651F10D3211F077
:1019A000013E29F7009329013F915F914F911F91CB
:1019B0000F912F916F91CCB3C1FD65CFDF91CF9186
:1019C000CFBFCF91189520912901222369F310915F
:1019D00027011123E9F53430EAF1309327012093F0
:1019E0002301109124013BE0311B3093240132C0CC
:1019F00000912701013064F50AE54F7049F43091F8
:101A0000000134FD28C000930001CBE0D1E027C0E5
:101A1000413549F03091160134FD1DC00093160187
:101A2000C7E1D1E01CC03091410134FD14C00093E6
:101A30004101C2E4D1E013C0052710E000C000005E
:101A40000BB91AC0052710E0221F1DC010E021C0ED
:101A50004AE502C032ED432FC4E1D0E032E01AB1D2
:101A600018615C9A0BB11AB958E120E865E320FFD0
:101A700005270BB9279517951C3FF0F66695B8F723
:101A8000B1F720FF05270BB9279517951C3FD0F616
:101A90002795179517FF052700001C3F0BB9B0F6D7
:101AA00029913A9519F7077E10912801110FC65117
:101AB000D0400BB911F01093220112E01CBB006161
:101AC0001AB1177E402F477E54E05A95F1F70BB9B3
:101AD0001AB94BB969CFA0E0B0E0E1E7FDE00C94A2
:101AE000AD0D7C01EB018A01690109C0CE0121968F
:101AF000F6010995F70181937F010150104001150E
:101B00001105A1F7CDB7DEB7E8E00C94C90DA0E050
:101B1000B0E0EDE8FDE00C94AD0DEC017B018A0135
:101B2000690109C0CE012196F70161917F01F6019B
:101B300009950150104001151105A1F7CDB7DEB789
:101B4000E8E00C94C90D2F923F924F925F926F92F2
:101B50007F928F929F92AF92BF92CF92DF92EF923D
:101B6000FF920F931F93CF93DF93CDB7DEB7CA1BBE
:101B7000DB0B0FB6F894DEBF0FBECDBF09942A88E9
:101B8000398848885F846E847D848C849B84AA8491
:101B9000B984C884DF80EE80FD800C811B81AA811E
:101BA000B981CE0FD11D0FB6F894DEBF0FBECDBFE9
:081BB000ED010895F894FFCF48
:021BB8005AFFD2
:00000001FF
