:100000000C9491000C94AE000C94110D0C94AE0065
:100010000C94AE000C94AE000C94AE000C94AE00A8
:100020000C94AE000C94AE000C94AE000C94AE0098
:100030000C94AE000C94AE000C94AE000C94AE0088
:100040000C94AE000C94AE000C94AE000C94AE0078
:100050000C94AE000C94AE000C94AE000C94AE0068
:100060000C94AE000C94AE0005010905A101150029
:100070002501350045017501950D05091901290D69
:1000800081029503810105012507463B0175049511
:100090000165140939814265009501810126FF003F
:1000A00046FF000930093109320935750895048188
:1000B00002C0040309041C034F00700065006E00B9
:1000C000430068006F00720064002E006F00720031
:1000D00067001403560031002000470075006900D6
:1000E0007400610072001201100100000008BA12D1
:1000F0000002000101020001090229000101008043
:10010000320904000002030000000921010100017E
:10011000224A000705810308000A07058303080037
:100120000A0011241FBECFEFD4E0DEBFCDBF11E027
:10013000A0E0B1E0EEE8FDE102C005900D92A23032
:10014000B107D9F711E0A2E0B1E001C01D92AD34D2
:10015000B107E1F70E9420010C94C50E0C94000039
:100160009C01F999FECF32BD21BDF89A80B5089562
:100170009C01F999FECF1FBA32BD21BD60BD0FB6FB
:10018000F894FA9AF99A0FBE08951F93CF93DF93CC
:100190009BB121E030E002C0220F331F8A95E2F7C5
:1001A000122F822F809589238BB984E190E0000083
:1001B00001972FEF8F3F9207D1F783B183B183B1BE
:1001C00083B181FD03C0C2E0D0E002C0C0E0D0E056
:1001D00082FD03C0A4E0B0E002C0A0E0B0E083FD77
:1001E00003C0E8E0F0E002C0E0E0F0E084FD03C01E
:1001F00060E170E002C060E070E085FD03C040E2B5
:1002000050E002C040E050E026B130E0369527953E
:100210003695279520953095217030702C2B3D2BED
:100220002A2B3B2B2E2B3F2B262B372B8BB1182B1E
:100230001BB9242B352BC901DF91CF911F91089554
:100240002F923F924F925F926F927F928F929F92E6
:10025000AF92BF92CF92DF92EF92FF920F931F93D4
:10026000DF93CF93CDB7DEB7C854D1400FB6F89423
:10027000DEBF0FBECDBF0E947A0B209A8AE08A8330
:10028000CE01019668E671E041E050E020EB30E0FD
:100290000E94560E8981BE016E5F7F4F823311F43A
:1002A0008AEF01C082E38A8388E691E041E050E072
:1002B00028EB30E00E94720E0E9402050E941F058A
:1002C0008CE09E012D5E3F4FD901E82F1D92EA95EB
:1002D000E9F7AE01415E5F4FDA01E82F1D92EA9522
:1002E000E9F7FE01BB96DF01982F1D929A95E9F779
:1002F000BE016D5B7F4FDB011D928A95E9F71E827F
:100300001D821B821C8218861F821D861C861B86EE
:100310001A8619861E861F86188A198A1A8A3D9897
:10032000459A44245524CF5BDE4FE883C154D14025
:10033000CE5BDE4FF883C254D140DB01CD5BDE4F94
:100340006883C354D140CC5BDE4FB883C454D140E2
:10035000E7E3F0E0EC0FFD1F3E96C15CDE4FF98352
:10036000E883CF53D1406FE4662E712C6C0E7D1E56
:10037000CB5BDE4F2883C554D140CA5BDE4F388348
:10038000C654D140C95BDE4F4883C754D140C85BD7
:10039000DE4F5883C854D14097EC892E912C8C0E97
:1003A0009D1E8CE0282E312C87E090E00E94C50035
:1003B00098AF8FAB86E090E00E94C5009AAF89AFFE
:1003C00085E090E00E94C5009CAF8BAF82E090E09A
:1003D0000E94C5009EAF8DAF81E090E00E94C500F5
:1003E00021969FAF8EAF219780E090E00E94C500DC
:1003F00023969FAF8EAF23979E01295C3F4FCF5B23
:10040000DE4F8881C154D140CE5BDE4F9881C2540B
:10041000D140BC01CD5BDE4F8881C354D140CC5B61
:10042000DE4F9881C454D140FC01D9014D915C91BB
:10043000DB018D919C914817590719F411821082A4
:1004400005C0808191810196918380838081918113
:100450000F972CF0DB014D935C93118210822E5F7D
:100460003F4F6E5F7F4F3296C15CDE4F888199812E
:10047000CF53D14028173907C1F61D861C861B862D
:100480001A8619861E861F861A8A86B190E041E078
:1004900050E09C01242735272170288B969587955D
:1004A000842795278170898B8BA59CA5809709F05F
:1004B000E8C08DA59EA5892B09F0E3C08FA598A95A
:1004C000809709F0DEC089A99AA9892B09F0D9C0C3
:1004D0008BA99CA9809709F0D4C08DA99EA9892BCE
:1004E00009F0CFC0D40111961C921E9213963C9233
:1004F0002E92129715961C921E92149706E010E009
:1005000017961C930E93169719961C921E92189785
:1005100082E090E01B969C938E931A971D969C9375
:100520008E931C971F961C921E921E9751965C9359
:100530004E93509753961C921E92529755965C93E9
:100540004E93549757963C922E92569759963C92BA
:100550002E9258975B961C921E925A975D961C930A
:100560000E935C975F961C921E925E9791969C9359
:100570008E93909793961C921E92929795961C92AA
:100580001E92949797965C934E93969799963C9269
:100590002E9298979B961C921E929A979D963C92AB
:1005A0002E929C979F961C921E929E97D1961C927B
:1005B0001E92D097D3961C930E93D297D5961C92E9
:1005C0001E92D497D7965C934E93D697D9961C9249
:1005D0001E92D897DB965C934E93DA9780E090E07A
:1005E000B4014CE350E028EB30E00E94720E8EE044
:1005F00090E0F40191838083938382831582148237
:100600001782168211861086938782871586148634
:1006100097878687918B808B138A128A958B848B20
:10062000178A168A118E108E138F028F158F048FE2
:10063000178F068F11A210A213A212A215A214A244
:1006400017A216A211A700A713A702A715A704A710
:1006500017A616A611AA10AA13AA12AA15AA14AAB6
:1006600097AB86AB91AF80AF93AF82AF88E790E056
:10067000B40148E750E028EB30E00E94720E5524A8
:10068000FBC0F2E05F1621F084E0581609F0F4C0D8
:10069000442009F09FC08BA59CA5809709F097C0C6
:1006A0008DA59EA5809709F092C08FA598A98097E7
:1006B00009F08DC089A99AA9892B09F088C08BA956
:1006C0009CA9892B09F083C08DA99EA9892B09F0CB
:1006D0007EC092E0591609F078C0D30111961C92A1
:1006E0001E9213961C921E92129715961C921E92A1
:1006F000149717961C921E92169719961C921E928A
:1007000018971B961C921E921A971D961C921E9269
:100710001C971F961C921E921E9751961C921E9219
:10072000509753961C921E92529755961C921E9269
:10073000549757961C921E92569759961C921E9249
:1007400058975B961C921E925A975D961C921E9229
:100750005C975F961C921E925E9791961C921E92D9
:10076000909793961C921E92929795961C921E9229
:10077000949797961C921E92969799961C921E9209
:1007800098979B961C921E929A979D961C921E92E9
:100790009C979F961C921E929E97D1961C921E9299
:1007A000D097D3961C921E92D297D5961C921E92E9
:1007B000D497D7961C921E92D697D9961C921E92C9
:1007C000D897DB961C921E92DA97442443941E829B
:1007D0001D821B82B1E04B1609F04EC08BA59CA573
:1007E000892B09F0E7C08DA59EA5809709F0E2C08E
:1007F0008FA598A9809709F0DDC089A99AA980974B
:1008000009F0D8C08BA99CA9892B09F0D3C08DA968
:100810009EA9892B09F0CEC0E2E05E1631F480E09B
:1008200090E0B3014CE350E022C0F4E05F1639F5EC
:1008300019C08D819E8105970CF4AFC08B818823F0
:1008400009F0ABC01E821D82A8C084E0581609F0D2
:10085000A4C08D819E810A970CF49FC08B81882350
:1008600009F09BC088E790E0B30148E750E028EB2F
:1008700030E00E94720E03C0442009F08EC08BA5A8
:100880009CA5892B09F05BC08DA59EA5892B09F03D
:1008900056C02FA538A92115310571F489A99AA947
:1008A000892B51F48BA99CA9892B31F48DA99EA980
:1008B000809711F491E0998B2032310581F489A958
:1008C0009AA98097E1F58BA99CA98097C1F58DA97C
:1008D0009EA9892BA1F550FC32C0539430C0232B24
:1008E00071F589A99AA9892B51F58BA99CA9892B06
:1008F00031F58DA99EA9892B11F5A5E05A1611F4A1
:1009000055241DC0B1E05B1661F4C30160E070E0E6
:100910004CE350E020EB30E00E94560E12E0512EE6
:100920000EC0E3E05E1659F4C30168E770E048E7E3
:1009300050E020EB30E00E94560EB4E05B2E652DB7
:1009400050FC25C0CE010996CF5BDE4F6881C154B3
:10095000D140CE5BDE4F7881C254D140A301252D1A
:10096000CB5BDE4F0881C554D140CA5BDE4F188196
:10097000C654D140C95BDE4FE880C754D140C85B44
:10098000DE4FF880C854D1400E944C0905C0CE010A
:10099000099670E00E946309442409851A852B8515
:1009A0003C854D855E856F85788989899A890E9405
:1009B000120BFACCCE010996BE016B5F7F4FA301EB
:1009C000CF5BDE4F2881C154D140CE5BDE4F3881F2
:1009D000C254D140052DA3E0EA2EF12CEC0EFD1EF1
:1009E000F4E0CF2ED12CCC0EDD1EE7E0AE2EB12CE4
:1009F000AC0EBD1E0E947909188AF2E05F1609F05C
:100A000024CF17CF2198299A22982A9A23982B9A93
:100A100024982C9A25982D9A3898409A3998419A7A
:100A20003A98429A579A5F9A569A5E9A559A5D9A60
:100A3000529A5A9A519A599A509A589A0895E4E6B5
:100A4000F0E08081877F8083E0E8F0E080818F772D
:100A5000808380818F7B808380818F7D8083808174
:100A60008F7E808380818D7F808380818E7F808355
:100A7000E1E8F0E08081877F808380818F7E8083C2
:100A800080818460808380818D7F8083808181608C
:100A9000808308950F931F93CF93DF938C01FB0105
:100AA000EA0120E030E041E0DB018D919C9111975B
:100AB00080FF13C08E7F8D939C93233031053CF4CF
:100AC000D80116964C93169715961C9206C0D8011D
:100AD00015964C93159716961C922F5F3F4F6E5F9D
:100AE0007F4F2630310501F7408151814115510575
:100AF000A9F482819381892B89F484819581892B42
:100B000069F486819781892B49F480859185892BA9
:100B100029F482859385892B09F431C288819981D2
:100B20004817590739F5228133818A819B8128171B
:100B3000390701F5248135818C819D81281739077A
:100B4000C9F4268137818E819F812817390791F456
:100B500020853185888599852817390759F422859C
:100B600033858A859B852817390721F481E0F801B0
:100B7000808305C2DE011C968C859D854817590728
:100B800081F52281338112968D919C9113972817BC
:100B9000390739F52481358114968D919C911597EB
:100BA00028173907F1F42681378116968D919C918B
:100BB000179728173907A9F42085318518968D9144
:100BC0009C9119972817390761F4228533851A9665
:100BD0008D919C911B972817390719F481E0D80152
:100BE000DDC0DE015896888D998D4817590781F52B
:100BF0002281338112968D919C9113972817390782
:100C000039F52481358114968D919C91159728177B
:100C10003907F1F42681378116968D919C911797AB
:100C200028173907A9F42085318518968D919C9154
:100C300019972817390761F4228533851A968D9103
:100C40009C911B972817390719F481E0F80158C1C6
:100C5000DE0194968CA19DA14817590781F5228148
:100C6000338112968D919C9113972817390739F586
:100C70002481358114968D919C91159728173907F9
:100C8000F1F42681378116968D919C91179728173C
:100C90003907A9F42085318518968D919C91199773
:100CA0002817390761F4228533851A968D919C9116
:100CB0001B972817390719F481E0D8015EC1DE01BE
:100CC000D09688A999A94817590789F522813381B7
:100CD00012968D919C9113972817390741F524811D
:100CE000358114968D919C91159728173907F9F441
:100CF0002681378116968D919C9117972817390771
:100D0000B1F42085318518968D919C9119972817FB
:100D1000390769F4228533851A968D919C911B972A
:100D20002817390721F481E0F801848328C1DE0106
:100D3000DC968CAD9DAD4817590799F5228133811A
:100D400012968D919C9113972817390751F524819C
:100D5000358114968D919C9115972817390709F5BF
:100D60002681378116968D919C9117972817390700
:100D7000C1F42085318518968D919C91199728177B
:100D8000390779F4228533851A968D919C911B97AA
:100D90002817390731F481E0D8018C9311968C9390
:100DA000EEC0DE01A85BBF4F8D919C911197481753
:100DB000590789F52281338112968D919C91139761
:100DC0002817390741F52481358114968D919C911E
:100DD000159728173907F9F42681378116968D91D2
:100DE0009C91179728173907B1F4208531851896FB
:100DF0008D919C9119972817390769F422853385BD
:100E00001A968D919C911B972817390721F481E040
:100E1000F801818375C0DE01AC5ABF4F8D919C9162
:100E200011974817590799F52281338112968D91B0
:100E30009C9113972817390751F524813581149611
:100E40008D919C9115972817390709F526813781CF
:100E500016968D919C91179728173907C1F4208514
:100E6000318518968D919C9119972817390779F437
:100E7000228533851A968D919C911B9728173907E7
:100E800031F481E0D80112968C93129776C0DE017E
:100E9000A05ABF4F8D919C9111974817590791F512
:100EA0002281338112968D919C91139728173907CF
:100EB00049F52481358114968D919C9115972817B9
:100EC000390701F52681378116968D919C911797E8
:100ED00028173907B9F42085318518968D919C9192
:100EE00019972817390771F4228533851A968D9141
:100EF0009C911B972817390729F481E0F80180831A
:100F000082833DC0DE01A459BF4F8D919C91119702
:100F100048175907A1F52281338112968D919C9132
:100F200013972817390759F52481358114968D9127
:100F30009C9115972817390711F526813781169648
:100F40008D919C91179728173907C9F42085318511
:100F500018968D919C9119972817390781F422854D
:100F600033851A968D919C911B972817390739F470
:100F700081E0D80111968C93119713968C93DF9191
:100F8000CF911F910F910895EF92FF920F931F93AE
:100F9000CF93DF93DC01FB0115961C9215971696F3
:100FA0001C921697808180FF04C081E016968C9376
:100FB00016977A01BA016C5D7F4F4FEF00E050E069
:100FC00011E080819181009709F482C08130910500
:100FD000C1F5E70188819981019711F41C93452F90
:100FE00020813181E7018C859D852817390721F4FF
:100FF00011961C931197452F20813181E701888D2F
:10100000998D2817390721F412961C931297452FB2
:1010100020813181EB01888199812817390721F4DA
:1010200013961C931397452F20813181EB018C85FA
:101030009D852817390739F414961C931497452F6A
:1010400002C0082F0170208131812E7F31832083DF
:10105000E701888199812817390719F4232B09F0B2
:101060001C9320813181E7018C859D8528173907E4
:1010700029F4232B19F011961C93119720813181AB
:10108000E701888D998D2817390729F4232B19F04A
:1010900012961C93129720813181EB0188819981EE
:1010A0002817390729F4232B19F013961C9313974B
:1010B00020813181EB018C859D852817390729F422
:1010C000232B19F014961C931497013009F4452F23
:1010D00032965F5F82E090E0E80EF91E6E5F7F4F10
:1010E000563009F06ECF433020F481E016968C9391
:1010F0000BC04350433040F416968C9116978130C4
:1011000019F081E015968C93DF91CF911F910F918B
:10111000FF90EF900895AF92BF92CF92DF92FF922F
:101120000F931F93CF93DF93FC015B01D8018901DB
:1011300060E070E0FF24F39481E0C82ED12CE5013B
:101140008881998102971CF081858F5F8187E501F5
:101150008881982F9071282F2870382F3470482F4D
:10116000427085FF07C0992371F08481882321F4A0
:10117000F48240C0992339F0222371F083818823BF
:1011800021F4F38237C0222339F0332371F08281B6
:10119000882321F4F2822EC0332339F0442351F105
:1011A0008181882321F4F18225C0442319F18D9196
:1011B0009C911197892B59F480918400909185001E
:1011C000E801998388831196DC92CE9216C0209113
:1011D000840030918500E80148815981808188230D
:1011E00061F421503040241B350B2436310528F0A2
:1011F000F08203C011961C921E92E501888180FF47
:1012000008C0633071051CF4F682158202C0F582B5
:1012100016826F5F7F4F82E090E0A80EB91E129693
:101220000E5F1F4F6630710509F089CF81858630CA
:1012300048F58381882359F08281882341F0818198
:10124000882329F08081882311F012821082848102
:10125000882331F08381882319F0828181111382E0
:101260008381882331F08281882319F08181811163
:1012700012828281882331F08181882319F0808154
:1012800081111182DF91CF911F910F91FF90DF901B
:10129000CF90BF90AF900895EF92FF920F931F935E
:1012A000243019F40E944A0509C0223019F40E9422
:1012B000C40704C0980187010E948B081F910F91F9
:1012C000FF90EF900895FC016130710521F481E0F9
:1012D0008383828308956330710521F481E08383E1
:1012E000848308956530710519F481E082838483D5
:1012F0000895AF92BF92CF92DF92EF92FF920F9339
:10130000CF93DF93FC01DB01B90195018D919C9195
:101310001197009719F481E0808334C081309105E2
:1013200011F481E015C08230910511F481E023C0F1
:101330008330910511F481E024C08430910519F4C3
:1013400081E084831FC08530910521F481E0808392
:10135000818318C08630910519F481E081830BC028
:101360008730910519F481E082830BC088309105A4
:1013700021F481E08083828305C0099719F481E01C
:10138000818383838781882309F1E601888188230B
:1013900059F48091840090918500E90199838883B4
:1013A00081E0E601888310C08091840090918500DF
:1013B000E90128813981821B930B885E934040F4B8
:1013C0008091840090918500178202C0E601188206
:1013D0008781882309F4F7C0F7018081882309F009
:1013E000F4C0043009F060C08D919C911197FC010C
:1013F000EE0FFF1FE80FF91FEE0FFF1FEE0FFF1F8D
:10140000E40FF51F118210828D919C911197FC01C0
:10141000EE0FFF1FE80FF91FEE0FFF1FEE0FFF1F6C
:10142000E40FF51F138212828D919C911197FC019C
:10143000EE0FFF1FE80FF91FEE0FFF1FEE0FFF1F4C
:10144000E40FF51F158214828D919C911197FC0178
:10145000EE0FFF1FE80FF91FEE0FFF1FEE0FFF1F2C
:10146000E40FF51F178216828D919C911197FC0154
:10147000EE0FFF1FE80FF91FEE0FFF1FEE0FFF1F0C
:10148000E40FF51F118610868D919C911197FC0138
:10149000EE0FFF1FE80FF91FEE0FFF1FEE0FFF1FEC
:1014A000E40FF51F138612868D919C911197FC0114
:1014B000EE0FFF1FE80FF91FEE0FFF1FEE0FFF1FCC
:1014C000E40FF51F80819181EB0128813981822B06
:1014D000932B918380838D919C911197FC01EE0F4A
:1014E000FF1FE80FF91FEE0FFF1FEE0FFF1FE40FA6
:1014F000F51F828193812A813B81822B932B9383D9
:1015000082838D919C911197FC01EE0FFF1FE80FD4
:10151000F91FEE0FFF1FEE0FFF1FE40FF51F848171
:1015200095812C813D81822B932B958384838D9192
:101530009C911197FC01EE0FFF1FE80FF91FEE0FB2
:10154000FF1FEE0FFF1FE40FF51F868197812E818D
:101550003F81822B932B978386838D919C9111974A
:10156000FC01EE0FFF1FE80FF91FEE0FFF1FEE0F3C
:10157000FF1FE40FF51F8085918528853985822B13
:10158000932B918780878D919C911197FC01EE0F91
:10159000FF1FE80FF91FEE0FFF1FEE0FFF1FE40FF5
:1015A000F51F828593852A853B85822B932B938714
:1015B000828781E0F70180838D919C91119701963C
:1015C0008D939C9302C0E7011882DF91CF910F9118
:1015D000FF90EF90DF90CF90BF90AF900895FC0107
:1015E000808180768032E1F48181813041F484E031
:1015F00091E0909326018093250187E00895823041
:1016000041F482E091E0909326018093250181E0EE
:1016100008958A3029F483818093020180E008953F
:1016200080E008950F931F93DF93CF93CDB7DEB77C
:101630002A970FB6F894DEBF0FBECDBFE02F098307
:10164000A12F1A83F22F2B83B32F3C83242F4D839A
:101650005E83462F6F83372F788789879A87982FE5
:101660001092050188E08093060180E880930701CD
:10167000809308018093090110920A012295207F2E
:101680002B2BAA0FAA0FFF0FFF0FFF0FFA2BEE0F46
:10169000EF2BE22BE0930401552311F01092060189
:1016A000442319F084E080930601330F80910501F3
:1016B000832B809305019295990F907E8091040170
:1016C000892B80930401A8950E94A80B8091160194
:1016D00084FF05C084E091E067E00E94D60C2A9662
:1016E0000FB6F894DEBF0FBECDBFCF91DF911F9133
:1016F0000F9108952EE088E190E00FB6F894A89538
:10170000809360000FBE209360000E94970B549A54
:1017100020E048EB5BE004C0A895CA010197F1F70F
:101720002150D1F7549878940E94A80B0895E9E6C7
:10173000F0E080818C608083E99A8BE480931701CC
:10174000809342018AE580931601809341010895B8
:101750001F93CF93DF9390912701935097FDA8C0DB
:1017600020912401809123018D3209F09FC098308F
:1017700009F09CC0CCE0D0E0C21BD109C55DDE4FB2
:1017800083EC80930B018AE58093000110920301A2
:101790008881807629F0CE010E94EF0A282F7DC033
:1017A0009A81109214018981882321F410921501E5
:1017B00022E06DC0853019F49093280167C086300F
:1017C00009F04EC08B81813041F486EE90E0909319
:1017D00026018093250122E13FC0823041F488EF49
:1017E00090E0909326018093250129E235C0833053
:1017F000F1F4992341F482EB90E0909326018093D9
:10180000250124E029C0913041F486EB90E09093CB
:101810002601809325012CE11FC09230E1F482ED76
:1018200090E0909326018093250124E115C0813238
:1018300041F48AE091E0909326018093250129E00C
:101840000BC0823241F488E690E0909326018093A9
:1018500025012AE401C020E080E4809303011DC03B
:10186000883021F421E08AE291E013C0893019F434
:1018700090932A010BC08A3011F421E008C08B300C
:1018800029F48BE4809317018093420120E084E1E6
:1018900091E090932601809325018F81882321F484
:1018A0008E81821708F4282F2093010110922701BE
:1018B0008091000184FF4AC0809101018F3F09F4AB
:1018C00045C0182F893008F018E0811B8093010172
:1018D00080910B0198E8892780930B01112341F136
:1018E00020912501309126018091030186FF0DC0D2
:1018F000ACE0B1E080E090E0F901E80FF91FE4917D
:10190000ED9301961817C1F708C0D901912FECE0AB
:10191000F1E08D9181939150E1F71150812F90E08A
:101920001F5F0196820F931F9093260180932501DC
:101930008CE091E0612F0E940D0D612F6C5F6C3087
:1019400019F08FEF809301016093000194E189B158
:10195000887131F49150D9F7109228011092220128
:10196000DF91CF911F9108951F93DC01162F809175
:10197000410184FF07C08091420198E88927809344
:10198000420103C08AE580934101912FE3E4F1E035
:101990008D9181939150E1F783E491E0612F0E9452
:1019A0000D0D1C5F109341011F9108951F93DC01E1
:1019B000162F8091160184FF07C08091170198E8C7
:1019C00089278093170103C08AE580931601912F20
:1019D000E8E1F1E08D9181939150E1F788E191E0A8
:1019E000612F0E940D0D1C5F109316011F91089529
:1019F000A82FB92F80E090E041E050EA609530E0F8
:101A000009C02D9182279795879510F084279527F7
:101A1000305EC8F36F5FA8F30895EADF8D939D935E
:101A20000895CF93CFB7CF93C3954C9BE9F74C9BC9
:101A300009C04C9B07C04C9B05C04C9B03C04C9BF2
:101A400001C0A3C0DF93C0912401DD27C55DDE4F37
:101A50004C9B02C0DF91EBCF2F930F931F9309B1E3
:101A60002FEF04FB20F94F933F9319B14FEF01275C
:101A700004FB21F93BE031C04E7F012F19B12160F9
:101A800028C0102F4D7F2260000009B129C04B7F74
:101A90002460012F000019B12BC019B1477F2860C5
:101AA0002AC04F7E09B120612CC04F7D19B1206240
:101AB0002FC04F7B09B1206432C0422709B149933E
:101AC0004FEF0000102714FB20F919B11871C9F16C
:101AD000297F91F2012704FB21F909B1237F89F2C3
:101AE000315058F1102714FB22F919B1277E79F2F1
:101AF000012704FB23F92F7C81F209B1102714FB85
:101B000024F92F7971F200C019B1012704FB25F9DE
:101B10002F7359F200C009B1102714FB26F92230A7
:101B200040F200C019B1012704FB27F9243028F640
:101B30004F77206819B10000F9CF12E01CBB0027D5
:101B400019C03B503195C31BD04012E01CBB08812B
:101B5000033CF9F00B34E9F0209122011981110FB7
:101B60001213EDCF4A81441F093641F10D3211F0B5
:101B7000013E29F7009329013F914F911F910F9149
:101B80002F91DF91CCB3C1FD4FCFCF91CFBFCF917C
:101B9000189520912901222379F31091270111230F
:101BA000C1F53430C2F13093270120932301109105
:101BB00024013BE0311B309324012DC0009127010B
:101BC00001303CF50AE54F7049F43091000134FDD5
:101BD00024C000930001CBE0D1E023C0413549F09F
:101BE0003091160134FD19C000931601C7E1D1E010
:101BF00018C03091410134FD10C000934101C2E48E
:101C0000D1E00FC02795A8F45150A9F4220F00008D
:101C1000F9CF4AE503C042ED01C0432FC4E1D0E053
:101C200032E01AB118615C9A1AB90BB120E418E1DC
:101C30005F93012756E00BB9279520F4515021F40A
:101C4000220FF9CF012756E000003B5A0BB9D0F222
:101C5000279528F4515029F4220F0000F9CF0127CD
:101C600056E027950BB920F4515021F4220FF9CFFB
:101C7000012756E0299133230BB921F6077E1091F5
:101C80002801110FC651D0400BB911F01093220159
:101C900012E01CBB00611AB1177E402F477E5F9196
:101CA00000C000C00BB91AB94BB966CFA0E0B0E0D4
:101CB000ECE5FEE00C94980E7C01EB018A016901D1
:101CC00009C0CE012196F6010995F70181937F01A4
:101CD0000150104001151105A1F7CDB7DEB7E8E0BE
:101CE0000C94B40EA0E0B0E0E8E7FEE00C94980E8F
:101CF000EC017B018A01690109C0CE012196F7013F
:101D000061917F01F60109950150104001151105FF
:101D1000A1F7CDB7DEB7E8E00C94B40E2F923F9256
:101D20004F925F926F927F928F929F92AF92BF92EB
:101D3000CF92DF92EF92FF920F931F93CF93DF9397
:101D4000CDB7DEB7CA1BDB0B0FB6F894DEBF0FBEF4
:101D5000CDBF09942A88398848885F846E847D8441
:101D60008C849B84AA84B984C884DF80EE80FD8043
:101D70000C811B81AA81B981CE0FD11D0FB6F894B9
:0E1D8000DEBF0FBECDBFED010895F894FFCF7A
:021D8E005AFFFA
:00000001FF
