:100000000C9491000C94AE000C94CF0C0C94AE00A8
:100010000C94AE000C94AE000C94AE000C94AE00A8
:100020000C94AE000C94AE000C94AE000C94AE0098
:100030000C94AE000C94AE000C94AE000C94AE0088
:100040000C94AE000C94AE000C94AE000C94AE0078
:100050000C94AE000C94AE000C94AE000C94AE0068
:100060000C94AE000C94AE0005010905A101150029
:100070002501350045017501950D05091901290D69
:1000800081029503810105012507463B0175049511
:100090000165140939814265009501810126FF003F
:1000A00046FF000930093109320935750895048188
:1000B00002C0040309041C034F00700065006E00B9
:1000C000430068006F00720064002E006F00720031
:1000D00067001403560031002000470075006900D6
:1000E0007400610072001201100100000008BA12D1
:1000F0000002000101020001090229000101008043
:10010000320904000002030000000921010100017E
:10011000224A000705810308000A07058303080037
:100120000A0011241FBECFEFD4E0DEBFCDBF11E027
:10013000A0E0B1E0E8EDFCE102C005900D92A23034
:10014000B107D9F711E0A2E0B1E001C01D92AE34D1
:10015000B107E1F70E9420010C946A0E0C94000094
:100160009C01F999FECF32BD21BDF89A80B5089562
:100170009C01F999FECF1FBA32BD21BD60BD0FB6FB
:10018000F894FA9AF99A0FBE08951F93CF93DF93CC
:100190009BB121E030E002C0220F331F8A95E2F7C5
:1001A000122F822F809589238BB984E190E0000083
:1001B00001972FEF8F3F9207D1F783B183B183B1BE
:1001C00083B181FD03C0C2E0D0E002C0C0E0D0E056
:1001D00082FD03C0A4E0B0E002C0A0E0B0E083FD77
:1001E00003C0E8E0F0E002C0E0E0F0E084FD03C01E
:1001F00060E170E002C060E070E085FD03C040E2B5
:1002000050E002C040E050E026B130E0369527953E
:100210003695279520953095217030702C2B3D2BED
:100220002A2B3B2B2E2B3F2B262B372B8BB1182B1E
:100230001BB9242B352BC901DF91CF911F91089554
:100240002F923F924F925F926F927F928F929F92E6
:10025000AF92BF92CF92DF92EF92FF920F931F93D4
:10026000DF93CF93CDB7DEB7C552D1400FB6F89428
:10027000DEBF0FBECDBF0E94B50A209A8AE08A83F6
:10028000CE01019668E671E041E050E020EB30E0FD
:100290000E94FB0D8981BE016E5F7F4F823311F496
:1002A0008AEF01C082E38A8388E691E041E050E072
:1002B00028EB30E00E94170E0E9471040E948E0409
:1002C0008CE0FE017296DF01982F1D929A95E9F756
:1002D000FE017E96DF01982F1D929A95E9F7FE01A7
:1002E000BA96DF011D928A95E9F71E821D821B8254
:1002F0001C8218861F821D861C861B861A861986FC
:100300001E861F86188A198A3D98459A8824992442
:10031000ACE64A2E512C4C0E5D1EFEE62F2E312CE3
:100320002C0E3D1E87E090E00E94C5009BA78AA787
:1003300086E090E00E94C5009DA78CA785E090E034
:100340000E94C5009FA78EA782E090E00E94C50092
:1003500099AB88AB81E090E00E94C5009BAB8AAB73
:1003600080E090E00E94C500BC019DAB8CAB1D8677
:100370001C861B861A8619861E861F8626B130E0CB
:1003800041E050E0C901842795278170888B36951C
:100390002795242735272170298B2AA53BA52032B4
:1003A000310509F0EDC08CA59DA5892B09F0E8C0A9
:1003B0008EA59FA5809709F0E3C088A999A9892BEC
:1003C00009F0DEC08AA99BA9809709F0D9C0611500
:1003D000710509F0D5C08E0102551F4FF801118239
:1003E00010822CE030E0338322831582148266E091
:1003F000E62EF12CF782E6821186108682E090E0EC
:10040000938782879587848717861686518B408BC2
:10041000138A128A558B448B378B268B318F208F12
:10042000138E128EF58EE48E178E168E91A380A3F6
:1004300013A212A215A214A257A346A331A720A764
:1004400013A612A635A724A717A616A611AA10AAA6
:10045000F3AAE2AA15AA14AA57AB46AB11AE10AE86
:1004600053AF42AF80E090E0B8014CE350E028EB9E
:1004700030E00E94170E8EE090E0D80111969C9318
:100480008E9313969C938E93129715961C921E92A0
:10049000149717961C921E92169719961C921E92EC
:1004A00018971B969C938E931A971D961C921E92DA
:1004B0001C971F969C938E931E9751969C938E9398
:1004C000509753961C921E92529755969C938E93DA
:1004D000549757961C921E92569759961C921E92AC
:1004E00058975B96FC92EE925A975D96FC92EE922C
:1004F0005C975F96FC92EE925E9791961C921E928C
:10050000909793961C921E92929795961C921E928B
:10051000949797961C921E9296979996FC92EE92BB
:1005200098979B96FC92EE929A979D96FC92EE92EB
:100530009C979F961C921E929E97D1961C921E92FB
:10054000D097D3961C921E92D297D5961C921E924B
:10055000D497D7969C938E93D697D9969C938E9347
:10056000D897DB969C938E93DA9788E790E0B80152
:1005700048E750E028EB30E00E94170E9924F0C0C5
:10058000B2E09B1621F0E4E09E1609F0E9C0882055
:1005900009F091C02032310509F08AC08CA59DA5D3
:1005A000809709F085C08EA59FA5809709F080C02F
:1005B00088A999A9892B09F07BC08AA99BA9892BB5
:1005C00009F076C06115710509F072C0F2E09F165E
:1005D00009F06CC01FAA1EAA19AE18AE1BAE1AAE47
:1005E0001DAE1CAE1FAE1EAE22961FAE1EAE2297D3
:1005F00024961FAE1EAE249726961FAE1EAE2697DB
:1006000028961FAE1EAE28972A961FAE1EAE2A97BA
:100610002C961FAE1EAE2C972E961FAE1EAE2E979A
:1006200060961FAE1EAE609762961FAE1EAE6297BA
:1006300064961FAE1EAE649766961FAE1EAE66979A
:1006400068961FAE1EAE68976A961FAE1EAE6A977A
:100650006C961FAE1EAE6C976E961FAE1EAE6E975A
:10066000A0961FAE1EAEA097A2961FAE1EAEA2977A
:10067000A4961FAE1EAEA497A6961FAE1EAEA6975A
:10068000A8961FAE1EAEA897AA961FAE1EAEAA973A
:10069000AC961FAE1EAEAC97D2011D921C92F1011A
:1006A00011821082E2961FAE1EAEE29788248394D8
:1006B0001E821D821B82F1E08F1609F051C0232B90
:1006C00009F0E9C08CA59DA5809709F0E4C08EA52E
:1006D0009FA5809709F0DFC088A999A9809709F0A4
:1006E000DAC08AA99BA9892B09F0D5C0672B09F02C
:1006F000D2C082E0981641F480E090E0BE016A5CCE
:100700007F4F4CE350E027C094E0991661F588E7ED
:1007100090E0BE016A5C7F4F1CC08D819E81059771
:100720000CF4ADC08B81882309F0A9C01E821D8204
:10073000A6C0A4E09A1609F0A2C08D819E810A97F6
:100740000CF49DC08B81882309F099C088E790E064
:10075000B30148E750E028EB30E00E94170E03C0D9
:10076000882009F08CC08AA59BA58E319105E1F403
:100770008CA59DA54E9709F067C08EA59FA54E97A5
:1007800009F062C088A999A94E9709F05DC08AA9AD
:100790009BA94E9709F058C08CA99DA94E9709F0C6
:1007A00053C081E0898B50C0892B09F04DC08CA5C6
:1007B0009DA5892B09F048C08EA59FA58032910583
:1007C00089F488A999A9809709F03EC08AA99BA9B4
:1007D0008097D1F58CA99DA9892BB1F590FC34C0E7
:1007E000939432C0892B81F588A999A9892B61F549
:1007F0008AA99BA9892B41F58CA99DA9892B21F553
:10080000B5E09B1611F499241FC0E1E09E1669F42F
:10081000CE01C69660E070E04CE350E020EB30E0A3
:100820000E94FB0D52E0952E0FC0F3E09F1661F47D
:10083000CE01C69668E770E048E750E020EB30E074
:100840000E94FB0D44E0942E692DCE01099690FC88
:1008500012C0BE01665D7F4FAE014A5C5F4F292D1D
:100860008E010E5E1F4F3EE1E32EF12CEC0EFD1EBD
:100870000E94870803C070E00E949E0888240985B2
:100880001A852B853C854D855E856F85788989899C
:100890000E944D0A47CDB6E36B2E712C6C0E7D1E67
:1008A000CE010996BE016B5F7F4FA3019E01265DBD
:1008B0003F4F092DA3E0EA2EF12CEC0EFD1EF4E0D3
:1008C000CF2ED12CCC0EDD1EE7E0AE2EB12CAC0E1F
:1008D000BD1E0E94B408188A82E0981609F029CF3C
:1008E0001CCF2198299A22982A9A23982B9A2498E7
:1008F0002C9A25982D9A3898409A3998419A3A9886
:10090000429A579A5F9A569A5E9A559A5D9A529A67
:100910005A9A519A599A509A589A0895E4E6F0E0F2
:100920008081877F8083E0E8F0E080818F7780831B
:1009300080818F7B808380818F7D808380818F7E8B
:10094000808380818D7F808380818E7F8083E1E8BA
:10095000F0E08081877F808380818F7E80838081AB
:100960008460808380818D7F8083808181608083AB
:1009700008950F931F93CF93DF938C01FB01EA013E
:1009800020E030E041E0DB018D919C91119780FFE8
:1009900013C08E7F8D939C93233031053CF4D80196
:1009A00016964C93169715961C9206C0D80115966C
:1009B0004C93159716961C922F5F3F4F6E5F7F4F9B
:1009C0002630310501F74081518141155105A9F4C7
:1009D00082819381892B89F484819581892B69F4A3
:1009E00086819781892B49F480859185892B29F40B
:1009F00082859385892B09F431C2888199814817B2
:100A0000590739F5228133818A819B81281739075B
:100A100001F5248135818C819D8128173907C9F41E
:100A2000268137818E819F812817390791F420858F
:100A30003185888599852817390759F422853385AA
:100A40008A859B852817390721F481E0F801808386
:100A500005C2DE011C968C859D854817590781F5D6
:100A60002281338112968D919C9113972817390713
:100A700039F52481358114968D919C91159728170D
:100A80003907F1F42681378116968D919C9117973D
:100A900028173907A9F42085318518968D919C91E6
:100AA00019972817390761F4228533851A968D9195
:100AB0009C911B972817390719F481E0D801DDC0F4
:100AC000DE015896888D998D4817590781F5228146
:100AD000338112968D919C9113972817390739F518
:100AE0002481358114968D919C911597281739078B
:100AF000F1F42681378116968D919C9117972817CE
:100B00003907A9F42085318518968D919C91199704
:100B10002817390761F4228533851A968D919C91A7
:100B20001B972817390719F481E0F80158C1DE0135
:100B300094968CA19DA14817590781F52281338194
:100B400012968D919C9113972817390739F52481B6
:100B5000358114968D919C91159728173907F1F4DA
:100B60002681378116968D919C9117972817390702
:100B7000A9F42085318518968D919C911997281795
:100B8000390761F4228533851A968D919C911B97C4
:100B90002817390719F481E0D8015EC1DE01D0962B
:100BA00088A999A94817590789F522813381129696
:100BB0008D919C9113972817390741F52481358130
:100BC00014968D919C91159728173907F9F4268171
:100BD000378116968D919C91179728173907B1F494
:100BE0002085318518968D919C9119972817390782
:100BF00069F4228533851A968D919C911B9728174D
:100C0000390721F481E0F801848328C1DE01DC96F4
:100C10008CAD9DAD4817590799F522813381129605
:100C20008D919C9113972817390751F524813581AF
:100C300014968D919C9115972817390709F52681EF
:100C4000378116968D919C91179728173907C1F413
:100C50002085318518968D919C9119972817390711
:100C600079F4228533851A968D919C911B972817CC
:100C7000390731F481E0D8018C9311968C93EEC042
:100C8000DE01A85BBF4F8D919C91119748175907C2
:100C900089F52281338112968D919C9113972817A3
:100CA000390741F52481358114968D919C911597D2
:100CB00028173907F9F42681378116968D919C9172
:100CC000179728173907B1F42085318518968D912B
:100CD0009C9119972817390769F4228533851A964C
:100CE0008D919C911B972817390721F481E0F80119
:100CF000818375C0DE01AC5ABF4F8D919C911197D5
:100D00004817590799F52281338112968D919C914C
:100D100013972817390751F52481358114968D9141
:100D20009C9115972817390709F526813781169662
:100D30008D919C91179728173907C1F4208531852B
:100D400018968D919C9119972817390779F4228567
:100D500033851A968D919C911B972817390731F48A
:100D600081E0D80112968C93129776C0DE01A05ACA
:100D7000BF4F8D919C9111974817590791F522818A
:100D8000338112968D919C9113972817390749F555
:100D90002481358114968D919C91159728173907D8
:100DA00001F52681378116968D919C91179728170A
:100DB0003907B9F42085318518968D919C91199742
:100DC0002817390771F4228533851A968D919C91E5
:100DD0001B972817390729F481E0F8018083828363
:100DE0003DC0DE01A459BF4F8D919C9111974817CA
:100DF0005907A1F52281338112968D919C91139709
:100E00002817390759F52481358114968D919C91C5
:100E100015972817390711F52681378116968D9178
:100E20009C91179728173907C9F4208531851896A2
:100E30008D919C9119972817390781F42285338564
:100E40001A968D919C911B972817390739F481E0E8
:100E5000D80111968C93119713968C93DF91CF91B3
:100E60001F910F910895EF92FF920F931F93CF93CD
:100E7000DF93DC01FB0115961C92159716961C92C8
:100E80001697808180FF04C081E016968C93169798
:100E90007A01BA016C5D7F4F4FEF00E050E011E046
:100EA00080819181009709F482C081309105C1F55C
:100EB000E70188819981019711F41C93452F2081C6
:100EC0003181E7018C859D852817390721F411961A
:100ED0001C931197452F20813181E701888D998DD1
:100EE0002817390721F412961C931297452F208159
:100EF0003181EB01888199812817390721F41396F4
:100F00001C931397452F20813181EB018C859D85A2
:100F10002817390739F414961C931497452F02C0EB
:100F2000082F0170208131812E7F31832083E701DA
:100F3000888199812817390719F4232B09F01C930C
:100F400020813181E7018C859D852817390729F497
:100F5000232B19F011961C93119720813181E70101
:100F6000888D998D2817390729F4232B19F01296AB
:100F70001C93129720813181EB0188819981281778
:100F8000390729F4232B19F013961C93139720810A
:100F90003181EB018C859D852817390729F4232B96
:100FA00019F014961C931497013009F4452F3296CA
:100FB0005F5F82E090E0E80EF91E6E5F7F4F563073
:100FC00009F06ECF433020F481E016968C930BC06D
:100FD0004350433040F416968C911697813019F0A7
:100FE00081E015968C93DF91CF911F910F91FF9027
:100FF000EF900895AF92BF92CF92DF92FF920F933E
:101000001F93CF93DF93FC015B01D801890160E05E
:1010100070E0FF24F39481E0C82ED12CE501888193
:10102000982F9071282F2870382F3470482F4270D5
:1010300085FF07C0992371F08481882321F4F4820D
:1010400040C0992339F0222371F08381882321F451
:10105000F38237C0222339F0332371F08281882351
:1010600021F4F2822EC0332339F0442351F18181DF
:10107000882321F4F18225C0442319F18D919C919C
:101080001197892B59F48091840090918500E80193
:10109000998388831196DC92CE9216C020918400A9
:1010A00030918500E801488159818081882361F46D
:1010B00021503040241B350B2436310528F0F082B6
:1010C00003C011961C921E92E501888180FF08C022
:1010D000633071051CF4F682158202C0F582168217
:1010E0006F5F7F4F82E090E0A80EB91E12960E5FF0
:1010F0001F4F6630710509F091CFDF91CF911F919D
:101100000F91FF90DF90CF90BF90AF900895EF9236
:10111000FF920F931F93243019F40E94B90409C061
:10112000223019F40E94330704C0980187010E94FD
:10113000FA071F910F91FF90EF900895FC01613025
:10114000710521F481E08383828308956330710502
:1011500021F481E08383848308956530710519F457
:1011600081E0828384830895AF92BF92CF92DF9211
:10117000EF92FF920F93CF93DF93FC01DB01B90154
:1011800095018D919C911197009719F481E08083CE
:1011900034C08130910511F481E015C08230910591
:1011A00011F481E023C08330910511F481E024C063
:1011B0008430910519F481E084831FC08530910546
:1011C00021F481E08083818318C08630910519F471
:1011D00081E081830BC08730910519F481E082831F
:1011E0000BC08830910521F481E08083828305C0A3
:1011F000099719F481E0818383838781882309F12A
:10120000E6018881882359F48091840090918500BB
:10121000E9019983888381E0E601888310C0809189
:10122000840090918500E90128813981821B930B0C
:10123000885E934040F480918400909185001782ED
:1012400002C0E60118828781882309F4F7C0F701FC
:101250008081882309F0F4C0043009F060C08D91CA
:101260009C911197FC01EE0FFF1FE80FF91FEE0F85
:10127000FF1FEE0FFF1FE40FF51F118210828D91EB
:101280009C911197FC01EE0FFF1FE80FF91FEE0F65
:10129000FF1FEE0FFF1FE40FF51F138212828D91C7
:1012A0009C911197FC01EE0FFF1FE80FF91FEE0F45
:1012B000FF1FEE0FFF1FE40FF51F158214828D91A3
:1012C0009C911197FC01EE0FFF1FE80FF91FEE0F25
:1012D000FF1FEE0FFF1FE40FF51F178216828D917F
:1012E0009C911197FC01EE0FFF1FE80FF91FEE0F05
:1012F000FF1FEE0FFF1FE40FF51F118610868D9163
:101300009C911197FC01EE0FFF1FE80FF91FEE0FE4
:10131000FF1FEE0FFF1FE40FF51F138612868D913E
:101320009C911197FC01EE0FFF1FE80FF91FEE0FC4
:10133000FF1FEE0FFF1FE40FF51F80819181EB016E
:1013400028813981822B932B918380838D919C916D
:101350001197FC01EE0FFF1FE80FF91FEE0FFF1FA3
:10136000EE0FFF1FE40FF51F828193812A813B81DD
:10137000822B932B938382838D919C911197FC01F7
:10138000EE0FFF1FE80FF91FEE0FFF1FEE0FFF1FFD
:10139000E40FF51F848195812C813D81822B932B55
:1013A000958384838D919C911197FC01EE0FFF1F13
:1013B000E80FF91FEE0FFF1FEE0FFF1FE40FF51FE1
:1013C000868197812E813F81822B932B9783868301
:1013D0008D919C911197FC01EE0FFF1FE80FF91FF3
:1013E000EE0FFF1FEE0FFF1FE40FF51F80859185A5
:1013F00028853985822B932B918780878D919C91AD
:101400001197FC01EE0FFF1FE80FF91FEE0FFF1FF2
:10141000EE0FFF1FE40FF51F828593852A853B851C
:10142000822B932B9387828781E0F70180838D91B4
:101430009C91119701968D939C9302C0E7011882AD
:10144000DF91CF910F91FF90EF90DF90CF90BF9001
:10145000AF900895FC01808180768032E1F4818133
:10146000813041F485E091E090932701809326013B
:1014700087E00895823041F482E091E09093270163
:101480008093260181E008958A3029F48381809336
:10149000020180E0089580E008950F931F93DF9389
:1014A000CF93CDB7DEB729970FB6F894DEBF0FBE46
:1014B000CDBF902F0983F12F1A83E22F2B83A32F07
:1014C0003C83342F4D83B52F5E83462F6F83272FA8
:1014D00078878987582F1092060188E0809307014A
:1014E00080E8809308018093090180930A0110929B
:1014F0000B013295307F3A2BFF0FFF0FEE0FEE0FEF
:10150000EE0FEF2B990F9E2B932B90930501BB238E
:1015100011F010920701442319F084E08093070131
:10152000220F80910601822B809306015295550F60
:10153000507E80910501852B80930501A8950E941E
:10154000890B8091170184FF05C085E091E067E079
:101550000E94670B29960FB6F894DEBF0FBECDBF71
:10156000CF91DF911F910F9108952EE088E190E0D7
:101570000FB6F894A895809360000FBE209360008A
:101580000E94340B549A20E040EA5FE004C0A89522
:10159000CA010197F1F72150D1F7549878940E942D
:1015A000890B0895DF92EF92FF920F931F93CF93D1
:1015B000DF93F89400E080E8D82EEE24FF241D2D60
:1015C000100F109366000E94BC0CEC0188E0CC3E2A
:1015D000D8070CF0102FD6940894E11CF11C88E079
:1015E000E816F10411F0012FEACF115010936600B4
:1015F0001F5FE12EFF240894E11CF11C17C00E941C
:10160000BC0C9C012C5E384037FF03C030952195FF
:101610003F4F2C173D0714F09E0102C01091660049
:10162000809166008F5F80936600E901809166007B
:1016300090E0E816F9061CF7109366007894809104
:101640006600F999FECF1FBA12BC11BC80BD0FB65F
:10165000F894FA9AF99A0FBEDF91CF911F910F91EA
:10166000FF90EF90DF900895E9E6F0E080818C60D4
:101670008083E99A8BE480931801809343018AE583
:10168000809317018093420108951F93DC01162F68
:101690008091420184FF07C08091430198E8892727
:1016A0008093430103C08AE580934201912FE4E4D3
:1016B000F1E08D9181939150E1F784E491E0612F05
:1016C0000E94B80C1C5F109342011F9108951F9354
:1016D000DC01162F8091170184FF07C0809118014B
:1016E00098E889278093180103C08AE58093170141
:1016F000912FE9E1F1E08D9181939150E1F789E13A
:1017000091E0612F0E94B80C1C5F109317011F918C
:1017100008951F93CF93DF9390912801935097FDE5
:10172000A8C020912501809124018D3209F09FC02D
:10173000983009F09CC0CCE0D0E0C21BD109C45D58
:10174000DE4F83EC80930C018AE5809300011092B8
:1017500004018881807629F0CE010E942A0A282F70
:101760007DC09A81109215018981882321F41092FD
:10177000160122E06DC0853019F49093290167C0ED
:10178000863009F04EC08B81813041F486EE90E0C6
:10179000909327018093260122E13FC0823041F4DB
:1017A00088EF90E0909327018093260129E235C0CD
:1017B0008330F1F4992341F482EB90E09093270178
:1017C0008093260124E029C0913041F486EB90E01B
:1017D00090932701809326012CE11FC09230E1F401
:1017E00082ED90E0909327018093260124E115C0BB
:1017F000813241F48AE091E09093270180932601A1
:1018000029E00BC0823241F488E690E090932701F2
:10181000809326012AE401C020E080E48093040143
:101820001DC0883021F421E08BE291E013C08930A3
:1018300019F490932B010BC08A3011F421E008C0F9
:101840008B3029F48BE4809318018093430120E0CE
:1018500085E191E090932701809326018F81882371
:1018600021F48E81821708F4282F20930101109211
:1018700028018091000184FF4AC0809101018F3FBF
:1018800009F445C0182F893008F018E0811B8093B7
:10189000010180910C0198E8892780930C011123A4
:1018A00041F120912601309127018091040186FFAA
:1018B0000DC0ADE0B1E080E090E0F901E80FF91F64
:1018C000E491ED9301961817C1F708C0912FD90143
:1018D000EDE0F1E08D9181939150E1F71150812F6E
:1018E00090E01F5F0196820F931F909327018093D2
:1018F00026018DE091E0612F0E94B80C612F6C5F92
:101900006C3019F08FEF809301016093000194E136
:1019100089B1887131F49150D9F710922901109250
:10192000230110E0992309F411E08091030181174C
:1019300031F0112311F40E94D20A10930301DF91B8
:10194000CF911F910895A82FB92F80E090E041E03A
:1019500050EA609530E009C02D91822797958795D0
:1019600010F084279527305EC8F36F5FA8F30895C1
:10197000EADF8D939D930895A6E088279927AA957D
:1019800069F00197E1F34C99FCCF4C9BFECF81E0CD
:101990009927A9B1019611F0A871D9F70895CF93AD
:1019A000CFB7CF93DF93C3954C9BE9F74C9B0BC00C
:1019B0004C9B09C04C9B07C04C9B05C04C9B03C073
:1019C0004C9B01C08BC06F93C0912501DD27C45D86
:1019D000DE4F2F9365E54C9B03C02F916F91E6CFAF
:1019E0000F931F934F9320E040E15F9309B108717B
:1019F00004FB27F93F9350E03BE039C01871406485
:101A00002F77012F5F5F1EC0406819B118712F77C3
:101A100052501FC0406409B12F770871D1F15F5F48
:101A200000C023C0406219B12F77187191F15F5F38
:101A300000C025C008711027515012F45D5F0000EE
:101A4000115027952C3F19B1C8F618710127015084
:101A500027952C3FC8F64227499309B108711027F2
:101A60004F73115027952C3FA8F64695469519B10E
:101A7000187179F00127015027952C3F98F66B5A81
:101A800060F3315009B1B0F600C012E01CBB002772
:101A900019C03B503195C31BD04012E01CBB0881DC
:101AA000033C09F10B34F9F0209123011981110F46
:101AB0001213EDCF4A81441F093651F10D3211F056
:101AC000013E29F700932A013F915F914F911F91A9
:101AD0000F912F916F91CCB3C1FD65CFDF91CF9165
:101AE000CFBFCF91189520912A01222369F310913D
:101AF00028011123E9F53430EAF1309328012093CD
:101B00002401109125013BE0311B3093250132C0A7
:101B100000912801013064F50AE54F7049F43091D5
:101B2000000134FD28C000930001CCE0D1E027C0C3
:101B3000413549F03091170134FD1DC00093170164
:101B4000C8E1D1E01CC03091420134FD14C00093C3
:101B50004201C3E4D1E013C0052710E000C000003B
:101B60000BB91AC0052710E0221F1DC010E021C0CC
:101B70004AE502C032ED432FC4E1D0E032E01AB1B1
:101B800018615C9A0BB11AB958E120E865E320FFAF
:101B900005270BB9279517951C3FF0F66695B8F702
:101BA000B1F720FF05270BB9279517951C3FD0F6F5
:101BB0002795179517FF052700001C3F0BB9B0F6B6
:101BC00029913A9519F7077E10912901110FC651F5
:101BD000D0400BB911F01093230112E01CBB00613F
:101BE0001AB1177E402F477E54E05A95F1F70BB992
:101BF0001AB94BB969CFA0E0B0E0E1E0FEE00C9487
:101C00003D0E7C01EB018A01690109C0CE012196DC
:101C1000F6010995F70181937F01015010400115EC
:101C20001105A1F7CDB7DEB7E8E00C94590EA0E09E
:101C3000B0E0EDE1FEE00C943D0EEC017B018A0189
:101C4000690109C0CE012196F70161917F01F6017A
:101C500009950150104001151105A1F7CDB7DEB768
:101C6000E8E00C94590E2F923F924F925F926F9240
:101C70007F928F929F92AF92BF92CF92DF92EF921C
:101C8000FF920F931F93CF93DF93CDB7DEB7CA1B9D
:101C9000DB0B0FB6F894DEBF0FBECDBF09942A88C8
:101CA000398848885F846E847D848C849B84AA8470
:101CB000B984C884DF80EE80FD800C811B81AA81FD
:101CC000B981CE0FD11D0FB6F894DEBF0FBECDBFC8
:081CD000ED010895F894FFCF27
:021CD8005AFFB1
:00000001FF
