:100000000C9491000C94AE000C94A50C0C94AE00D2
:100010000C94AE000C94AE000C94AE000C94AE00A8
:100020000C94AE000C94AE000C94AE000C94AE0098
:100030000C94AE000C94AE000C94AE000C94AE0088
:100040000C94AE000C94AE000C94AE000C94AE0078
:100050000C94AE000C94AE000C94AE000C94AE0068
:100060000C94AE000C94AE0005010905A101150029
:100070002501350045017501950D05091901290D69
:1000800081029503810105012507463B0175049511
:100090000165140939814265009501810126FF003F
:1000A00046FF000930093109320935750895048188
:1000B00002C0040309041C034F00700065006E00B9
:1000C000430068006F00720064002E006F00720031
:1000D00067001403560031002000470075006900D6
:1000E0007400610072001201100100000008BA12D1
:1000F0000002000101020001090229000101008043
:10010000320904000002030000000921010100017E
:10011000224A000705810308000A07058303080037
:100120000A0011241FBECFEFD4E0DEBFCDBF11E027
:10013000A0E0B1E0E4E8FCE102C005900D92A2303D
:10014000B107D9F711E0A2E0B1E001C01D92AD34D2
:10015000B107E1F70E9406010C94400E0C940000D8
:100160009C01F999FECF32BD21BDF89A80B5089562
:100170009C01F999FECF1FBA32BD21BD60BD0FB6FB
:10018000F894FA9AF99A0FBE089584E190E000007D
:1001900001972FEF8F3F9207D1F7199B03C0A0E083
:1001A000B0E002C0A2E0B0E01A9B03C0E0E0F0E0E3
:1001B00002C0E4E0F0E01B9B03C060E070E002C01E
:1001C00068E070E01C9B03C040E050E002C040E1EA
:1001D00050E01D9B03C080E090E002C080E290E010
:1001E00026B130E0369527953695279520953095A0
:1001F000217030702A2B3B2B2E2B3F2B262B372B9D
:10020000242B352B282B392BC90108952F923F928F
:100210004F925F926F927F928F929F92AF92BF9216
:10022000CF92DF92EF92FF920F931F93DF93CF93C2
:10023000CDB7DEB7C554D1400FB6F894DEBF0FBEC0
:10024000CDBF0E940E0B0E94CA040E94E7048CE0FE
:10025000DE015096FD01282F11922A95E9F79E01A3
:10026000245E3F4FF901982F11929A95E9F7AE015C
:10027000405C5F4FFA0111928A95E9F71C821B825C
:1002800019821A821E821D821B861A86198618867A
:100290001F821C861D861E861F864424552494E3D7
:1002A000292E312C2C0E3D1EC1010C96C45CDE4F54
:1002B00099838883CC53D140FA01C05CDE4F4883D8
:1002C000C054D140CF5BDE4FF883C154D140F1011F
:1002D0003E96C25CDE4FF983E883CE53D1408CE476
:1002E000682E712C6C0E7D1ECE5BDE4FA883C2542F
:1002F000D140CD5BDE4FB883C354D140CC5BDE4FE1
:100300002883C454D140CB5BDE4F3883C554D140E1
:1003100004EC802E912C8C0E9D1E6BB187E090E03A
:100320000E94C5009DAB8CAB6BB186E090E00E9453
:10033000C5009FAB8EAB6BB185E090E00E94C5001D
:1003400099AF88AF6BB182E090E00E94C5009BAF8F
:100350008AAF6BB181E090E00E94C5009DAF8CAF89
:100360006BB180E090E00E94C5009FAF8EAF84E14A
:1003700090E000000197FFEF8F3F9F07D1F7329980
:100380000FC0F101808191818E7F81939193C45C34
:10039000DE4F88819981CC53D140E817F90791F756
:1003A0009101BE01685D7F4FC05CDE4F8881C05403
:1003B000D140CF5BDE4F9881C154D140FC01D901BF
:1003C0004D915C91DB018D919C914817590719F46F
:1003D0001182108205C08081918101969183808372
:1003E0008081918144972CF0DB014D935C931182C5
:1003F00010822E5F3F4F6E5F7F4F3296C25CDE4FA2
:1004000088819981CE53D14028173907C1F61B86C0
:100410001A86198618861F821C861D8686B141E0C1
:1004200050E0842781708E8786B190E096958795FD
:100430008427952781708F8788A599A5809709F0D3
:10044000EAC08AA59BA5892B09F0E5C08CA59DA5CE
:10045000809709F0E0C08EA59FA5892B09F0DBC02D
:1004600088A999A9809709F0D6C08AA99BA9892B48
:1004700009F0D1C0D40111961C921E922CE030E0FC
:1004800013963C932E93129715961C921E921497D6
:1004900006E010E017961C930E93169719961C927F
:1004A0001E92189782E090E01B969C938E931A9769
:1004B0001D969C938E931C971F961C921E921E97BE
:1004C00051965C934E93509753961C921E9252975E
:1004D00055965C934E93549757963C932E9356970C
:1004E00059963C932E9358975B961C921E925A975E
:1004F0005D961C930E935C975F961C921E925E977E
:1005000091969C938E93909793961C921E9292979D
:1005100095961C921E92949797965C934E939697FD
:1005200099963C932E9398979B961C921E929A971D
:100530009D963C932E939C979F961C921E929E97FD
:10054000D1961C921E92D097D3961C930E93D2975D
:10055000D5961C921E92D497D7965C934E93D697BD
:10056000D9961C921E92D897DB965C934E93DA979D
:1005700080E090E0B4014CE350E028EB30E00E94D2
:10058000ED0D8EE090E0F40191838083938382836C
:1005900015821482178216821186108693878287AD
:1005A0001586148697878687918B808B138A128A8B
:1005B000958B848B178A168A118E108E138F028F5B
:1005C000158F048F178F068F11A210A213A212A2EB
:1005D00015A214A217A216A211A700A713A702A77B
:1005E00015A704A717A616A611AA10AA13AA12AA3D
:1005F00015AA14AA97AB86AB91AF80AF93AF82AF29
:1006000088E790E0B40148E750E028EB30E00E9432
:10061000ED0D5524FBC0F2E05F1621F024E05216E8
:1006200009F0F4C0442009F09FC088A599A58097DF
:1006300009F097C08AA59BA5809709F092C08CA568
:100640009DA5809709F08DC08EA59FA5892B09F0E7
:1006500088C088A999A9892B09F083C08AA99BA978
:10066000892B09F07EC082E0581609F078C0D301CA
:1006700011961C921E9213961C921E92129715961A
:100680001C921E92149717961C921E9216971996FA
:100690001C921E9218971B961C921E921A971D96DA
:1006A0001C921E921C971F961C921E921E9751968A
:1006B0001C921E92509753961C921E9252975596DA
:1006C0001C921E92549757961C921E9256975996BA
:1006D0001C921E9258975B961C921E925A975D969A
:1006E0001C921E925C975F961C921E925E9791964A
:1006F0001C921E92909793961C921E92929795969A
:100700001C921E92949797961C921E929697999679
:100710001C921E9298979B961C921E929A979D9659
:100720001C921E929C979F961C921E929E97D19609
:100730001C921E92D097D3961C921E92D297D59659
:100740001C921E92D497D7961C921E92D697D99639
:100750001C921E92D897DB961C921E92DA97442424
:1007600043941C821B821982B1E04B1609F04EC0E3
:1007700088A599A5892B09F0EDC08AA59BA580972E
:1007800009F0E8C08CA59DA5809709F0E3C08EA56F
:100790009FA5809709F0DEC088A999A9892B09F047
:1007A000D9C08AA99BA9892B09F0D4C0E2E05E16C2
:1007B00031F480E090E0B3014CE350E022C0F4E07B
:1007C0005F1639F519C08B819C8105970CF4B6C072
:1007D0008981882309F0B2C01C821B82AFC024E04B
:1007E000521609F0ABC08B819C810A970CF4A6C00D
:1007F0008981882309F0A2C088E790E0B30148E727
:1008000050E028EB30E00E94ED0D03C0442009F0D9
:1008100095C088A599A58E319105E1F48AA59BA57F
:100820004E9709F064C08CA59DA54E9709F05FC056
:100830008EA59FA54E9709F05AC088A999A94E97F1
:1008400009F055C08AA99BA94E9709F050C081E0D4
:100850008F874DC0892B09F04AC08AA59BA5892B9B
:1008600009F045C08CA59DA58032910581F48EA527
:100870009FA58097E1F588A999A98097C1F58AA9D4
:100880009BA9892BA1F550FC32C0539430C0892B11
:1008900071F58EA59FA5892B51F588A999A9892B5A
:1008A00031F58AA99BA9892B11F595E0591611F408
:1008B00055241DC0A1E05A1661F4C30160E070E048
:1008C0004CE350E020EB30E00E94D10DB2E05B2E13
:1008D0000EC0B3E05B1659F4C30168E770E048E767
:1008E00050E020EB30E00E94D10DA4E05A2E652D9F
:1008F00050FC1EC0CE010796BE01685D7F4FA3016C
:10090000252DCE5BDE4F0881C254D140CD5BDE4F3A
:100910001881C354D140CC5BDE4FE880C454D14031
:10092000CB5BDE4FF880C554D1400E94E00805C083
:10093000CE01079670E00E94F70844240F811885C5
:1009400029853A854B855C856D857E858F850E94DE
:10095000A60AE3CCCE010796BE016D5F7F4FA301CF
:100960009E01285D3F4F052D7E010894E11CF11C7E
:10097000F2E0CF2ED12CCC0EDD1EE5E0AE2EB12C58
:10098000AC0EBD1E0E940D091E86E2E05E1609F047
:1009900026CF19CF2198299A22982A9A23982B9A00
:1009A00024982C9A25982D9A3898409A3998419AEB
:1009B0003A98329A579A5F9A569A5E9A559A5D9AE1
:1009C000529A5A9A519A599A509A589A0895E4E626
:1009D000F0E08081877F8083E0E8F0E080818F779E
:1009E000808380818F7B808380818F7D80838081E5
:1009F0008F7E808380818D7F808380818E7F8083C6
:100A0000E1E8F0E08081877F808380818F7E808332
:100A100080818460808380818D7F808380818160FC
:100A2000808308950F931F93CF93DF938C01FB0175
:100A3000EA0120E030E041E0DB018D919C911197CB
:100A400080FF13C08E7F8D939C93233031053CF43F
:100A5000D80116964C93169715961C9206C0D8018D
:100A600015964C93159716961C922F5F3F4F6E5F0D
:100A70007F4F2630310501F74081518141155105E5
:100A8000A9F482819381892B89F484819581892BB2
:100A900069F486819781892B49F480859185892B1A
:100AA00029F482859385892B09F431C28881998143
:100AB0004817590739F5228133818A819B8128178C
:100AC000390701F5248135818C819D8128173907EB
:100AD000C9F4268137818E819F812817390791F4C7
:100AE00020853185888599852817390759F422850D
:100AF00033858A859B852817390721F481E0F80121
:100B0000808305C2DE011C968C859D854817590798
:100B100081F52281338112968D919C91139728172C
:100B2000390739F52481358114968D919C9115975B
:100B300028173907F1F42681378116968D919C91FB
:100B4000179728173907A9F42085318518968D91B4
:100B50009C9119972817390761F4228533851A96D5
:100B60008D919C911B972817390719F481E0D801C2
:100B7000DDC0DE015896888D998D4817590781F59B
:100B80002281338112968D919C91139728173907F2
:100B900039F52481358114968D919C9115972817EC
:100BA0003907F1F42681378116968D919C9117971C
:100BB00028173907A9F42085318518968D919C91C5
:100BC00019972817390761F4228533851A968D9174
:100BD0009C911B972817390719F481E0F80158C137
:100BE000DE0194968CA19DA14817590781F52281B9
:100BF000338112968D919C9113972817390739F5F7
:100C00002481358114968D919C9115972817390769
:100C1000F1F42681378116968D919C9117972817AC
:100C20003907A9F42085318518968D919C911997E3
:100C30002817390761F4228533851A968D919C9186
:100C40001B972817390719F481E0D8015EC1DE012E
:100C5000D09688A999A94817590789F52281338127
:100C600012968D919C9113972817390741F524818D
:100C7000358114968D919C91159728173907F9F4B1
:100C80002681378116968D919C91179728173907E1
:100C9000B1F42085318518968D919C91199728176C
:100CA000390769F4228533851A968D919C911B979B
:100CB0002817390721F481E0F801848328C1DE0177
:100CC000DC968CAD9DAD4817590799F5228133818B
:100CD00012968D919C9113972817390751F524810D
:100CE000358114968D919C9115972817390709F530
:100CF0002681378116968D919C9117972817390771
:100D0000C1F42085318518968D919C9119972817EB
:100D1000390779F4228533851A968D919C911B971A
:100D20002817390731F481E0D8018C9311968C9300
:100D3000EEC0DE01A85BBF4F8D919C9111974817C3
:100D4000590789F52281338112968D919C911397D1
:100D50002817390741F52481358114968D919C918E
:100D6000159728173907F9F42681378116968D9142
:100D70009C91179728173907B1F42085318518966B
:100D80008D919C9119972817390769F4228533852D
:100D90001A968D919C911B972817390721F481E0B1
:100DA000F801818375C0DE01AC5ABF4F8D919C91D3
:100DB00011974817590799F52281338112968D9121
:100DC0009C9113972817390751F524813581149682
:100DD0008D919C9115972817390709F52681378140
:100DE00016968D919C91179728173907C1F4208585
:100DF000318518968D919C9119972817390779F4A8
:100E0000228533851A968D919C911B972817390757
:100E100031F481E0D80112968C93129776C0DE01EE
:100E2000A05ABF4F8D919C9111974817590791F582
:100E30002281338112968D919C911397281739073F
:100E400049F52481358114968D919C911597281729
:100E5000390701F52681378116968D919C91179758
:100E600028173907B9F42085318518968D919C9102
:100E700019972817390771F4228533851A968D91B1
:100E80009C911B972817390729F481E0F80180838A
:100E900082833DC0DE01A459BF4F8D919C91119773
:100EA00048175907A1F52281338112968D919C91A3
:100EB00013972817390759F52481358114968D9198
:100EC0009C9115972817390711F5268137811696B9
:100ED0008D919C91179728173907C9F42085318582
:100EE00018968D919C9119972817390781F42285BE
:100EF00033851A968D919C911B972817390739F4E1
:100F000081E0D80111968C93119713968C93DF9101
:100F1000CF911F910F910895EF92FF920F931F931E
:100F2000CF93DF93DC01FB0115961C921597169663
:100F30001C921697808180FF04C081E016968C93E6
:100F400016977A01BA016C5D7F4F4FEF00E050E0D9
:100F500011E080819181009709F482C08130910570
:100F6000C1F5E70188819981019711F41C93452F00
:100F700020813181E7018C859D852817390721F46F
:100F800011961C931197452F20813181E701888D9F
:100F9000998D2817390721F412961C931297452F23
:100FA00020813181EB01888199812817390721F44B
:100FB00013961C931397452F20813181EB018C856B
:100FC0009D852817390739F414961C931497452FDB
:100FD00002C0082F0170208131812E7F3183208350
:100FE000E701888199812817390719F4232B09F023
:100FF0001C9320813181E7018C859D852817390755
:1010000029F4232B19F011961C931197208131811B
:10101000E701888D998D2817390729F4232B19F0BA
:1010200012961C93129720813181EB01888199815E
:101030002817390729F4232B19F013961C931397BB
:1010400020813181EB018C859D852817390729F492
:10105000232B19F014961C931497013009F4452F93
:1010600032965F5F82E090E0E80EF91E6E5F7F4F80
:10107000563009F06ECF433020F481E016968C9301
:101080000BC04350433040F416968C911697813034
:1010900019F081E015968C93DF91CF911F910F91FC
:1010A000FF90EF900895AF92BF92CF92DF92FF92A0
:1010B0000F931F93CF93DF93FC015B01D80189014C
:1010C00060E070E0FF24F39481E0C82ED12CE501AC
:1010D0008881982F9071282F2870382F3470482FCE
:1010E000427085FF07C0992371F08481882321F421
:1010F000F48240C0992339F0222371F08381882340
:1011000021F4F38237C0222339F0332371F0828136
:10111000882321F4F2822EC0332339F0442351F185
:101120008181882321F4F18225C0442319F18D9116
:101130009C911197892B59F480918400909185009E
:10114000E801998388831196DC92CE9216C0209193
:10115000840030918500E80148815981808188238D
:1011600061F421503040241B350B2436310528F022
:10117000F08203C011961C921E92E501888180FFC7
:1011800008C0633071051CF4F682158202C0F58236
:1011900016826F5F7F4F82E090E0A80EB91E129614
:1011A0000E5F1F4F6630710509F091CFDF91CF912F
:1011B0001F910F91FF90DF90CF90BF90AF90089557
:1011C000EF92FF920F931F93243019F40E9412059F
:1011D00009C0223019F40E948C0704C098018701CD
:1011E0000E9453081F910F91FF90EF900895FC010A
:1011F0006130710521F481E0838382830895633037
:10120000710521F481E0838384830895653071053D
:1012100019F481E0828384830895AF92BF92CF92C4
:10122000DF92EF92FF920F93CF93DF93FC01DB01EC
:10123000B90195018D919C911197009719F481E066
:10124000808334C08130910511F481E015C0823073
:10125000910511F481E023C08330910511F481E000
:1012600024C08430910519F481E084831FC0853047
:10127000910521F481E08083818318C08630910537
:1012800019F481E081830BC08730910519F481E066
:1012900082830BC08830910521F481E080838283B2
:1012A00005C0099719F481E08183838387818823AE
:1012B00009F1E6018881882359F480918400909196
:1012C0008500E9019983888381E0E601888310C065
:1012D0008091840090918500E90128813981821BE9
:1012E000930B885E934040F4809184009091850038
:1012F000178202C0E60118828781882309F4F7C0AB
:10130000F7018081882309F0F4C0043009F060C03F
:101310008D919C911197FC01EE0FFF1FE80FF91FB3
:10132000EE0FFF1FEE0FFF1FE40FF51F118210825B
:101330008D919C911197FC01EE0FFF1FE80FF91F93
:10134000EE0FFF1FEE0FFF1FE40FF51F1382128237
:101350008D919C911197FC01EE0FFF1FE80FF91F73
:10136000EE0FFF1FEE0FFF1FE40FF51F1582148213
:101370008D919C911197FC01EE0FFF1FE80FF91F53
:10138000EE0FFF1FEE0FFF1FE40FF51F17821682EF
:101390008D919C911197FC01EE0FFF1FE80FF91F33
:1013A000EE0FFF1FEE0FFF1FE40FF51F11861086D3
:1013B0008D919C911197FC01EE0FFF1FE80FF91F13
:1013C000EE0FFF1FEE0FFF1FE40FF51F13861286AF
:1013D0008D919C911197FC01EE0FFF1FE80FF91FF3
:1013E000EE0FFF1FEE0FFF1FE40FF51F80819181AD
:1013F000EB0128813981822B932B918380838D91FE
:101400009C911197FC01EE0FFF1FE80FF91FEE0FE3
:10141000FF1FEE0FFF1FE40FF51F828193812A81CA
:101420003B81822B932B938382838D919C91119787
:10143000FC01EE0FFF1FE80FF91FEE0FFF1FEE0F6D
:10144000FF1FE40FF51F848195812C813D81822B44
:10145000932B958384838D919C911197FC01EE0FC2
:10146000FF1FE80FF91FEE0FFF1FEE0FFF1FE40F26
:10147000F51F868197812E813F81822B932B978345
:1014800086838D919C911197FC01EE0FFF1FE80F51
:10149000F91FEE0FFF1FEE0FFF1FE40FF51F8085F2
:1014A000918528853985822B932B918780878D9113
:1014B0009C911197FC01EE0FFF1FE80FF91FEE0F33
:1014C000FF1FEE0FFF1FE40FF51F828593852A850E
:1014D0003B85822B932B9387828781E0F701808362
:1014E0008D919C91119701968D939C9302C0E70179
:1014F0001882DF91CF910F91FF90EF90DF90CF9006
:10150000BF90AF900895FC01808180768032E1F435
:101510008181813041F484E091E0909326018093B1
:10152000250187E00895823041F482E091E09093B4
:1015300026018093250181E008958A3029F4838172
:101540008093020180E0089580E008950F931F9337
:10155000DF93CF93CDB7DEB729970FB6F894DEBFF0
:101560000FBECDBF902F0983F12F1A83E22F2B835B
:10157000A32F3C83342F4D83B52F5E83462F6F837B
:10158000272F78878987582F1092050188E080934C
:10159000060180E880930701809308018093090188
:1015A00010920A013295307F3A2BFF0FFF0FEE0F9A
:1015B000EE0FEE0FEF2B990F9E2B932B90930401C0
:1015C000BB2311F010920601442319F084E08093AC
:1015D0000601220F80910501822B8093050152950F
:1015E000550F507E80910401852B80930401A895AE
:1015F0000E943C0B8091160184FF05C084E091E0BD
:1016000067E00E946A0C29960FB6F894DEBF0FBE01
:10161000CDBFCF91DF911F910F9108952EE088E10A
:1016200090E00FB6F894A895809360000FBE2093C9
:1016300060000E942B0B549A20E040EA5FE004C057
:10164000A895CA010197F1F72150D1F754987894E1
:101650000E943C0B0895E9E6F0E080818C60808375
:10166000E99A8BE480931701809342018AE5809385
:1016700016018093410108951F93CF93DF939091BA
:101680002701935097FDA8C0209124018091230148
:101690008D3209F09FC0983009F09CC0CCE0D0E0BA
:1016A000C21BD109C55DDE4F83EC80930B018AE537
:1016B00080930001109203018881807629F0CE0189
:1016C0000E94830A282F7DC09A811092140189817B
:1016D000882321F41092150122E06DC0853019F4A1
:1016E0009093280167C0863009F04EC08B8181300D
:1016F00041F486EE90E0909326018093250122E14B
:101700003FC0823041F488EF90E0909326018093AF
:10171000250129E235C08330F1F4992341F482EBAD
:1017200090E0909326018093250124E029C0913018
:1017300041F486EB90E090932601809325012CE103
:101740001FC09230E1F482ED90E0909326018093E7
:10175000250124E115C0813241F48AE091E09093A3
:1017600026018093250129E00BC0823241F488E6EE
:1017700090E090932601809325012AE401C020E0A7
:1017800080E4809303011DC0883021F421E08AE2C7
:1017900091E013C0893019F490932A010BC08A306C
:1017A00011F421E008C08B3029F48BE480931701F9
:1017B0008093420120E084E191E0909326018093A0
:1017C00025018F81882321F48E81821708F4282F28
:1017D00020930101109227018091000184FF4AC0EB
:1017E000809101018F3F09F445C0182F893008F01E
:1017F00018E0811B8093010180910B0198E88927F3
:1018000080930B01112341F1209125013091260194
:101810008091030186FF0DC0ACE0B1E080E090E074
:10182000F901E80FF91FE491ED9301961817C1F73C
:1018300008C0912FD901ECE0F1E08D918193915096
:10184000E1F71150812F90E01F5F0196820F931FE7
:1018500090932601809325018CE091E0612F0E94F6
:10186000A10C612F6C5F6C3019F08FEF8093010138
:101870006093000194E189B1887131F49150D9F7F6
:101880001092280110922201DF91CF911F910895AB
:101890001F93DC01162F8091410184FF07C08091C6
:1018A000420198E889278093420103C08AE580932A
:1018B0004101912FE3E4F1E08D9181939150E1F7A3
:1018C00083E491E0612F0E94A10C1C5F1093410101
:1018D0001F9108951F93DC01162F8091160184FF3C
:1018E00007C08091170198E889278093170103C0EA
:1018F0008AE580931601912FE8E1F1E08D918193C3
:101900009150E1F788E191E0612F0E94A10C1C5FEA
:10191000109316011F910895A82FB92F80E090E031
:1019200041E050EA609530E009C02D9182279795FB
:10193000879510F084279527305EC8F36F5FA8F372
:101940000895EADF8D939D930895CF93CFB7CF93FA
:10195000DF93C3954C9BE9F74C9B0BC04C9B09C094
:101960004C9B07C04C9B05C04C9B03C04C9B01C0CB
:101970008BC06F93C0912401DD27C55DDE4F2F938F
:1019800065E54C9B03C02F916F91E6CF0F931F939A
:101990004F9320E040E15F9309B1087104FB27F900
:1019A0003F9350E03BE039C0187140642F77012F1E
:1019B0005F5F1EC0406819B118712F7752501FC069
:1019C000406409B12F770871D1F15F5F00C023C077
:1019D000406219B12F77187191F15F5F00C025C087
:1019E00008711027515012F45D5F000011502795C7
:1019F0002C3F19B1C8F618710127015027952C3FCB
:101A0000C8F64227499309B1087110274F73115046
:101A100027952C3FA8F64695469519B1187179F08F
:101A20000127015027952C3F98F66B5A60F33150EF
:101A300009B1B0F600C012E01CBB002719C03B5032
:101A40003195C31BD04012E01CBB0881033C09F157
:101A50000B34F9F0209122011981110F1213EDCFEF
:101A60004A81441F093651F10D3211F0013E29F728
:101A7000009329013F915F914F911F910F912F91F9
:101A80006F91CCB3C1FD65CFDF91CF91CFBFCF9127
:101A9000189520912901222369F310912701112320
:101AA000E9F53430EAF130932701209323011091B6
:101AB00024013BE0311B3093240132C00091270107
:101AC000013064F50AE54F7049F43091000134FDAE
:101AD00028C000930001CBE0D1E027C0413549F098
:101AE0003091160134FD1DC000931601C7E1D1E00D
:101AF0001CC03091410134FD14C000934101C2E487
:101B0000D1E013C0052710E000C000000BB91AC0D7
:101B1000052710E0221F1DC010E021C04AE502C0C9
:101B200032ED432FC4E1D0E032E01AB118615C9A83
:101B30000BB11AB958E120E865E320FF05270BB97E
:101B4000279517951C3FF0F66695B8F7B1F720FF7B
:101B500005270BB9279517951C3FD0F627951795A4
:101B600017FF052700001C3F0BB9B0F629913A95E5
:101B700019F7077E10912801110FC651D0400BB9FB
:101B800011F01093220112E01CBB00611AB1177E04
:101B9000402F477E54E05A95F1F70BB91AB94BB96B
:101BA00069CFA0E0B0E0E7EDFDE00C94130E7C01FE
:101BB000EB018A01690109C0CE012196F601099560
:101BC000F70181937F010150104001151105A1F724
:101BD000CDB7DEB7E8E00C942F0EA0E0B0E0E3EF65
:101BE000FDE00C94130EEC017B018A01690109C030
:101BF000CE012196F70161917F01F601099501500F
:101C0000104001151105A1F7CDB7DEB7E8E00C943F
:101C10002F0E2F923F924F925F926F927F928F92F0
:101C20009F92AF92BF92CF92DF92EF92FF920F936B
:101C30001F93CF93DF93CDB7DEB7CA1BDB0B0FB675
:101C4000F894DEBF0FBECDBF09942A883988488832
:101C50005F846E847D848C849B84AA84B984C884C8
:101C6000DF80EE80FD800C811B81AA81B981CE0FBF
:101C7000D11D0FB6F894DEBF0FBECDBFED010895A4
:041C8000F894FFCF06
:021C84005AFF05
:00000001FF
